:020000040800F2
:100000000000032081080008490800084B08000888
:100010004D0800084F0800085108000800000000C3
:10002000000000000000000000000000F1140008C3
:10003000530800080000000091150008550800084A
:10004000D1080008D1080008D1080008D10800082C
:10005000D1080008D1080008D1080008D10800081C
:10006000D1080008D1080008D1080008D10800080C
:10007000D1080008D1080008D1080008D1080008FC
:10008000D1080008D1080008D1080008D1080008EC
:10009000D1080008D1080008D1080008D1080008DC
:1000A000D1080008D1080008D1080008D1080008CC
:1000B000D1080008D1080008D1080008D1080008BC
:1000C000D1080008D1080008D1080008D1080008AC
:1000D000D1080008D1080008D1080008D10800089C
:1000E000D1080008D1080008D1080008D10800088C
:1000F000D1080008D1080008D1080008D10800087C
:10010000D1080008D1080008D1080008D10800086B
:10011000D1080008D1080008D1080008D10800085B
:10012000D1080008D1080008D1080008D10800084B
:10013000D1080008D1080008D1080008D10800083B
:10014000D1080008D1080008D1080008D10800082B
:10015000D1080008D1080008D1080008D10800081B
:10016000D1080008D1080008D1080008D10800080B
:10017000D1080008D1080008D108000800000000DC
:10018000D1080008D1080008D1080008D1080008EB
:10019000D1080008D1080008D1080008D1080008DB
:0C01A0000000000000000000D108000872
:1001B00010B5054C237833B9044B13B10448AFF3A1
:1001C00000800123237010BD3C04002000000000CB
:1001D000AC30000808B5034B1BB103490348AFF32B
:1001E000008008BD0000000040040020AC30000882
:1001F00053B94AB9002908BF00281CBF4FF0FF318E
:100200004FF0FF3000F074B9ADF1080C6DE904CE89
:1002100000F006F8DDF804E0DDE9022304B07047E1
:100220002DE9F047089D04468E46002B4DD18A42A9
:10023000944669D9B2FA82F252B101FA02F3C2F1DC
:10024000200120FA01F10CFA02FC41EA030E94406D
:100250004FEA1C48210CBEFBF8F61FFA8CF708FB8E
:1002600016E341EA034306FB07F199420AD91CEB66
:10027000030306F1FF3080F01F81994240F21C8198
:10028000023E63445B1AA4B2B3FBF8F008FB1033E0
:1002900044EA034400FB07F7A7420AD91CEB040415
:1002A00000F1FF3380F00A81A74240F207816444E5
:1002B000023840EA0640E41B00261DB1D44000236A
:1002C000C5E900433146BDE8F0878B4209D9002DCE
:1002D00000F0EF800026C5E9000130463146BDE858
:1002E000F087B3FA83F6002E4AD18B4202D38242C2
:1002F00000F2F980841A61EB030301209E46002D71
:10030000E0D0C5E9004EDDE702B9FFDEB2FA82F2C5
:10031000002A40F09280A1EB0C014FEA1C471FFA23
:100320008CFE0126200CB1FBF7F307FB131140EA0A
:1003300001410EFB03F0884208D91CEB010103F1D7
:10034000FF3802D2884200F2CB804346091AA4B299
:10035000B1FBF7F007FB101144EA01440EFB00FE6D
:10036000A64508D91CEB040400F1FF3102D2A645D2
:1003700000F2BB800846A4EB0E0440EA03409CE771
:10038000C6F12007B34022FA07FC4CEA030C20FA1E
:1003900007F401FA06F31C43F9404FEA1C4900FA3E
:1003A00006F3B1FBF9F8200C1FFA8CFE09FB1811BB
:1003B00040EA014108FB0EF0884202FA06F20BD92E
:1003C0001CEB010108F1FF3A80F08880884240F27E
:1003D0008580A8F102086144091AA4B2B1FBF9F0C2
:1003E00009FB101144EA014100FB0EFE8E4508D9BD
:1003F0001CEB010100F1FF346CD28E456AD9023842
:10040000614440EA0840A0FB0294A1EB0E01A14226
:10041000C846A64656D353D05DB1B3EB080261EB94
:100420000E0101FA07F722FA06F3F1401F43C5E96E
:10043000007100263146BDE8F087C2F12003D840A4
:100440000CFA02FC21FA03F3914001434FEA1C47E6
:100450001FFA8CFEB3FBF7F007FB10360B0C43EAD8
:10046000064300FB0EF69E4204FA02F408D91CEB88
:10047000030300F1FF382FD29E422DD90238634486
:100480009B1B89B2B3FBF7F607FB163341EA034126
:1004900006FB0EF38B4208D91CEB010106F1FF3875
:1004A00016D28B4214D9023E6144C91A46EA00466C
:1004B00038E72E46284605E70646E3E61846F8E6FE
:1004C0004B45A9D2B9EB020864EB0C0E0138A3E747
:1004D0004646EAE7204694E74046D1E7D0467BE728
:1004E000023B614432E7304609E76444023842E7A0
:1004F000704700BF844641EA000313F003036DD147
:10050000403A41D351F8043B40F8043B51F8043BD6
:1005100040F8043B51F8043B40F8043B51F8043BDD
:1005200040F8043B51F8043B40F8043B51F8043BCD
:1005300040F8043B51F8043B40F8043B51F8043BBD
:1005400040F8043B51F8043B40F8043B51F8043BAD
:1005500040F8043B51F8043B40F8043B51F8043B9D
:1005600040F8043B51F8043B40F8043B51F8043B8D
:1005700040F8043B51F8043B40F8043B51F8043B7D
:1005800040F8043B403ABDD2303211D351F8043B1D
:1005900040F8043B51F8043B40F8043B51F8043B5D
:1005A00040F8043B51F8043B40F8043B103AEDD2CC
:1005B0000C3205D351F8043B40F8043B043AF9D21D
:1005C000043208D0D2071CBF11F8013B00F8013BF0
:1005D00001D30B8803806046704700BF082A13D3FD
:1005E0008B078DD010F003038AD0C3F10403D21A15
:1005F000DB071CBF11F8013B00F8013B80D331F849
:10060000023B20F8023B7BE7043AD9D3013A11F8C8
:10061000013B00F8013BF9D20B7803704B78437033
:100620008B7883706046704708B54FF4FA7000F01D
:1006300099FE4FF48041024800F000FBF5E700BF4F
:100640000014024008B54FF40061044800F0F6FAC7
:100650004FF4FA7000F086FEF5E700BF001002408C
:1006600008B5074A0021074800F01EFE064B186037
:10067000064A0021064800F017FE064B186008BD28
:10068000F8300008290600085C040020D430000877
:100690004506000858040020F0B589B000240394F2
:1006A00004940594069407940094214B1A6B42F02D
:1006B00080021A631A6B02F080020092009A019481
:1006C0001A6B42F010021A631A6B02F010020192C8
:1006D000019A02941A6B42F020021A631B6B03F01A
:1006E00020030293029B134F22464FF400613846C9
:1006F00000F09EFA104D22464FF48041284600F04B
:1007000097FA4FF400630393012604960594069428
:1007100003A9384600F08EF94FF480430393049602
:100720000594069403A9284600F084F909B0F0BDA9
:1007300000380240001002400014024072B6FEE78A
:1007400000B595B03022002108A802F0EDFB00238F
:10075000039304930593069307930193204A116C26
:1007600041F080511164126C02F080520192019AA2
:1007700002931C4B1A6842F440421A601B6803F44F
:1007800040430293029B012308934FF48033099363
:1007900002230E934FF480020F9206221092A82299
:1007A000119212930423139308A800F051FA98B9F8
:1007B0000F23039302230493002305934FF4A053C4
:1007C00006934FF480530793052103A800F08EFC95
:1007D00020B915B05DF804FBFFF7B0FFFFF7AEFFDF
:1007E000003802400070004008B500F099F8FFF7AB
:1007F000A7FFFFF751FF00F029FDFFF731FF00F0E1
:1008000037FDFEE700B583B0002200920D4B596C16
:1008100041F480415964596C01F480410091009980
:100820000192196C41F0805119641B6C03F08053E4
:100830000193019B0F216FF0010000F0AFF803B0AE
:100840005DF804FB00380240FEE7FEE7FEE7FEE746
:10085000FEE7704708B500F07DF802F0BFF8012808
:1008600000D108BD00F0C6FEFBE70000034AD2F845
:10087000883043F47003C2F88830704700ED00E020
:10088000DFF834D00D480E490E4A002302E0D45858
:10089000C4500433C4188C42F9D30B4A0B4C0023C8
:1008A00001E013600432A242FBD3FFF7DFFF02F046
:1008B00017FBFFF799FF704700000320000000209E
:1008C0003C0400205C3100083C040020B84D0020AE
:1008D000FEE7000010B504460E4B18784FF47A730B
:1008E000B3FBF0F30C4A1068B0FBF3F000F08EF8A5
:1008F00068B90F2C01D901200AE0002221464FF0EF
:10090000FF3000F04BF8054B1C60002000E0012098
:1009100010BD00BF040000200000002008000020DF
:1009200008B50B4B1A6842F400721A601A6842F458
:1009300080621A601A6842F480721A60032000F024
:100940001BF80F20FFF7C6FFFFF75CFF002008BD74
:10095000003C0240034A1168034B1B780B441360B0
:10096000704700BF6004002004000020014B18689D
:10097000704700BF60040020074AD36823F4E06397
:100980001B041B0C000200F4E060034343F0BF6350
:1009900043F40033D360704700ED00E000B5194B1D
:1009A000DB68C3F30223C3F1070CBCF1040F28BFBB
:1009B0004FF0040C03F1040EBEF1060F18D9033BEF
:1009C0004FF0FF3E0EFA0CFC21EA0C0199400EFAA2
:1009D00003F322EA0303194300280BDB0901C9B220
:1009E00000F1604000F5614080F800135DF804FB01
:1009F0000023E5E700F00F000901C9B2024B1954CA
:100A0000F4E700BF00ED00E014ED00E00138B0F1C4
:100A1000807F0BD24FF0E0235861054AF02182F825
:100A200023100020986107221A6170470120704747
:100A300000ED00E000230F2B00F2F18070B582B0D2
:100A400061E085685E000324B44025EA0405CC68B3
:100A5000B4402C438460456825EA02054C68C4F321
:100A600000129A402A4342605BE0DC08083450F8E8
:100A7000246003F0070295000F22AA4026EA020E26
:100A80000A69AA4042EA0E0240F824205DE00922E9
:100A900000E0002202FA0EF22A430234604D45F8CB
:100AA0002420604A94686FEA0C0224EA0C054E6820
:100AB00016F4801F01D04CEA04055A4CA560E46886
:100AC00002EA04054E6816F4001F01D04CEA040542
:100AD000544CE560646802EA04054E6816F4003F71
:100AE00001D04CEA04054F4C6560246822404D68F3
:100AF00015F4803F01D04CEA04024A4C22600133D5
:100B00000F2B00F28A8001229A400C6804EA020C42
:100B100032EA0404F3D14C6804F00304013C012CD4
:100B20008FD94A6802F00302032A09D0C4685D0025
:100B30000322AA4024EA02048A68AA402243C2602F
:100B40004A6802F00302022A8FD004684FEA430E7B
:100B5000032202FA0EF224EA02044A6802F00302B7
:100B600002FA0EF2224302604A6812F4403FC6D0F5
:100B7000002201922C4A546C44F480445464526C18
:100B800002F480420192019A9C08A51C244A52F862
:100B9000255003F003024FEA820E0F2202FA0EF2F2
:100BA00025EA0205214A90423FF473AF02F58062C4
:100BB000904222D002F58062904220D002F58062FD
:100BC00090421ED002F5806290421CD002F58062F5
:100BD00090421AD002F58062904218D002F58062ED
:100BE000904216D002F58062904214D002F58062E5
:100BF00090423FF44CAF0A224CE701224AE702221E
:100C000048E7032246E7042244E7052242E706229A
:100C100040E707223EE708223CE702B070BD70477C
:100C200000380140003C0140003802400000024012
:100C30000AB181617047090481617047436901EA23
:100C4000030221EA030141EA024181617047000089
:100C5000002800F0E08170B582B00446036813F00C
:100C6000010F3BD09F4B9B6803F00C03042B2CD04F
:100C70009C4B9B6803F00C03082B21D06368B3F5F1
:100C8000803F4FD0B3F5A02F52D0964B1A6822F474
:100C900080321A601A6822F480221A606368002B7E
:100CA00050D0FFF763FE05468E4B1B6813F4003FE0
:100CB00014D1FFF75BFE401B6428F5D90320B1E196
:100CC000884B5B6813F4800FD8D0864B1B6813F4F5
:100CD000003F03D06368002B00F09F81236813F06E
:100CE000020F54D07F4B9B6813F00C0F3ED07D4B0E
:100CF0009B6803F00C03082B33D0E368002B68D00B
:100D0000794B01221A60FFF731FE0546754B1B68CF
:100D100013F0020F54D1FFF729FE401B0228F5D92A
:100D200003207FE16F4A136843F480331360B5E713
:100D30006C4B1A6842F480221A601A6842F48032BE
:100D40001A60ABE7FFF712FE0546664B1B6813F40B
:100D5000003FC3D0FFF70AFE401B6428F5D90320EB
:100D600060E1604B5B6813F4800FC6D15D4B1B687C
:100D700013F0020F03D0E368012B40F05081594A71
:100D8000136823F0F803216943EAC1031360236861
:100D900013F0080F42D063696BB3534B0122C3F8C1
:100DA000802EFFF7E3FD05464E4B5B6F13F0020FFD
:100DB00034D1FFF7DBFD401B0228F5D9032031E1D8
:100DC000484A136823F0F803216943EAC10313601A
:100DD000DDE7454B00221A60FFF7C8FD0546414B91
:100DE0001B6813F0020FD2D0FFF7C0FD401B022892
:100DF000F5D9032016E13C4B0022C3F8802EFFF703
:100E0000B5FD0546374B5B6F13F0020F06D0FFF7B9
:100E1000ADFD401B0228F5D9032003E1236813F040
:100E2000040F77D02F4B1B6C13F0805F33D100235E
:100E300001932C4B1A6C42F080521A641B6C03F025
:100E400080530193019B0125284B1B6813F4807F7D
:100E500023D0A368012B34D0052B38D0214B1A6F37
:100E600022F001021A671A6F22F004021A67A368BF
:100E7000002B3DD0FFF77AFD06461A4B1B6F13F08F
:100E8000020F46D1FFF772FD801B41F28833984272
:100E9000F3D90320C6E00025D6E7144A136843F4CB
:100EA00080731360FFF762FD0646104B1B6813F456
:100EB000807FCED1FFF75AFD801B0228F5D9032091
:100EC000B0E0084A136F43F001031367CFE7054B07
:100ED0001A6F42F004021A671A6F42F001021A6791
:100EE000C5E700BF003802400000474200700040E4
:100EF000FFF73CFD0646524B1B6F13F0020F08D064
:100F0000FFF734FD801B41F288339842F3D9032068
:100F100088E0EDB9A369002B00F08380484A92680D
:100F200002F00C02082A51D0022B17D0454B0022A8
:100F30001A66FFF71BFD0446414B1B6813F0007F48
:100F400042D0FFF713FD001B0228F5D9032069E00A
:100F50003B4A136C23F080531364DBE7394B0022C8
:100F60001A66FFF703FD0546354B1B6813F0007F3B
:100F700006D0FFF7FBFC401B0228F5D9032051E007
:100F8000E369226A1343626A43EA8213A26A52083F
:100F9000013A43EA0243E26A43EA0263284A5360A1
:100FA000284B01221A66FFF7E1FC0446244B1B681C
:100FB00013F0007F06D1FFF7D9FC001B0228F5D9FA
:100FC00003202FE000202DE000202BE0012B2BD070
:100FD0001B4B5B6803F48001E269914226D103F068
:100FE0003F02216A8A4223D1616A47F6C0721A40E1
:100FF000B2EB811F1ED103F44031A26A5208013ABC
:10100000B1EB024F18D103F07063E26AB3EB026FE9
:1010100014D1002006E001207047012002E00120E9
:1010200000E0002002B070BD0120FBE70120F9E7DD
:101030000120F7E70120F5E70120F3E70120F1E7C0
:10104000003802400000474208B5254B9B6803F07A
:101050000C03042B3FD0082B3FD1214B5A6802F0E0
:101060003F025B6813F4800F12D01D4B5968C1F327
:1010700088111C480023A1FB0001FFF7B9F8184BA9
:101080005B68C3F3014301335B00B0FBF3F025E081
:10109000134B5968C1F3881C4FEA4C11B1EB0C009B
:1010A0006EEB0E0E4FEA8E1343EA90638101091A2C
:1010B00063EB0E03DB0043EA5173C90011EB0C0C28
:1010C00043F10003990200234FEA8C2041EA9C512E
:1010D000FFF78EF8D3E7034800E0034808BD00BFE0
:1010E00000380240001BB7000024F400002800F084
:1010F0009B8070B50D4604464F4B1B6803F00F03F1
:101100008B4208D2CBB24C4A1370136803F00F0322
:101110008B4240F08B80236813F0020F17D013F03E
:10112000040F04D0454A936843F4E0539360236866
:1011300013F0080F04D0414A936843F4604393606E
:101140003E4A936823F0F003A1680B439360236841
:1011500013F0010F32D06368012B21D09A1E012AAF
:1011600025D9364A126812F0020F61D033498A68D5
:1011700022F0030213438B60FFF7F8FB06462F4B68
:101180009B6803F00C036268B3EB820F16D0FFF785
:10119000EDFB801B41F288339842F0D9032042E0F6
:1011A000264A126812F4003FE0D101203BE0234AB6
:1011B000126812F0007FD9D1012034E01E4B1B6869
:1011C00003F00F03AB4207D9EAB21B4B1A701B683E
:1011D00003F00F03AB422DD1236813F0040F06D0A8
:1011E000164A936823F4E053E1680B439360236845
:1011F00013F0080F07D0114A936823F46043216964
:1012000043EAC1039360FFF71FFF0C4B9B68C3F3D6
:1012100003130B4AD35CD8400A4B18600A4B18687A
:10122000FFF758FB002070BD012070470120FAE74E
:101230000120F8E70120F6E7003C024000380240B8
:101240001C3100080000002008000020EFF3058397
:101250002BB9064B186828B901221A6070476FF045
:10126000050070474FF0FF30704700BFC0060020F8
:10127000EFF3058373B90A4B1B68012B0DD110B531
:101280000024084BDC77064B02221A6001F004F9B7
:10129000204610BD6FF0050070474FF0FF307047DB
:1012A000C006002000ED00E0F0B587B000240594F2
:1012B000EFF3058474BB68B322B31568936903B96F
:1012C00018235C1E372C49D8546814F0010F47D1FD
:1012D00056696EB14FEA960C94682CB1D7685B2FB3
:1012E00002D9176907B1C6B92CB14FF0FF340EE02F
:1012F0004FF0800CF0E7D4688CB9146994B14FF0CA
:10130000FF3404E01546002418234FF0800C012C14
:101310000AD0ACB1059807B0F0BD0124F7E74FF053
:10132000FF34F4E70024F2E7146992680292019412
:1013300000930B466246294601F03EF80590E9E726
:1013400005AA019200930B461FFA8CF2294601F080
:101350006EF80128DED000230593DBE70020DAE7F2
:101360000020D8E708B5EFF3058333B908B90020AA
:1013700008BD01F0F5F90020FAE76FF00500F7E786
:10138000034B0360034B0B6080231360704700BF67
:101390006406002064040020034B0360034B0B60D1
:1013A0004FF4807313607047C40A0020C406002005
:1013B00000F1080343604FF0FF328260C3600361B5
:1013C00000230360704700230361704743684B604C
:1013D0009A688A605160996008610368013303600C
:1013E000704730B40D68B5F1FF3F11D000F108032C
:1013F0001C465B681A68AA42FAD963684B60996018
:101400008C606160086103680133036030BC704721
:101410000469F2E70369416882688A604168516043
:101420005A68824206D0002202611A68013A1A60A4
:101430001868704782685A60F5E7000082B00023A0
:1014400001930D4B1B68B3F1FF3F08D04FF05003E1
:1014500083F31188BFF36F8FBFF34F8FFEE74FF019
:10146000500383F31188BFF36F8FBFF34F8F019B3E
:10147000002BFCD002B070470C0000200848006828
:10148000006880F308884FF0000080F3148862B68B
:1014900061B6BFF34F8FBFF36F8F00DF00BF000057
:1014A00008ED00E0DFF80C00016841F47001016014
:1014B0007047000088ED00E04FF0807340F8043C76
:1014C00021F0010140F8081C054B40F80C3C40F8A5
:1014D000202C6FF0020340F8243C4438704700BFD2
:1014E0003D140008000000000000000000000000A3
:1014F000074B19680868B0E8F04F80F30988BFF31C
:101500006F8F4FF0000080F311887047AFF30080B9
:10151000884700204FF0500383F31188BFF36F8F8B
:10152000BFF34F8F0B4A136801331360012B00D0B8
:1015300070474FF0E023D3F8043D13F0FF0FF7D0CE
:101540004FF0500383F31188BFF36F8FBFF34F8FBA
:10155000FEE700BF0C000020094B1B6843B94FF0A9
:10156000500383F31188BFF36F8FBFF34F8FFEE7F4
:10157000013B034A13600BB983F31188704700BF26
:101580000C0000200000000000000000000000002F
:10159000EFF30980BFF36F8F154B1A681EF0100F21
:1015A00008BF20ED108A20E9F04F10602DE90900F6
:1015B0004FF0500080F31188BFF34F8FBFF36F8F50
:1015C00001F0F4F84FF0000080F3118809BC1968AD
:1015D0000868B0E8F04F1EF0100F08BFB0EC108A9A
:1015E00080F30988BFF36F8F704700BFAFF30080AF
:1015F0008847002008B54FF0500383F31188BFF3EC
:101600006F8FBFF34F8F00F0A3FF28B14FF0E0239F
:101610004FF08052C3F8042D002383F3118808BDD6
:101620004FF0E022002313619361054B1B680549CD
:10163000A1FB03139B09013B53610723136170470F
:1016400000000020D34D62104FF0E023D3F8002DAE
:101650003D4B9A421CD04FF0E023D3F8002D3B4B7A
:101660009A421ED030B583B0394B1A78D2B201926B
:10167000FF221A701B78DBB28DF803309DF803301F
:1016800003F05003334A1370334B07221A601BE0F8
:101690004FF0500383F31188BFF36F8FBFF34F8F69
:1016A000FEE74FF0500383F31188BFF36F8FBFF352
:1016B0004F8FFEE7284A1368013B13609DF8033003
:1016C0005B00DBB28DF803309DF8033013F0800F20
:1016D000F0D1214B1B68032B08D04FF0500383F34C
:1016E0001188BFF36F8FBFF34F8FFEE71B021A4ABB
:1016F000136003F4E0631360019BDBB2144A1370C0
:101700004FF0E024D4F8203D43F47003C4F8203DAA
:10171000D4F8203D43F07043C4F8203DFFF780FF2C
:1017200000250E4B1D60FFF7BDFED4F8343F43F09B
:101730004043C4F8343FFFF7A1FE01F037F8FFF74C
:101740007DFE284603B030BD71C20F4170C20F410B
:1017500000E400E0200B0020240B00200C000020FF
:10176000EFF305830F2B0FD9114A9B5CDBB2114AB3
:1017700012789A4208D94FF0500383F31188BFF3CF
:101780006F8FBFF34F8FFEE74FF0E023D3F80C3D90
:1017900003F4E063084A1268934208D94FF05003FB
:1017A00083F31188BFF36F8FBFF34F8FFEE770474E
:1017B000F0E300E0200B0020240B0020124A12F07E
:1017C000070F1ED0D11D21F00701C1F5705313443E
:1017D0000A460E480260002141601344083B23F092
:1017E00007030B48036059601960991A5160136030
:1017F000084B1960084B1960084B4FF000421A6003
:1018000070474FF47053E4E72C0B00204047002052
:10181000280B002034470020304700202C470020B0
:10182000164B1A461B688342FBD3516802EB010C2E
:10183000844509D0416800EB010C634509D0036081
:10184000904219D0106070474068014451601046C2
:10185000F0E710B40A4C2468A3420BD05B6819442B
:10186000416013681B680360904200D010605DF80F
:10187000044B70470460F7E7704700BF4047002003
:10188000280B002070B5054600F054FE364B1B684F
:10189000A3B1364B1B681D424ED135B1083515F04A
:1018A000070F02D025F007050835002D46D0304B34
:1018B0001B68AB4251D32F4A146804E0FFF77EFF48
:1018C000E7E722461C466368AB4202D22368002B3E
:1018D000F7D1254B1B68A34241D016680836236810
:1018E000136063685B1B102B10D9601910F0070F91
:1018F00008D04FF0500383F31188BFF36F8FBFF30D
:101900004F8FFEE743606560FFF78AFF6268184902
:101910000B689B1A0B60184909688B4201D2164963
:101920000B60124B1B681343636000232360134A50
:1019300013680133136002E0002600E0002600F087
:1019400093FE16F0070F0CD04FF0500383F311886D
:10195000BFF36F8FBFF34F8FFEE70026EFE7002640
:10196000EDE7304670BD00BF280B00202C4700205B
:1019700030470020404700203447002038470020EF
:10198000002834D038B50446A0F1080550F8043CCE
:10199000174A1268134208D14FF0500383F311889D
:1019A000BFF36F8FBFF34F8FFEE750F8081C41B1B4
:1019B0004FF0500383F31188BFF36F8FBFF34F8F46
:1019C000FEE723EA020340F8043C00F0B3FD54F8BC
:1019D000041C084A13680B4413602846FFF720FFD5
:1019E000054A13680133136000F03EFE38BD7047AE
:1019F0002C470020304700203C47002010B504460B
:101A0000FFF788FDA26BE36B9A4204D00024FFF736
:101A1000A3FD204610BD0124F9E710B50446FFF7E9
:101A200079FDA36B23B90124FFF796FD204610BD75
:101A30000024F9E770B504461546866B026C5AB966
:101A400003681BB100200136A66370BD806800F0FA
:101A5000D5FF0023A360F6E76DB94068FEF74AFDA5
:101A6000226C636813446360A268934219D32368AD
:101A700063602846E7E7C068FEF73CFD226C5142F0
:101A8000E3689B1AE3602268934202D2A3680B4486
:101A9000E360022D01D00020D5E726B1013E0020F1
:101AA000D1E72846CFE70020CDE70346026C6AB1B4
:101AB00010B50846D9681144D9609C68A14201D389
:101AC0001968D960D968FEF715FD10BD704738B5A3
:101AD0000546FFF71FFD95F8454064B201E0013C63
:101AE00064B2002C0ADD6B6A43B105F1240000F0FA
:101AF000DBFE0028F3D000F06BFFF0E7FF2385F852
:101B00004530FFF729FDFFF705FD95F8444064B225
:101B100001E0013C64B2002C0ADD2B6943B105F100
:101B2000100000F0C1FE0028F3D000F051FFF0E7F4
:101B3000FF2385F84430FFF70FFD38BD38B5E0B11D
:101B40000D460446FFF7E6FC2368E26B216C01FBBF
:101B50000230A0600020A0636360013A02FB013301
:101B6000E360FF2384F8443084F84530FDB92369ED
:101B700063B9FFF7F1FC012038BD4FF0500383F348
:101B80001188BFF36F8FBFF34F8FFEE704F1100092
:101B900000F08AFE0028ECD04FF0E0234FF0805296
:101BA000C3F8042DBFF34F8FBFF36F8FE1E704F14C
:101BB0001000FFF7FDFB04F12400FFF7F9FBD8E765
:101BC00038B51D46049C0B4649B92460E063236484
:101BD00001212046FFF7B2FF84F84C5038BD226047
:101BE000F4E740B94FF0500383F31188BFF36F8FD0
:101BF000BFF34F8FFEE710B584B01C46844653B147
:101C000092B189B94FF0500383F31188BFF36F8FFE
:101C1000BFF34F8FFEE74FF0500383F31188BFF3FC
:101C20006F8FBFF34F8FFEE76AB150230393039B7F
:101C3000502B13D04FF0500383F31188BFF36F8FF5
:101C4000BFF34F8FFEE70029EFD04FF0500383F32F
:101C50001188BFF36F8FBFF34F8FFEE7039B012304
:101C600084F8463000949DF818306046FFF7A8FFCE
:101C7000204604B010BDF0B585B0019288B10F4682
:101C80001D460446B1B1022D20D1E36B012B1DD0BE
:101C90004FF0500383F31188BFF36F8FBFF34F8F63
:101CA000FEE74FF0500383F31188BFF36F8FBFF34C
:101CB0004F8FFEE7036C002BE5D04FF0500383F30A
:101CC0001188BFF36F8FBFF34F8FFEE700F086FEE2
:101CD000064658B9019B002B48D04FF0500383F3C0
:101CE0001188BFF36F8FBFF34F8FFEE700263DE0F3
:101CF0002A4639462046FFF79DFE636A7BB948B104
:101D00004FF0E0234FF08052C3F8042DBFF34F8F04
:101D1000BFF36F8FFFF720FC012005B0F0BD04F189
:101D2000240000F0C1FD0028F4D04FF0E0234FF074
:101D30008052C3F8042DBFF34F8FBFF36F8FE9E7D5
:101D4000FFF70AFC0020E8E702A800F0F3FD0126F7
:101D500019E0002384F8443021E0002384F8453062
:101D600023E02046FFF7B3FE00F07EFCFFF7D2FB36
:101D7000A26BE36B9A42BBD3022DB9D0019B002B1F
:101D8000DED0002EE0D0FFF7E7FB00F0D3FBFFF73B
:101D9000C1FB94F8442052B2B2F1FF3FD9D094F87D
:101DA000452052B2B2F1FF3FD7D0FFF7D5FB01A9D2
:101DB00002A800F0CBFDD8B92046FFF71FFE00288F
:101DC000CFD0019904F1100000F03AFD2046FFF752
:101DD0007EFE00F049FC0028C8D14FF0E0234FF010
:101DE0008052C3F8042DBFF34F8FBFF36F8FBDE751
:101DF0002046FFF76CFE00F037FC00208DE72DE950
:101E0000F84390B10F4616461C460546B1B1022C68
:101E100020D1EB6B012B1DD04FF0500383F31188C1
:101E2000BFF36F8FBFF34F8FFEE74FF0500383F385
:101E30001188BFF36F8FBFF34F8FFEE7036C002B4A
:101E4000E5D04FF0500383F31188BFF36F8FBFF3DA
:101E50004F8FFEE7FFF784FCEFF311894FF050033B
:101E600083F31188BFF36F8FBFF34F8FAA6BEB6BB8
:101E70009A4206D3022C04D0002089F31188BDE8D1
:101E8000F88395F845804FFA88F8AB6B22463946BF
:101E90002846FFF7CFFDB8F1FF3F06D008F1010358
:101EA0005BB285F845300120E7E76B6A0BB901208A
:101EB000E3E705F1240000F0F7FC18B126B101209A
:101EC0003060DAE70120D8E70120D6E7F0B585B029
:101ED000019290B10F460446C1B100F07FFD064665
:101EE00000BB019B002B5ED04FF0500383F31188A1
:101EF000BFF36F8FBFF34F8FFEE74FF0500383F3B5
:101F00001188BFF36F8FBFF34F8FFEE7036C002B79
:101F1000E3D04FF0500383F31188BFF36F8FBFF30B
:101F20004F8FFEE700263EE039462046FFF7BDFD15
:101F3000013DA563236923B9FFF70EFB012005B01E
:101F4000F0BD04F1100000F0AFFC0028F4D04FF019
:101F5000E0234FF08052C3F8042DBFF34F8FBFF33F
:101F60006F8FE9E7FFF7F8FA0020E8E702A800F032
:101F7000E1FC012621E0002384F8443029E000231D
:101F800084F845302BE02046FFF7A1FD00F06CFB04
:101F900009E02046FFF79BFD00F066FB2046FFF7B7
:101FA0003CFD00283FD1FFF7B5FAA56B002DBBD152
:101FB000019B002BD6D0002ED8D0FFF7CDFA00F031
:101FC000B9FAFFF7A7FA94F844305BB2B3F1FF3FD8
:101FD000D1D094F845305BB2B3F1FF3FCFD0FFF7DB
:101FE000BBFA01A902A800F0B1FC0028D1D120461B
:101FF000FFF713FD0028C6D0019904F1240000F07A
:102000001FFC2046FFF763FD00F02EFB0028CAD11D
:102010004FF0E0234FF08052C3F8042DBFF34F8FF1
:10202000BFF36F8FBFE7002089E700000023072B75
:102030000CD8074A52F833200AB10133F7E7044AB3
:1020400042F8331002EBC30358607047704700BF7B
:102050004847002070B504460D461646FFF75AFA69
:1020600094F844305BB2B3F1FF3F0DD094F84530A3
:102070005BB2B3F1FF3F0BD0FFF76EFAA36B5BB11E
:102080002046FFF724FD70BD002384F84430EDE7BF
:10209000002384F84530EFE73246294604F1240056
:1020A00000F0E6FBECE70000084B1B681B6823B957
:1020B000074B4FF0FF321A607047044B1B68DB6818
:1020C000DB685A68024B1A60704700BF8C470020DB
:1020D000344C00202DE9F04780460D4617469946BE
:1020E000089EDDF824A00A9C9200A521206B00F038
:1020F0001BFF236B07F18042013A03EB820727F0B5
:102100000707B5B34FF0000CBCF10F0F0BD815F853
:102110000C2004EB0C0383F8342015F80C3013B1B9
:102120000CF1010CF0E7002384F84330372E00D97E
:102130003726E662E66400252565201DFFF743F992
:1021400004F11800FFF73FF92461C6F13806A661D3
:102150006462656584F858504A4641463846FFF740
:10216000ABF92060BAF1000F01D0CAF80040BDE819
:10217000F087002384F83430D8E7000038B5002415
:1021800007E004EB840293000E481844FFF710F9AF
:102190000134372CF5D90C4D2846FFF709F90B4CC3
:1021A0002046FFF705F90A48FFF702F90948FFF74B
:1021B000FFF80948FFF7FCF8084B1D60084B1C604E
:1021C00038BD00BF94470020084C00201C4C002064
:1021D000404C00206C4C0020584C00208C470020C4
:1021E0009047002010B50446FFF794F9224A13687F
:1021F00001331360214B1B685BB1214B1B686BB92A
:102200001E4B1B68DA6AE36A9A4207D81B4B1C60B4
:1022100004E01A4B1C601368012B29D0194A13687B
:10222000013313606364E06A174B1B68984201D95D
:10223000154B186000EB8000211D144B03EB800050
:10224000FFF7C4F8FFF788F90D4B1B687BB10B4B08
:102250001B68DA6AE36A9A4209D24FF0E0234FF032
:102260008052C3F8042DBFF34F8FBFF36F8F10BDA3
:10227000FFF784FFD2E700BFF44B0020884700201F
:10228000544C0020004C0020044C002094470020B7
:1022900010B5044690F8593063B1012B11D0022BD0
:1022A0000ED04FF0500383F31188BFF36F8FBFF34D
:1022B0004F8FFEE7006BFFF763FB2046FFF760FBE5
:1022C00010BDFFF75DFBFBE70F4B1B68D3B110B5EB
:1022D000FFF720F90D4BDB68DC68201DFFF79AF84B
:1022E0000B4A1368013B1360074A1368013B1360F4
:1022F000FFF732F92046FFF7CBFF034B1B68002B9B
:10230000E6D110BD704700BFF84B00206C4C002098
:10231000F44B002008B5FFF7D7FF074B1B68012BD4
:10232000F9D94FF0E0234FF08052C3F8042DBFF3EA
:102330004F8FBFF36F8FEEE79447002070B50446D0
:102340000D46174B1E68174B18680430FFF762F8EC
:10235000B4F1FF3F0DD03444124B1B685C60A642C1
:1023600010D9114B18680F4B19680431FFF739F871
:1023700070BD002DEFD00B4B196804310B48FFF7EF
:1023800025F8F5E70A4B1868064B19680431FFF782
:1023900028F8084B1B68A342EAD9064B1C60E7E704
:1023A000804C00208847002090470020584C002097
:1023B0008C470020344C002030B587B00B9C7CB19A
:1023C0000C9DB5B15C250495049D5C2D1AD04FF091
:1023D000500383F31188BFF36F8FBFF34F8FFEE776
:1023E0004FF0500383F31188BFF36F8FBFF34F8F0C
:1023F000FEE74FF0500383F31188BFF36F8FBFF3F5
:102400004F8FFEE7049D0C9D2C63022485F85940F4
:1024100000240394029505AC01940A9C0094FFF7F4
:1024200059FE0C98FFF7DEFE059807B030BD2DE988
:10243000F04385B00746884614461E469000FFF7D5
:1024400021FA00B381465C20FFF71CFA0546B0B1C3
:10245000C0F83090E5B1002385F859300393029518
:102460000D9B01930C9B0093334622464146384610
:10247000FFF730FE2846FFF7B5FE012005E048468D
:10248000FFF77EFAE6E74FF0FF3005B0BDE8F083D6
:102490004FF0FF30F9E7000010B588B00024059434
:1024A000069407AA06A905A8FEF76AFF059B0293F2
:1024B000069B019300942346079A18491848FFF792
:1024C0007BFF184B186040B100F04CFB012806D090
:1024D000B0F1FF3F18D008B010BD0020F6E74FF074
:1024E000500383F31188BFF36F8FBFF34F8F0E4BF1
:1024F0004FF0FF321A600D4B01221A600C4B002284
:102500001A60FFF7A1F8E6E74FF0500383F3118854
:10251000BFF36F8FBFF34F8FFEE700BF2C31000872
:1025200015230008304C0020344C0020544C00206F
:10253000804C0020024A136801331360704700BFCB
:10254000FC4B0020014B1868704700BF804C0020F6
:10255000F8B53A4B1B68002B69D1394B1D68013522
:102560001D60C5B9374B1B681B6843B14FF0500362
:1025700083F31188BFF36F8FBFF34F8FFEE7314AAC
:102580001168314B186810601960304A13680133C4
:102590001360FFF789FD2E4B1B68AB423DD9002726
:1025A0002C4B1B68DB6A03EB83039A002A4B9B5876
:1025B000012B00D90127294B1B68002B3CD0012798
:1025C0003AE001271F4B1B681B6843B31D4B1B6878
:1025D000DB68DC6863689D4226D3261D3046FEF723
:1025E00019FFA36A1BB104F11800FEF713FFE36A99
:1025F0001B4A1268934201D9194A136003EB830303
:102600009A00314614481044FEF7E0FEE26A114B8E
:102610001B68DB6A9A42D4D2D4E70027D2E70C4B7E
:102620004FF0FF321A60BBE7094A1360B8E70D4A62
:1026300013680133136000273846F8BDFC4B0020B7
:10264000804C00208C47002090470020384C002010
:10265000344C00208847002094470020844C002000
:10266000044C00203C4C002038B5354B1B6843B966
:102670004FF0500383F31188BFF36F8FBFF34F8F79
:10268000FEE7FEF747FF2E4B1A68013A1A601B68F7
:10269000002B4FD12B4B1B680BB900244BE00024BF
:1026A000294B1B681BB3284BDB68DC6804F118005E
:1026B000FEF7B0FE251D2846FEF7ACFEE06A234B70
:1026C0001B68984201D9214B186000EB8000294615
:1026D0001F4B03EB8000FEF779FEE26A1D4B1B687F
:1026E000DB6A9A42DCD31C4B01221A60D8E70CB19A
:1026F000FFF7DAFC194B1C6884B9174B1C68D4B17E
:102700004FF0E0234FF08052C3F8042DBFF34F8FFA
:10271000BFF36F8F01240EE0013C07D0FFF718FFD5
:102720000028F9D00C4B01221A60F5E70B4B002270
:102730001A60E2E70024FEF70FFF204638BD00BF15
:10274000FC4B0020F44B0020404C0020044C0020A7
:102750009447002088470020844C00203C4C0020F7
:1027600010B5A8B10446104B1B6843B14FF050039D
:1027700083F31188BFF36F8FBFF34F8FFEE7FFF72F
:10278000D9FE00212046FFF7D9FDFFF76DFF48B9BC
:102790004FF0E0234FF08052C3F8042DBFF34F8F6A
:1027A000BFF36F8F10BD00BFFC4B00201F4B1B6899
:1027B0001BB11F4B01221A6070471D4B00221A608B
:1027C0001C4B1B6803EB83018A001B498A585AB9CA
:1027D0000BB1013BF6E74FF0500383F31188BFF3D1
:1027E0006F8FBFF34F8FFEE703EB830082000A4435
:1027F00050684068506003EB830C4FEA8C0208324B
:10280000114488420BD003EB830291000A4A0A4428
:102810005268D168094A1160064A136070474068DF
:1028200062469100044A0A445060ECE7FC4B0020E9
:10283000844C0020044C002094470020884700204E
:1028400058B110B50C46094A11681831FEF7C9FD98
:1028500001212046FFF772FD10BD4FF0500383F3B6
:102860001188BFF36F8FBFF34F8FFEE788470020BB
:1028700038B570B10D4614460A4A11681831FEF792
:10288000A5FD0CB14FF0FF3521462846FFF756FD58
:1028900038BD4FF0500383F31188BFF36F8FBFF340
:1028A0004F8FFEE78847002038B5C368DC6824B343
:1028B00004F118052846FEF7ADFD184B1B682BBB2D
:1028C000251D2846FEF7A6FDE06A154B1B689842B9
:1028D00001D9134B186000EB80002946114B03EB24
:1028E0008000FEF773FDE26A0F4B1B68DB6A9A42B9
:1028F00011D901200D4B186038BD4FF0500383F300
:102900001188BFF36F8FBFF34F8FFEE7294608484A
:10291000FEF75CFDE7E70020EEE700BFFC4B002080
:10292000044C00209447002088470020844C00205D
:10293000404C0020034B1B680360034B1B68436043
:10294000704700BF384C0020804C0020F8B5C8B15B
:102950000C460546F9B1FEF7DDFD1B4B19686B68A7
:10296000C81A2268B2F1FF3F26D0184E36682F6889
:10297000B74201D08B4224D9824215D8002323606C
:1029800001241AE04FF0500383F31188BFF36F8FD7
:10299000BFF34F8FFEE74FF0500383F31188BFF36F
:1029A0006F8FBFF34F8FFEE75B1A134423602846F7
:1029B000FFF7C0FF002400E00024FEF7CDFD204615
:1029C000F8BD0124F9E700BF804C0020384C0020FE
:1029D000014B01221A607047844C0020054B1B6894
:1029E00033B1054B1B680BB10020704702207047C4
:1029F00001207047544C0020FC4B002000283BD0A5
:102A000038B504461E4B1B68834208D04FF0500374
:102A100083F31188BFF36F8FBFF34F8FFEE7036D12
:102A200043B94FF0500383F31188BFF36F8FBFF3A7
:102A30004F8FFEE7013B0365C16AC26C91421DD016
:102A40000BB1002038BD051D2846FEF7E3FCE06C05
:102A5000E062C0F13803A3610A4B1B68984201D9B8
:102A6000084B186000EB80002946074B03EB800001
:102A7000FEF7ACFC0120E5E7002070470020E1E70D
:102A800088470020044C002094470020064B1A6819
:102A900013682BB90123036023B9D3681868704702
:102AA0000023F8E700207047884C002008B54160FB
:102AB000006191420CD8D21A83699A4201D3012055
:102AC00008BD011D094B1868FEF78BFC0020F7E7D5
:102AD0009A4201D2994206D2011D054B1868FEF7B1
:102AE00080FC0020ECE70120EAE700BF8C4C0020CE
:102AF000884C002030B583B0FEF70CFD114B1B68ED
:102B00001BB1FEF729FD03B030BD0F4D2846FEF77F
:102B10004FFC0E4C2046FEF74BFC0D4B1D600D4B41
:102B20001C60002300930C4B0C4A10210A20FFF775
:102B300058F8044B18600028E3D00949FFF776FAEB
:102B4000DFE700BFAC4D0020304D0020444D002099
:102B5000884C00208C4C00205C4D0020904C0020C4
:102B60003431000810B588B0FFF7C4FF124B1B6862
:102B7000CBB100240594069407AA06A905A8FEF780
:102B80000BFC059B0293069B0193022300932346B3
:102B9000079A0A490A48FFF70FFC0A4B186010B160
:102BA000012008B010BD4FF0500383F31188BFF32C
:102BB0006F8FBFF34F8FFEE7AC4D00203C31000814
:102BC000C92E0008B04D0020B8B19C4603461848F5
:102BD000006858B300B585B00091019202930529B1
:102BE0001CDCFFF7FBFE022810D000231A466946C2
:102BF0000F480068FFF73FF815E04FF0500383F3EC
:102C00001188BFF36F8FBFF34F8FFEE70023069A43
:102C1000694607480068FFF72EF804E00023624683
:102C20006946FFF7ECF805B05DF804FB002070473B
:102C3000AC4D002070B582B01B4B1B681A6862B3A4
:102C4000DB681E68DC68251D2846FEF7E3FB236A67
:102C50002046984794F8283013F0040FECD0A3696D
:102C600033449E4207D26360246129460E4B1868A4
:102C7000FEF7B7FBE0E7002100910B463246204605
:102C8000FFF7A2FF0028D7D14FF0500383F311883C
:102C9000BFF36F8FBFF34F8FFEE7044A10680249FE
:102CA0000860136002B070BD884C00208C4C00207E
:102CB00038B50546FFF746FC0446074B1B688342C0
:102CC00005D800232B60044B1C60204638BDFFF75D
:102CD000B1FF01232B60F6E7584D002070B582B09C
:102CE00006460D4617490968C968CC68201DFEF7DD
:102CF00091FB94F828C01CF0040F08D12CF0010CB3
:102D000084F828C0236A2046984702B070BDA169A4
:102D100033462A4631442046FFF7C8FE0028F1D04A
:102D2000002100910B4632462046FFF74DFF002858
:102D3000E8D14FF0500383F31188BFF36F8FBFF3D7
:102D40004F8FFEE7884C002070B582B006460C46D7
:102D5000FFF7F0FB01A8FFF7ABFF019B33BB054674
:102D60000CB9B04219D224B1124A12681268DAB909
:102D700001242246711B104B1868FFF76BF9FFF70F
:102D800073FCA8B94FF0E0234FF08052C3F8042D34
:102D9000BFF34F8FBFF36F8F0AE0FFF765FC294643
:102DA0003046FFF79BFF03E01C46E2E7FFF75CFCC1
:102DB00002B070BD8C4C0020AC4D002010B588B026
:102DC00002E0049B002B0FDA002204A93D4B186897
:102DD000FFF77CF8002873D0049B002BF1DA0799E9
:102DE0000698059B9847ECE7069C636913B1201D84
:102DF000FEF710FB03A8FFF75BFF049B092BE3D84A
:102E0000DFE803F00505053037500505303794F845
:102E1000283043F0010384F82830059BA16902465D
:102E200019442046FFF742FE0028CDD0236A2046F1
:102E3000984794F8283013F0040FC5D0A2690021F8
:102E400000910B46059802442046FFF7BDFE00287E
:102E5000BAD14FF0500383F31188BFF36F8FBFF3E4
:102E60004F8FFEE794F8283023F0010384F82830D0
:102E7000AAE794F8283043F0010384F82830059934
:102E8000A16131B10346024601442046FFF70EFE20
:102E90009AE74FF0500383F31188BFF36F8FBFF3AE
:102EA0004F8FFEE794F8283013F0020F04D023F080
:102EB000010384F8283087E72046FEF761FD83E7A9
:102EC00008B010BDAC4D002000B583B001A8FFF7DD
:102ED000DDFD0199FFF738FFFFF770FFF6E700000F
:102EE00070B50D4E0D4D761BB61006D0002455F86A
:102EF000043B01349847A642F9D1094E094D761B8F
:102F000000F0D4F8B61006D0002455F8043B013484
:102F10009847A642F9D170BD5031000850310008E1
:102F20005831000850310008830730B548D0541E8E
:102F3000002A3FD0CAB2034601E0013C3AD303F86D
:102F4000012B9D07F9D1032C2DD9CDB245EA0525DA
:102F50000F2C45EA054536D9A4F1100222F00F0CDA
:102F600003F1200EE6444FEA121C03F1100242E97D
:102F7000045542E9025510327245F8D10CF10102B4
:102F800014F00C0F03EB021204F00F0C13D0ACF191
:102F9000040323F003030433134442F8045B934215
:102FA000FBD10CF003042CB1CAB21C4403F8012B72
:102FB0009C42FBD130BD64461346002CF4D1F9E7A6
:102FC00003461446BFE71A46A446E0E7024B13B196
:102FD000024800F005B8704700000000ED2F00081F
:102FE000002301461A46184600F01AB838B5084BB7
:102FF000084D5B1B9C1007D0043B1D44013C55F859
:1030000004399847002CF9D1BDE8384000F054B895
:103010005C31000858310008704700BF704700BF9E
:103020002DE9F047DFF880A00646DAF80000984660
:103030000F469146FFF7F0FF1A4B1B68D3F8484143
:1030400024B365681F2D26DC5EB96B1C0235DAF8E7
:103050000000636044F82570FFF7E0FF0020BDE842
:10306000F08704EB85010123C1F88890D4F888210A
:10307000AB401A43022EC4F88821C1F80881E4D17C
:10308000D4F88C211343C4F88C31DEE703F5A67421
:10309000C3F84841D5E7DAF80000FFF7BFFF4FF06B
:1030A000FF30DCE74431000838040020F8B500BFE9
:1030B000F8BC08BC9E467047F8B500BFF8BC08BC19
:0430C0009E46704771
:1030C4004C45440064656661756C745461736B00AF
:1030D400C4300008000000000000000000000000F0
:1030E40000000000000200000800000000000000D2
:1030F40000000000C83000080000000000000000CC
:1031040000000000000000000002000018000000A1
:1031140000000000000000000000000000000000AB
:10312400010203040607080949444C450000000055
:10313400546D725100000000546D72205376630088
:043144001000002057
:08314800D8D0FF7F0100000058
:08315000CD2F0008D501000895
:04315800B1010008B9
:10315C000024F4000100000010000000AAAAAAAA92
:10316C0000000000FC02002064030020CC030020BF
:10317C000000000000000000000000000000000043
:10318C000000000000000000000000000000000033
:10319C000000000000000000000000000000000023
:1031AC000000000000000000000000000000000013
:1031BC000000000000000000000000000000000003
:1031CC0000000000000000000000000000000000F3
:1031DC0000000000000000000000000000000000E3
:1031EC0000000000000000000000000000000000D3
:1031FC0000000000000000000000000000000000C3
:10320C0000000000000000000100000000000000B1
:10321C000E33CDAB34126DE6ECDE05000B00000076
:10322C000000000000000000000000000000000092
:10323C000000000000000000000000000000000082
:10324C000000000000000000000000000000000072
:10325C000000000000000000000000000000000062
:0C358C000000000000000000B44D002012
:040000050800088166
:00000001FF
