:020000040800F2
:1000000000000320110D0008650A0008670A0008B7
:10001000690A00086B0A00086D0A00080000000069
:10002000000000000000000000000000512900084E
:100030006F0A000800000000F1290008710A00089A
:10004000610D0008610D0008610D0008610D0008D8
:10005000610D0008610D0008610D0008610D0008C8
:10006000610D0008610D0008610D0008890A000893
:10007000610D0008610D0008610D0008610D0008A8
:10008000610D0008990A0008610D0008610D000863
:10009000610D0008610D0008610D0008610D000888
:1000A000610D0008610D0008610D0008610D000878
:1000B000610D0008610D0008610D0008610D000868
:1000C000610D0008610D0008610D0008610D000858
:1000D000610D0008610D0008610D0008610D000848
:1000E000610D0008610D0008610D0008610D000838
:1000F000610D0008610D0008610D0008610D000828
:10010000610D0008610D0008610D0008610D000817
:10011000610D0008610D0008610D0008610D000807
:10012000610D0008610D0008610D0008610D0008F7
:10013000610D0008610D0008610D0008610D0008E7
:10014000610D0008610D0008610D0008610D0008D7
:10015000610D0008610D0008610D0008610D0008C7
:10016000610D0008610D0008610D0008610D0008B7
:10017000610D0008610D0008610D0008000000001D
:10018000610D0008610D0008610D0008A90A000852
:10019000610D0008610D0008610D0008610D000887
:0C01A0000000000000000000610D0008DD
:1001C00010B5054C237833B9044B13B10448AFF391
:1001D00000800123237010BD54080020000000009F
:1001E000DC5C000808B5034B1BB103490348AFF3BF
:1001F000008008BD0000000058080020DC5C0008FA
:1002000053B94AB9002908BF00281CBF4FF0FF317D
:100210004FF0FF3000F074B9ADF1080C6DE904CE79
:1002200000F006F8DDF804E0DDE9022304B07047D1
:100230002DE9F047089D04468E46002B4DD18A4299
:10024000944669D9B2FA82F252B101FA02F3C2F1CC
:10025000200120FA01F10CFA02FC41EA030E94405D
:100260004FEA1C48210CBEFBF8F61FFA8CF708FB7E
:1002700016E341EA034306FB07F199420AD91CEB56
:10028000030306F1FF3080F01F81994240F21C8188
:10029000023E63445B1AA4B2B3FBF8F008FB1033D0
:1002A00044EA034400FB07F7A7420AD91CEB040405
:1002B00000F1FF3380F00A81A74240F207816444D5
:1002C000023840EA0640E41B00261DB1D44000235A
:1002D000C5E900433146BDE8F0878B4209D9002DBE
:1002E00000F0EF800026C5E9000130463146BDE848
:1002F000F087B3FA83F6002E4AD18B4202D38242B2
:1003000000F2F980841A61EB030301209E46002D60
:10031000E0D0C5E9004EDDE702B9FFDEB2FA82F2B5
:10032000002A40F09280A1EB0C014FEA1C471FFA13
:100330008CFE0126200CB1FBF7F307FB131140EAFA
:1003400001410EFB03F0884208D91CEB010103F1C7
:10035000FF3802D2884200F2CB804346091AA4B289
:10036000B1FBF7F007FB101144EA01440EFB00FE5D
:10037000A64508D91CEB040400F1FF3102D2A645C2
:1003800000F2BB800846A4EB0E0440EA03409CE761
:10039000C6F12007B34022FA07FC4CEA030C20FA0E
:1003A00007F401FA06F31C43F9404FEA1C4900FA2E
:1003B00006F3B1FBF9F8200C1FFA8CFE09FB1811AB
:1003C00040EA014108FB0EF0884202FA06F20BD91E
:1003D0001CEB010108F1FF3A80F08880884240F26E
:1003E0008580A8F102086144091AA4B2B1FBF9F0B2
:1003F00009FB101144EA014100FB0EFE8E4508D9AD
:100400001CEB010100F1FF346CD28E456AD9023831
:10041000614440EA0840A0FB0294A1EB0E01A14216
:10042000C846A64656D353D05DB1B3EB080261EB84
:100430000E0101FA07F722FA06F3F1401F43C5E95E
:10044000007100263146BDE8F087C2F12003D84094
:100450000CFA02FC21FA03F3914001434FEA1C47D6
:100460001FFA8CFEB3FBF7F007FB10360B0C43EAC8
:10047000064300FB0EF69E4204FA02F408D91CEB78
:10048000030300F1FF382FD29E422DD90238634476
:100490009B1B89B2B3FBF7F607FB163341EA034116
:1004A00006FB0EF38B4208D91CEB010106F1FF3865
:1004B00016D28B4214D9023E6144C91A46EA00465C
:1004C00038E72E46284605E70646E3E61846F8E6EE
:1004D0004B45A9D2B9EB020864EB0C0E0138A3E737
:1004E0004646EAE7204694E74046D1E7D0467BE718
:1004F000023B614432E7304609E76444023842E790
:10050000704700BF844641EA000313F003036DD136
:10051000403A41D351F8043B40F8043B51F8043BC6
:1005200040F8043B51F8043B40F8043B51F8043BCD
:1005300040F8043B51F8043B40F8043B51F8043BBD
:1005400040F8043B51F8043B40F8043B51F8043BAD
:1005500040F8043B51F8043B40F8043B51F8043B9D
:1005600040F8043B51F8043B40F8043B51F8043B8D
:1005700040F8043B51F8043B40F8043B51F8043B7D
:1005800040F8043B51F8043B40F8043B51F8043B6D
:1005900040F8043B403ABDD2303211D351F8043B0D
:1005A00040F8043B51F8043B40F8043B51F8043B4D
:1005B00040F8043B51F8043B40F8043B103AEDD2BC
:1005C0000C3205D351F8043B40F8043B043AF9D20D
:1005D000043208D0D2071CBF11F8013B00F8013BE0
:1005E00001D30B8803806046704700BF082A13D3ED
:1005F0008B078DD010F003038AD0C3F10403D21A05
:10060000DB071CBF11F8013B00F8013B80D331F838
:10061000023B20F8023B7BE7043AD9D3013A11F8B8
:10062000013B00F8013BF9D20B7803704B78437023
:100630008B78837060467047000000000000000067
:1006400090F800F06DE9024520F007016FF0000C12
:1006500010F0070491F820F040F049804FF00004BA
:100660006FF00700D1E9002391F840F000F1080095
:1006700082FA4CF2A4FA8CF283FA4CF3A2FA8CF3CD
:100680004BBBD1E9022382FA4CF200F10800A4FA34
:100690008CF283FA4CF3A2FA8CF3E3B9D1E9042388
:1006A00082FA4CF200F10800A4FA8CF283FA4CF3BF
:1006B000A2FA8CF37BB9D1E9062301F1200182FA79
:1006C0004CF200F10800A4FA8CF283FA4CF3A2FA7F
:1006D0008CF3002BC6D0002A04BF04301A4612BA8D
:1006E000B2FA82F2FDE8024500EBD2007047D1E990
:1006F000002304F00305C4F100004FEAC50514F01F
:10070000040F91F840F00CFA05F562EA05021CBFEF
:1007100063EA050362464FF00004A9E70000000009
:1007200001F0FF01102A2BDB10F0070F08D010F8A2
:10073000013B013A8B422DD010F0070F42B3F6D1A6
:10074000F0B441EA012141EA014122F007047FF0BF
:1007500000070023F0E80256083C85EA010586EA16
:10076000010685FA47F5A3FA87F586FA47F6A5FA52
:1007700087F68EB9EED1F0BC01F0FF0102F007025E
:1007800032B110F8013B013A83EA010313B1F8D109
:100790000020704701387047002D06BF35460338EA
:1007A000073815F0010F07D1013015F4807F02BF23
:1007B000013015F4C03F0130F0BC0138704700BF74
:1007C00010B582B0002401940D4B1A6B42F4001254
:1007D0001A631B6B03F400130193019B224605214E
:1007E0000B2000F023FB0B2000F058FB22460521D4
:1007F000112000F01BFB112000F050FB02B010BDD7
:100800000038024008B50F4B1B78DBB2012BFAD140
:100810000D4803F05FFE0D4D2A780D4C0D4E21461C
:10082000304601F0CBFB00212970064B19702A7865
:10083000204603F0AFFD64222146304601F01EFF42
:10084000E1E700BF80090020F45C0008E80900200F
:10085000840900203C09002008B54FF400610448D9
:1008600000F0A8FE4FF4FA7001F0B0FFF5E700BF0A
:100870000010024008B5074A0021074801F048FF70
:10088000064B1860064A0021064801F041FF064B5E
:10089000186008BD345D00080508000874080020D1
:1008A000105D00085908000870080020F0B589B0F4
:1008B0000024039404940594069407940094214B17
:1008C0001A6B42F010021A631A6B02F010020092C7
:1008D000009A01941A6B42F080021A631A6B02F0BC
:1008E00080020192019A02941A6B42F020021A636C
:1008F0001B6B03F020030293029B134F22464FF41D
:100900000061384600F050FE104D22464FF4804101
:10091000284600F049FE4FF4006303930126049635
:100920000594069403A9384600F040FD4FF4804337
:10093000039304960594069403A9284600F036FD17
:1009400009B0F0BD0038024000100240001402401F
:1009500072B6FEE700B595B03022002108A803F07A
:1009600019FD0023039304930593069307930193C2
:10097000204A116C41F080511164126C02F08052D7
:100980000192019A02931C4B1A6842F440421A6089
:100990001B6803F440430293029B012308934FF426
:1009A0008033099302230E934FF480020F920622A4
:1009B0001092A822119212930423139308A800F016
:1009C00003FE98B90F230393022304930023059396
:1009D0004FF4A05306934FF480530793052103A8C7
:1009E00001F040F820B915B05DF804FBFFF7B0FF47
:1009F000FFF7AEFF003802400070004008B500F07D
:100A0000D7F9FFF7A7FFFFF751FFFFF7D9FE00F077
:100A1000DFF801F04FFEFFF72DFF01F05DFEFEE76E
:100A200000B583B0002200920D4B596C41F4804117
:100A30005964596C01F48041009100990192196C3C
:100A400041F0805119641B6C03F080530193019BAA
:100A50000F216FF0010000F0E9F903B05DF804FB2D
:100A600000380240FEE7FEE7FEE7FEE7FEE77047DC
:100A700008B500F0B7F903F0E1F9012800D108BD8D
:100A800001F0E8FFFBE7000008B5024800F0A0FB1A
:100A900008BD00BFDC08002008B5024800F098FB44
:100AA00008BD00BF7C08002000B583B0104B1B6858
:100AB0001A6812F0100F05D10D4801F0F3FB03B0D6
:100AC0005DF804FB002201921A6801925B680193B1
:100AD000019B074801F0C0FA064B1B685B68C3F135
:100AE0006403DBB2044A1370044B01221A70E3E77B
:100AF0003C0900207C080020E80900208009002033
:100B000070B50C461646002506E0AFF3008021467E
:100B100001F8010B01350C46B542F6DB304670BDDD
:100B200070B50C461646002504E014F8010B00F0E1
:100B30003FF80135B542F8DB304670BD4FF0FF306D
:100B400070474FF400534B600020704701207047FE
:100B50000020704710B503460C4A0D490D48006847
:100B600040B10C4800680344521A934206D8094A1F
:100B7000136010BD0748084C0460F2E703F0E0FB87
:100B80000C2303604FF0FF30F3E700BF00000320A9
:100B9000000400007808002088530020034AD2F89F
:100BA000883043F47003C2F88830704700ED00E0ED
:100BB00000B583B001904FF6FF73012201A90348ED
:100BC00001F08FF9019803B05DF804FB3C090020A7
:100BD00008B50F480F4B03604FF4E1334360002327
:100BE0008360C36003610C2242618361C36101F0D1
:100BF00049F950B906480268D36843F01003D3603E
:100C00006422054901F03AFD08BDFFF7A1FEF1E7B6
:100C10003C090020007C00408409002030B589B0E8
:100C20000023039304930593069307930268324BC2
:100C30009A4201D009B030BD04460025019503F564
:100C4000DE331A6C42F000421A641A6C02F0004261
:100C50000192019A02951A6B42F010021A631B6B03
:100C600003F010030293029B0323039302220492D6
:100C700006930823079303A9204800F097FB204818
:100C8000204B03604FF0206343608560C5604FF4E4
:100C90008063036145618561C5610562456200F05D
:100CA0009FF918BB164BA3639C631748174B03604F
:100CB0004FF020634360402383600023C3604FF400
:100CC0008062026143618361C3610362436200F039
:100CD00087F970B90C4B63639C6300220521532094
:100CE00000F0A4F8532000F0D9F8A3E7FFF730FE96
:100CF000D8E7FFF72DFEEDE7007C00400010024032
:100D00007C080020A0600240DC0800201060024047
:100D1000DFF834D00D480E490E4A002302E0D458C3
:100D2000C4500433C4188C42F9D30B4A0B4C002333
:100D300001E013600432A242FBD3FFF72FFF03F060
:100D400005FBFFF75BFE704700000320000000205A
:100D500054080020AC5D000854080020885300208F
:100D6000FEE7000010B504460E4B18784FF47A7376
:100D7000B3FBF0F30C4A1068B0FBF3F000F09CF802
:100D800068B90F2C01D901200AE0002221464FF05A
:100D9000FF3000F04BF8054B1C60002000E0012004
:100DA00010BD00BF0400002000000020080000204B
:100DB00008B50B4B1A6842F400721A601A6842F4C4
:100DC00080621A601A6842F480721A60032000F090
:100DD0001BF80F20FFF7C6FFFFF722FE002008BD1B
:100DE000003C0240034A1168034B1B780B4413601C
:100DF000704700BFEC09002004000020014B186878
:100E0000704700BFEC090020074AD36823F4E06371
:100E10001B041B0C000200F4E060034343F0BF63BB
:100E200043F40033D360704700ED00E000B5194B88
:100E3000DB68C3F30223C3F1070CBCF1040F28BF26
:100E40004FF0040C03F1040EBEF1060F18D9033B5A
:100E50004FF0FF3E0EFA0CFC21EA0C0199400EFA0D
:100E600003F322EA0303194300280BDB0901C9B28B
:100E700000F1604000F5614080F800135DF804FB6C
:100E80000023E5E700F00F000901C9B2024B195435
:100E9000F4E700BF00ED00E014ED00E0002807DB00
:100EA00000F01F02400901239340024A42F820301B
:100EB000704700BF00E100E00138B0F1807F0BD245
:100EC0004FF0E0235861054AF02182F823100020FA
:100ED000986107221A6170470120704700ED00E019
:100EE00030B405682C6824F480242C6004686360A6
:100EF0008368402B05D0036899600368DA6030BCD2
:100F0000704703689A600368D960F8E710B4036813
:100F1000D9B210390C4AA2FB014212090B4CA25C57
:100F2000C2655F2909D923F47F7323F003030433D7
:100F30008365806D5DF8044B704723F47F7323F065
:100F400003038365F5E700BFABAAAAAA705D00089A
:100F5000836A826992B9012B0AD0022B02D00BB1AD
:100F600000207047C36A13F0807F28D100207047AB
:100F7000C36AB3F1C07F24D000207047B2F5005F90
:100F800009D0022B25D9032B25D1C36A13F0807F0A
:100F900023D100207047032B03D8DFE803F01404AB
:100FA000140A00207047C36A13F0807F0DD100201F
:100FB0007047C36AB3F1C07F09D000207047012099
:100FC00070470120704701207047012070470120C1
:100FD00070470120704700207047012070470000D3
:100FE00070B50446FFF70AFF002C5BD005460223CC
:100FF00084F83530002384F834302268136823F0F5
:101000000103136023681A6812F0010F0AD0FFF77A
:10101000F5FE431B052BF5D920236365032084F8D7
:10102000350070BD1A68204810406168A2680A4304
:10103000E1680A4321690A4361690A43A1690A43D5
:10104000E1690A43216A0A430243616A04291ED006
:101050001A602668756925F00705636A1D43042B2D
:1010600007D1A36A1D43E36A1BB12046FFF770FF57
:1010700090B975612046FFF749FFE26D3F23934029
:10108000836000206065012384F83530C9E7E16A98
:10109000206B01430A43DBE740236365012084F8AA
:1010A0003500BEE70120BCE73F8010F038B50446AC
:1010B000856D90F8340001282BD0012084F834008D
:1010C00094F83500C0B2012804D0002384F83430ED
:1010D000022038BD022084F83500002060652046DB
:1010E000FFF7FEFEE26D3F239340AB60226813687A
:1010F00043F016031360236C23B12268136843F096
:10110000080313602268136843F001031360002092
:10111000DFE70220DDE770B50446866DFFF76EFE5F
:1011200094F83530DBB2022B06D0802363650023B0
:1011300084F83430012070BD05462268136823F01E
:10114000160313602268536923F080035361236CF4
:10115000E3B12268136823F0080313602268136860
:1011600023F00103136023681B6813F0010F11D0F3
:10117000FFF744FE431B052BF5D9202363650320AD
:1011800084F83500002384F83430D4E7A36C002BB6
:10119000DFD1E3E7E26D3F239340B360012384F89E
:1011A0003530002084F83400C5E790F83530DBB2E4
:1011B000022B03D08023436501207047052380F86C
:1011C00035300268136823F0010313600020704774
:1011D000F0B583B0044600230193724B1D68724B37
:1011E000A3FB0535AD0A876D3E68C26D08239340A9
:1011F000334210D003681A6812F0040F0BD01A683B
:1012000022F004021A60C26D08239340BB60436D54
:1012100043F001034365E26D01239340334209D05B
:101220002268526912F0800F04D0BB60636D43F0F6
:1012300002036365E26D04239340334209D02268C0
:10124000126812F0020F04D0BB60636D43F0040318
:101250006365E26D10239340334224D02268126804
:1012600012F0080F1FD0BB6023681A6812F4802F99
:101270000DD01B6813F4002F04D1236C9BB12046C2
:10128000984710E0A36C73B1204698470BE01A68AA
:1012900012F4807F03D11A6822F008021A60236CCE
:1012A0000BB120469847E26D20239340334255D03E
:1012B0002268126812F0100F50D0BB6094F83530DD
:1012C000DBB2052B0ED023681A6812F4802F33D0BE
:1012D0001B6813F4002F2AD1636C002B3ED02046EC
:1012E00098473BE02268136823F0160313602268D6
:1012F000536923F080035361236CA3B12268136800
:1013000023F008031360E26D3F239340BB60012389
:1013100084F83530002384F83430236D002B3FD01F
:10132000204698473CE0A36C002BE7D1EBE7E36B4A
:10133000A3B12046984711E01A6812F4807F09D1C2
:101340001A6822F010021A60012384F83530002355
:1013500084F83430E36B0BB120469847636DFBB1E2
:10136000636D13F0010F17D0052384F83530226820
:10137000136823F001031360019B01330193AB4217
:1013800004D823681B6813F0010FF5D1012384F8FA
:101390003530002384F83430E36C0BB12046984795
:1013A00003B0F0BD00000020B5814E1B00230F2BC1
:1013B00000F2F18070B582B061E085685E000324C0
:1013C000B44025EA0405CC68B4402C4384604568E9
:1013D00025EA02054C68C4F300129A402A43426091
:1013E0005BE0DC08083450F8246003F00702950045
:1013F0000F22AA4026EA020E0A69AA4042EA0E0219
:1014000040F824205DE0092200E0002202FA0EF2FA
:101410002A430234604D45F82420604A94686FEAFC
:101420000C0224EA0C054E6816F4801F01D04CEA29
:1014300004055A4CA560E46802EA04054E6816F4F7
:10144000001F01D04CEA0405544CE560646802EAD0
:1014500004054E6816F4003F01D04CEA04054F4CD9
:101460006560246822404D6815F4803F01D04CEA45
:1014700004024A4C226001330F2B00F28A800122C1
:101480009A400C6804EA020C32EA0404F3D14C6876
:1014900004F00304013C012C8FD94A6802F00302D6
:1014A000032A09D0C4685D000322AA4024EA02048A
:1014B0008A68AA402243C2604A6802F00302022AF4
:1014C0008FD004684FEA430E032202FA0EF224EA98
:1014D00002044A6802F0030202FA0EF2224302609A
:1014E0004A6812F4403FC6D0002201922C4A546C44
:1014F00044F480445464526C02F480420192019A94
:101500009C08A51C244A52F8255003F003024FEA18
:10151000820E0F2202FA0EF225EA0205214A9042BB
:101520003FF473AF02F58062904222D002F58062F0
:10153000904220D002F5806290421ED002F5806277
:1015400090421CD002F5806290421AD002F580626F
:10155000904218D002F58062904216D002F5806267
:10156000904214D002F5806290423FF44CAF0A22C0
:101570004CE701224AE7022248E7032246E7042219
:1015800044E7052242E7062240E707223EE7082219
:101590003CE702B070BD704700380140003C01409C
:1015A00000380240000002400AB18161704709041E
:1015B00081617047436901EA030221EA030141EABC
:1015C0000241816170470000002800F0E08170B5A1
:1015D00082B00446036813F0010F3BD09F4B9B6819
:1015E00003F00C03042B2CD09C4B9B6803F00C03E2
:1015F000082B21D06368B3F5803F4FD0B3F5A02FFF
:1016000052D0964B1A6822F480321A601A6822F47B
:1016100080221A606368002B50D0FFF7EFFB05466D
:101620008E4B1B6813F4003F14D1FFF7E7FB401B00
:101630006428F5D90320B1E1884B5B6813F4800F6F
:10164000D8D0864B1B6813F4003F03D06368002B8F
:1016500000F09F81236813F0020F54D07F4B9B68EA
:1016600013F00C0F3ED07D4B9B6803F00C03082B4E
:1016700033D0E368002B68D0794B01221A60FFF762
:10168000BDFB0546754B1B6813F0020F54D1FFF7E5
:10169000B5FB401B0228F5D903207FE16F4A136890
:1016A00043F480331360B5E76C4B1A6842F4802230
:1016B0001A601A6842F480321A60ABE7FFF79EFBAB
:1016C0000546664B1B6813F4003FC3D0FFF796FB3B
:1016D000401B6428F5D9032060E1604B5B6813F47C
:1016E000800FC6D15D4B1B6813F0020F03D0E36877
:1016F000012B40F05081594A136823F0F803216907
:1017000043EAC1031360236813F0080F42D06369F2
:101710006BB3534B0122C3F8802EFFF76FFB0546D6
:101720004E4B5B6F13F0020F34D1FFF767FB401B8A
:101730000228F5D9032031E1484A136823F0F80361
:10174000216943EAC1031360DDE7454B00221A60BB
:10175000FFF754FB0546414B1B6813F0020FD2D034
:10176000FFF74CFB401B0228F5D9032016E13C4B48
:101770000022C3F8802EFFF741FB0546374B5B6F15
:1017800013F0020F06D0FFF739FB401B0228F5D9F2
:10179000032003E1236813F0040F77D02F4B1B6C59
:1017A00013F0805F33D1002301932C4B1A6C42F06D
:1017B00080521A641B6C03F080530193019B012536
:1017C000284B1B6813F4807F23D0A368012B34D0EF
:1017D000052B38D0214B1A6F22F001021A671A6FBD
:1017E00022F004021A67A368002B3DD0FFF706FB26
:1017F00006461A4B1B6F13F0020F46D1FFF7FEFA95
:10180000801B41F288339842F3D90320C6E00025BB
:10181000D6E7144A136843F480731360FFF7EEFAB7
:101820000646104B1B6813F4807FCED1FFF7E6FA13
:10183000801B0228F5D90320B0E0084A136F43F05B
:1018400001031367CFE7054B1A6F42F004021A67D2
:101850001A6F42F001021A67C5E700BF0038024064
:101860000000474200700040FFF7C8FA0646524B9E
:101870001B6F13F0020F08D0FFF7C0FA801B41F274
:1018800088339842F3D9032088E0EDB9A369002B8F
:1018900000F08380484A926802F00C02082A51D076
:1018A000022B17D0454B00221A66FFF7A7FA044611
:1018B000414B1B6813F0007F42D0FFF79FFA001BDB
:1018C0000228F5D9032069E03B4A136C23F08053CA
:1018D0001364DBE7394B00221A66FFF78FFA0546DF
:1018E000354B1B6813F0007F06D0FFF787FA401BCB
:1018F0000228F5D9032051E0E369226A1343626AA2
:1019000043EA8213A26A5208013A43EA0243E26AB6
:1019100043EA0263284A5360284B01221A66FFF704
:101920006DFA0446244B1B6813F0007F06D1FFF7C5
:1019300065FA001B0228F5D903202FE000202DE0D6
:1019400000202BE0012B2BD01B4B5B6803F48001A4
:10195000E269914226D103F03F02216A8A4223D1F3
:10196000616A47F6C0721A40B2EB811F1ED103F4C0
:101970004031A26A5208013AB1EB024F18D103F08C
:101980007063E26AB3EB026F14D1002006E001201D
:101990007047012002E0012000E0002002B070BD8D
:1019A0000120FBE70120F9E70120F7E70120F5E737
:1019B0000120F3E70120F1E7003802400000474230
:1019C00008B5254B9B6803F00C03042B3FD0082B74
:1019D0003FD1214B5A6802F03F025B6813F4800F3D
:1019E00012D01D4B5968C1F388111C480023A1FB7C
:1019F0000001FEF705FC184B5B68C3F3014301339C
:101A00005B00B0FBF3F025E0134B5968C1F3881C71
:101A10004FEA4C11B1EB0C006EEB0E0E4FEA8E1339
:101A200043EA90638101091A63EB0E03DB0043EA8A
:101A30005173C90011EB0C0C43F100039902002310
:101A40004FEA8C2041EA9C51FEF7DAFBD3E70348CA
:101A500000E0034808BD00BF00380240001BB7008B
:101A60000024F400002800F09B8070B50D46044669
:101A70004F4B1B6803F00F038B4208D2CBB24C4A8A
:101A80001370136803F00F038B4240F08B802368C0
:101A900013F0020F17D013F0040F04D0454A9368D7
:101AA00043F4E0539360236813F0080F04D0414AD5
:101AB000936843F4604393603E4A936823F0F003D5
:101AC000A1680B439360236813F0010F32D0636861
:101AD000012B21D09A1E012A25D9364A126812F00C
:101AE000020F61D033498A6822F0030213438B60EE
:101AF000FFF784F906462F4B9B6803F00C036268DE
:101B0000B3EB820F16D0FFF779F9801B41F28833CF
:101B10009842F0D9032042E0264A126812F4003FAE
:101B2000E0D101203BE0234A126812F0007FD9D1B6
:101B3000012034E01E4B1B6803F00F03AB4207D9B2
:101B4000EAB21B4B1A701B6803F00F03AB422DD196
:101B5000236813F0040F06D0164A936823F4E05369
:101B6000E1680B439360236813F0080F07D0114A14
:101B7000936823F46043216943EAC1039360FFF74C
:101B80001FFF0C4B9B68C3F303130B4AD35CD84075
:101B90000A4B18600A4B1868FFF7E4F8002070BD84
:101BA000012070470120FAE70120F8E70120F6E75D
:101BB000003C024000380240585D00080000002050
:101BC00008000020014B1868704700BF000000208B
:101BD00008B5FFF7F7FF044B9B68C3F38223034A62
:101BE000D35CD84008BD00BF00380240685D0008E3
:101BF00008B5FFF7E7FF044B9B68C3F34233034A82
:101C0000D35CD84008BD00BF00380240685D0008C2
:101C1000026802F10C0353E8003F23F0C0030C32CA
:101C200042E800310029F3D1202380F83D3070478D
:101C3000026802F10C0353E8003F23F490730C3266
:101C400042E800310029F3D1026802F1140353E89D
:101C5000003F23F00103143242E800310029F3D1A0
:101C6000036B012B05D0202380F83E300023036353
:101C70007047026802F10C0353E8003F23F01003A1
:101C80000C3242E800310029F3D1ECE790F83D3006
:101C9000DBB2212B01D0022070478368B3F5805F4F
:101CA00017D0036A5A1C02621A7803685A60C38C00
:101CB0009BB2013B9BB2C3844BB90268D36823F04B
:101CC0008003D3600268D36843F04003D3600020F0
:101CD00070470369002BE4D1036A1B880268C3F3D1
:101CE00008035360036A02330362E0E738B5044631
:101CF0000268136923F44053C1680B43136183687E
:101D00000269134342691343C2691A430168CB68ED
:101D100023F4164323F00C031343CB60026853698A
:101D200023F4407381690B4353610368314A934242
:101D300006D002F58062934202D0FFF749FF01E02E
:101D4000FFF756FFE369B3F5004F29D000210318D0
:101D500049411B1841F10001C90041EA5371DB0000
:101D6000181863684FEA83024FEA937341F1000148
:101D7000FEF746FA204DA5FB00325109642303FB10
:101D800011031B013233A5FB03235B0903F0F002AF
:101D900002EB011203F00F03216813448B6038BD7E
:101DA0000023021843EB0301121841F10001C9009E
:101DB00041EA5271D200101841F100016268921894
:101DC0005B41FEF71DFA0C4DA5FB0032510964235F
:101DD00003FB1103DB003233A5FB03235B095A002D
:101DE00002F4F87202EB011203F0070321681344B6
:101DF0008B60D4E7001001401F85EB512DE9F843BB
:101E000005460F4616469946DDF820802C68246862
:101E100037EA04030CBF4FF0010C4FF0000CB4453F
:101E20002DD1B8F1FF3FF1D0B8F1000F05D0FEF78A
:101E3000E5FFA0EB09004045E8D92A6802F10C0350
:101E400053E8003F23F4D0730C3242E800310029FC
:101E5000F3D12A6802F1140353E8003F23F0010391
:101E6000143242E800310029F3D1202385F83D30B7
:101E700085F83E30002385F83C30032000E0002048
:101E8000BDE8F88358B310B5044690F83D300BB365
:101E9000242384F83D302268D36823F40053D360B0
:101EA0002046FFF723FF2268136923F49043136150
:101EB0002268536923F02A0353612268D36843F4EC
:101EC0000053D36000202064202384F83D3084F840
:101ED0003E3010BD80F83C30FEF7A0FED8E7012070
:101EE00070472DE9F04182B01E4690F83D30DBB2DC
:101EF000202B54D104460D469046002953D0002A89
:101F000053D090F83C30012B51D0012380F83C3065
:101F100000230364212380F83D30FEF76FFF07465E
:101F2000A4F82480A4F82680A368B3F5805F05D0C8
:101F30004FF00008002384F83C3012E0236913B10D
:101F40004FF00008F6E7A8460025F3E738F8023B13
:101F50002268C3F308035360E28C92B2013A92B252
:101F6000E284E38C9BB273B100963B460022802151
:101F70002046FFF743FFE0B9002DE7D015F8012B0D
:101F800023685A60E8E700963B460022402120463D
:101F9000FFF734FF78B9202384F83D3000E00220B9
:101FA00002B0BDE8F0810120FAE70120F8E7022045
:101FB000F6E70320F4E70320F2E7000038B590F8D5
:101FC0003D30DBB2202B38D10446002937D0002A1F
:101FD00037D090F83C30012B35D0012380F83C30CD
:101FE00001628284C28400250564212380F83D308B
:101FF000436B1648D863636B15481864636B1548C8
:10200000D864636B1D6520681346021D606BFFF783
:102010004DF823686FF040021A6084F83C50226843
:1020200002F1140353E8003F43F08003143242E806
:1020300000310029F3D1002000E0022038BD01204A
:10204000FCE70120FAE70220F8E700BFDF200008E4
:10205000472100085721000810B5044603685A6953
:1020600090F83D30DBB2212B0AD023685A6902F088
:10207000400294F83E30DBB2222B19D0002010BD74
:1020800002F08002002AF0D0226802F1140353E823
:10209000003F23F08003143242E800310029F3D1DD
:1020A000606B08B1FFF737F82046FFF7B1FDDCE7BA
:1020B000002AE3D0226802F1140353E8003F23F022
:1020C0004003143242E800310029F3D1A06B08B17B
:1020D000FFF721F82046FFF7ABFDCFE7704708B5C3
:1020E0000346806B1B681B6813F4807F1AD10023A2
:1020F000C384026802F1140353E8003F23F0800315
:10210000143242E800310029F3D1026802F10C03D5
:1021100053E8003F43F040030C3242E8003100290D
:10212000F3D108BDFFF7DAFFFBE708B50168CA681D
:1021300022F04002CA60202280F83D20FFF7CEFF47
:10214000002008BD704708B5806BFFF7FBFF08BD96
:1021500070477047704710B5846B23685A6994F8CC
:102160003D30DBB2212B10D023685A6902F04002C7
:1021700094F83E30DBB2222B11D0236C43F01003D5
:1021800023642046FFF7E6FF10BD02F08002002A1C
:10219000EAD00023E3842046FFF73AFDE4E7002A73
:1021A000EBD00023E3852046FFF742FDE5E708B5C5
:1021B000806B0023C385C384FFF7CCFF08BD704745
:1021C00090F83E30DBB2222B67D18368B3F5805F95
:1021D0004DD0826AB3F5805F04D0002B54D10369DF
:1021E000002B51D103685B681370836A01338362EB
:1021F000C38D9BB2013B9BB2C385002B4FD100B571
:1022000083B00268D36823F02003D3600268D368E8
:1022100023F48073D3600268536923F00103536190
:10222000202380F83E30036B012B33D1002303635E
:10223000026802F10C0353E8003F23F010030C3254
:1022400042E800310029F3D103681A6812F0100F38
:1022500006D0002201921A6801925B680193019BEB
:10226000818DFFF7ACFF002003B05DF804FB02692D
:10227000002AAED1826A03685B68C3F30803138047
:10228000836A02338362B3E703685B6803F07F030A
:102290001370AAE7FFF75CFFE5E702207047002014
:1022A0007047000030B583B0044602681368D068F8
:1022B000516913F00F0505D113F0200F02D010F073
:1022C000200F19D12DB111F0010119D110F4907F17
:1022D00016D1216B01297DD013F0800F03D010F0AF
:1022E000800F40F0158113F0400F03D010F0400F25
:1022F00040F0128103B030BD2046FFF761FFF9E7DF
:1023000013F0010F06D010F4807F03D0226C42F04E
:102310000102226413F0040F04D019B1226C42F0C0
:102320000202226413F0020F04D019B1226C42F0B1
:102330000402226413F0080F07D010F0200F00D120
:1023400019B1226C42F008022264226C002AD1D01A
:1023500013F0200F02D010F0200F29D123685B6901
:1023600003F04003226C12F0080F00D163B3204643
:10237000FFF75EFC23685B6913F0400F20D02268F2
:1023800002F1140353E8003F23F04003143242E803
:1023900000310029F3D1A36B73B1614A1A65A06BB8
:1023A000FEF703FF0028A5D0A06B036D9847A1E7B7
:1023B0002046FFF705FFD1E72046FFF7CBFE99E760
:1023C0002046FFF7C7FE95E72046FFF7C3FE002330
:1023D00023648FE713F0100F3FF47EAF10F0100F5F
:1023E0003FF47AAF0023019313680193536801937C
:1023F000019B536913F0400F50D0A26B13685B68C8
:102400009BB2002B3FF476AFA18D99427FF672AF5D
:10241000E385D369B3F5807F37D0226802F10C03DE
:1024200053E8003F23F480730C3242E80031002966
:10243000F3D1226802F1140353E8003F23F00103B3
:10244000143242E800310029F3D1226802F114036A
:1024500053E8003F23F04003143242E800310029E2
:10246000F3D1202384F83E3000232363226802F155
:102470000C0353E8003F23F010030C3242E8003114
:102480000029F3D1A06BFEF746FEA18DE38D9BB230
:10249000C91A89B22046FFF792FE2BE7A18DE38D82
:1024A0009BB2C91A89B2E38D9BB2002B3FF422AFD5
:1024B00000293FF41FAF226802F10C0353E8003FEC
:1024C00023F490730C3242E800300028F3D12268E4
:1024D00002F1140353E8003F23F00103143242E8F1
:1024E00000300028F3D1202384F83E3000232363FA
:1024F000226802F10C0353E8003F23F010030C3272
:1025000042E800300028F3D12046FFF758FEF1E6FC
:102510002046FFF7BBFBEDE62046FFF706FEE9E6A7
:10252000AF21000808B5806B036B012B02D0FFF7C9
:1025300010FE08BD818D4908FFF741FEF9E708B597
:102540000346806B1B681B6813F4807F2BD100232C
:10255000C385026802F10C0353E8003F23F4807343
:102560000C3242E800310029F3D1026802F1140371
:1025700053E8003F23F00103143242E80031002900
:10258000F3D1026802F1140353E8003F23F0400343
:10259000143242E800310029F3D1202380F83E3084
:1025A000036B012B05D0036B012B0FD0FFF7D0FD80
:1025B00008BD026802F10C0353E8003F23F010034A
:1025C0000C3242E800310029F3D1ECE7818DFFF7AE
:1025D000F6FDEDE730B583B004461346816282858F
:1025E00000250564222280F83E20826B2048D063BB
:1025F000A26B20481064A26B1F48D064A26B1565C3
:1026000020680A46011DA06BFEF750FD0195236866
:102610001A6801925B680193019B84F83C5023691E
:102620005BB1226802F10C0353E8003F43F480736E
:102630000C3242E800310029F3D1226802F1140380
:1026400053E8003F43F00103143242E8003100290F
:10265000F3D1226802F1140353E8003F43F0400332
:10266000143242E800310029F3D1002003B030BD1C
:102670003F250008252500085721000808B590F8D7
:102680003E30DBB2202B0DD171B17AB190F83C30E5
:10269000012B0DD0012380F83C3000230363FFF7AA
:1026A00099FF00E0022008BD0120FCE70120FAE7C5
:1026B0000220F8E7EFF305832BB9064B186828B919
:1026C00001221A6070476FF0050070474FF0FF302D
:1026D000704700BF4C0C0020EFF3058373B90A4B21
:1026E0001B68012B0DD110B50024084BDC77064B7D
:1026F00002221A6001F000F9204610BD6FF00500BB
:1027000070474FF0FF3070474C0C002000ED00E0A8
:10271000F0B587B000240594EFF3058474BB68B36B
:1027200022B31568936903B918235C1E372C49D866
:10273000546814F0010F47D156696EB14FEA960CF8
:1027400094682CB1D7685B2F02D9176907B1C6B955
:102750002CB14FF0FF340EE04FF0800CF0E7D4685E
:102760008CB9146994B14FF0FF3404E0154600248D
:1027700018234FF0800C012C0AD0ACB1059807B09B
:10278000F0BD0124F7E74FF0FF34F4E70024F2E74F
:10279000146992680292019400930B46624629469E
:1027A00001F03AF80590E9E705AA019200930B467B
:1027B0001FFA8CF2294601F06AF80128DED00023C6
:1027C0000593DBE70020DAE70020D8E708B5EFF350
:1027D000058333B908B9002008BD01F0F1F90020E4
:1027E000FAE76FF00500F7E7034B0360034B0B605C
:1027F00080231360704700BFF00B0020F009002019
:10280000034B0360034B0B604FF4807313607047FE
:1028100050100020500C002000F1080343604FF0DE
:10282000FF328260C36003610023036070470023AE
:102830000361704743684B609A688A605160996091
:102840000861036801330360704730B40D68B5F167
:10285000FF3F11D000F108031C465B681A68AA42CA
:10286000FAD963684B6099608C60616008610368A5
:102870000133036030BC70470469F2E703694168C3
:1028800082688A60416851605A68824206D000229C
:1028900002611A68013A1A601868704782685A60C3
:1028A000F5E7000082B0002301930D4B1B68B3F1E4
:1028B000FF3F08D04FF0500383F31188BFF36F8FB1
:1028C000BFF34F8FFEE74FF0500383F31188BFF340
:1028D0006F8FBFF34F8F019B002BFCD002B070476E
:1028E0000C00002008480068006880F308884FF05A
:1028F000000080F3148862B661B6BFF34F8FBFF358
:102900006F8F00DF00BF000008ED00E0DFF80C0073
:10291000016841F4700101607047000088ED00E03B
:102920004FF0807340F8043C21F0010140F8081C8E
:10293000054B40F80C3C40F8202C6FF0020340F8A7
:10294000243C4438704700BFA52800080000000060
:10295000074B19680868B0E8F04F80F30988BFF3A7
:102960006F8F4FF0000080F311887047AFF3008045
:10297000144D00204FF0500383F31188BFF36F8F85
:10298000BFF34F8F0B4A136801331360012B00D044
:1029900070474FF0E023D3F8043D13F0FF0FF7D05A
:1029A0004FF0500383F31188BFF36F8FBFF34F8F46
:1029B000FEE700BF0C000020094B1B6843B94FF035
:1029C000500383F31188BFF36F8FBFF34F8FFEE780
:1029D000013B034A13600BB983F31188704700BFB2
:1029E0000C000020000000000000000000000000BB
:1029F000EFF30980BFF36F8F154B1A681EF0100FAD
:102A000008BF20ED108A20E9F04F10602DE9090081
:102A10004FF0500080F31188BFF34F8FBFF36F8FDB
:102A200001F0F4F84FF0000080F3118809BC196838
:102A30000868B0E8F04F1EF0100F08BFB0EC108A25
:102A400080F30988BFF36F8F704700BFAFF300803A
:102A5000144D002008B54FF0500383F31188BFF3E5
:102A60006F8FBFF34F8F00F0A3FF28B14FF0E0232B
:102A70004FF08052C3F8042D002383F3118808BD62
:102A80004FF0E022002313619361054B1B68054959
:102A9000A1FB03139B09013B53610723136170479B
:102AA00000000020D34D62104FF0E023D3F8002D3A
:102AB0003D4B9A421CD04FF0E023D3F8002D3B4B06
:102AC0009A421ED030B583B0394B1A78D2B20192F7
:102AD000FF221A701B78DBB28DF803309DF80330AB
:102AE00003F05003334A1370334B07221A601BE084
:102AF0004FF0500383F31188BFF36F8FBFF34F8FF5
:102B0000FEE74FF0500383F31188BFF36F8FBFF3DD
:102B10004F8FFEE7284A1368013B13609DF803308E
:102B20005B00DBB28DF803309DF8033013F0800FAB
:102B3000F0D1214B1B68032B08D04FF0500383F3D7
:102B40001188BFF36F8FBFF34F8FFEE71B021A4A46
:102B5000136003F4E0631360019BDBB2144A13704B
:102B60004FF0E024D4F8203D43F47003C4F8203D36
:102B7000D4F8203D43F07043C4F8203DFFF780FFB8
:102B800000250E4B1D60FFF7C1FED4F8343F43F023
:102B90004043C4F8343FFFF7A5FE01F037F8FFF7D4
:102BA00081FE284603B030BD71C20F4170C20F4193
:102BB00000E400E0AC100020B01000200C00002069
:102BC000EFF305830F2B0FD9114A9B5CDBB2114A3F
:102BD00012789A4208D94FF0500383F31188BFF35B
:102BE0006F8FBFF34F8FFEE74FF0E023D3F80C3D1C
:102BF00003F4E063084A1268934208D94FF0500387
:102C000083F31188BFF36F8FBFF34F8FFEE77047D9
:102C1000F0E300E0AC100020B0100020124A12F0E7
:102C2000070F1ED0D11D21F00701C1F570531344C9
:102C30000A460E480260002141601344083B23F01D
:102C400007030B48036059601960991A51601360BB
:102C5000084B1960084B1960084B4FF000421A608E
:102C600070474FF47053E4E7B8100020CC4C0020BC
:102C7000B4100020C04C0020BC4C0020B84C0020F8
:102C8000164B1A461B688342FBD3516802EB010CBA
:102C9000844509D0416800EB010C634509D003600D
:102CA000904219D01060704740680144516010464E
:102CB000F0E710B40A4C2468A3420BD05B681944B7
:102CC000416013681B680360904200D010605DF89B
:102CD000044B70470460F7E7704700BFCC4C0020FE
:102CE000B410002070B5054600F054FE364B1B684A
:102CF000A3B1364B1B681D424ED135B1083515F0D6
:102D0000070F02D025F007050835002D46D0304BBF
:102D10001B68AB4251D32F4A146804E0FFF77EFFD3
:102D2000E7E722461C466368AB4202D22368002BC9
:102D3000F7D1254B1B68A34241D01668083623689B
:102D4000136063685B1B102B10D9601910F0070F1C
:102D500008D04FF0500383F31188BFF36F8FBFF398
:102D60004F8FFEE743606560FFF78AFF626818498E
:102D70000B689B1A0B60184909688B4201D21649EF
:102D80000B60124B1B681343636000232360134ADC
:102D900013680133136002E0002600E0002600F013
:102DA00093FE16F0070F0CD04FF0500383F31188F9
:102DB000BFF36F8FBFF34F8FFEE70026EFE70026CC
:102DC000EDE7304670BD00BFB4100020B84C0020C5
:102DD000BC4C0020CC4C0020C04C0020C44C002037
:102DE000002834D038B50446A0F1080550F8043C5A
:102DF000174A1268134208D14FF0500383F3118829
:102E0000BFF36F8FBFF34F8FFEE750F8081C41B13F
:102E10004FF0500383F31188BFF36F8FBFF34F8FD1
:102E2000FEE723EA020340F8043C00F0B3FD54F847
:102E3000041C084A13680B4413602846FFF720FF60
:102E4000054A13680133136000F03EFE38BD704739
:102E5000B84C0020BC4C0020C84C002010B50446E3
:102E6000FFF788FDA26BE36B9A4204D00024FFF7C2
:102E7000A3FD204610BD0124F9E710B50446FFF775
:102E800079FDA36B23B90124FFF796FD204610BD01
:102E90000024F9E770B504461546866B026C5AB9F2
:102EA00003681BB100200136A66370BD806800F086
:102EB000D5FF0023A360F6E76DB94068FDF722FB5C
:102EC000226C636813446360A268934219D3236839
:102ED00063602846E7E7C068FDF714FB226C5142A7
:102EE000E3689B1AE3602268934202D2A3680B4412
:102EF000E360022D01D00020D5E726B1013E00207D
:102F0000D1E72846CFE70020CDE70346026C6AB13F
:102F100010B50846D9681144D9609C68A14201D314
:102F20001968D960D968FDF7EDFA10BD704738B55A
:102F30000546FFF71FFD95F8454064B201E0013CEE
:102F400064B2002C0ADD6B6A43B105F1240000F085
:102F5000DBFE0028F3D000F06BFFF0E7FF2385F8DD
:102F60004530FFF729FDFFF705FD95F8444064B2B1
:102F700001E0013C64B2002C0ADD2B6943B105F18C
:102F8000100000F0C1FE0028F3D000F051FFF0E780
:102F9000FF2385F84430FFF70FFD38BD38B5E0B1A9
:102FA0000D460446FFF7E6FC2368E26B216C01FB4B
:102FB0000230A0600020A0636360013A02FB01338D
:102FC000E360FF2384F8443084F84530FDB9236979
:102FD00063B9FFF7F1FC012038BD4FF0500383F3D4
:102FE0001188BFF36F8FBFF34F8FFEE704F110001E
:102FF00000F08AFE0028ECD04FF0E0234FF0805222
:10300000C3F8042DBFF34F8FBFF36F8FE1E704F1D7
:103010001000FFF701FC04F12400FFF7FDFBD8E7E7
:1030200038B51D46049C0B4649B92460E06323640F
:1030300001212046FFF7B2FF84F84C5038BD2260D2
:10304000F4E740B94FF0500383F31188BFF36F8F5B
:10305000BFF34F8FFEE710B584B01C46844653B1D2
:1030600092B189B94FF0500383F31188BFF36F8F8A
:10307000BFF34F8FFEE74FF0500383F31188BFF388
:103080006F8FBFF34F8FFEE76AB150230393039B0B
:10309000502B13D04FF0500383F31188BFF36F8F81
:1030A000BFF34F8FFEE70029EFD04FF0500383F3BB
:1030B0001188BFF36F8FBFF34F8FFEE7039B012390
:1030C00084F8463000949DF818306046FFF7A8FF5A
:1030D000204604B010BDF0B585B0019288B10F460E
:1030E0001D460446B1B1022D20D1E36B012B1DD04A
:1030F0004FF0500383F31188BFF36F8FBFF34F8FEF
:10310000FEE74FF0500383F31188BFF36F8FBFF3D7
:103110004F8FFEE7036C002BE5D04FF0500383F395
:103120001188BFF36F8FBFF34F8FFEE700F086FE6D
:10313000064658B9019B002B48D04FF0500383F34B
:103140001188BFF36F8FBFF34F8FFEE700263DE07E
:103150002A4639462046FFF79DFE636A7BB948B18F
:103160004FF0E0234FF08052C3F8042DBFF34F8F90
:10317000BFF36F8FFFF720FC012005B0F0BD04F115
:10318000240000F0C1FD0028F4D04FF0E0234FF000
:103190008052C3F8042DBFF34F8FBFF36F8FE9E761
:1031A000FFF70AFC0020E8E702A800F0F3FD012683
:1031B00019E0002384F8443021E0002384F84530EE
:1031C00023E02046FFF7B3FE00F07EFCFFF7D2FBC2
:1031D000A26BE36B9A42BBD3022DB9D0019B002BAB
:1031E000DED0002EE0D0FFF7E7FB00F0D3FBFFF7C7
:1031F000C1FB94F8442052B2B2F1FF3FD9D094F809
:10320000452052B2B2F1FF3FD7D0FFF7D5FB01A95D
:1032100002A800F0CBFDD8B92046FFF71FFE00281A
:10322000CFD0019904F1100000F03AFD2046FFF7DD
:103230007EFE00F049FC0028C8D14FF0E0234FF09B
:103240008052C3F8042DBFF34F8FBFF36F8FBDE7DC
:103250002046FFF76CFE00F037FC00208DE72DE9DB
:10326000F84390B10F4616461C460546B1B1022CF4
:1032700020D1EB6B012B1DD04FF0500383F311884D
:10328000BFF36F8FBFF34F8FFEE74FF0500383F311
:103290001188BFF36F8FBFF34F8FFEE7036C002BD6
:1032A000E5D04FF0500383F31188BFF36F8FBFF366
:1032B0004F8FFEE7FFF784FCEFF311894FF05003C7
:1032C00083F31188BFF36F8FBFF34F8FAA6BEB6B44
:1032D0009A4206D3022C04D0002089F31188BDE85D
:1032E000F88395F845804FFA88F8AB6B224639464B
:1032F0002846FFF7CFFDB8F1FF3F06D008F10103E4
:103300005BB285F845300120E7E76B6A0BB9012015
:10331000E3E705F1240000F0F7FC18B126B1012025
:103320003060DAE70120D8E70120D6E7F0B585B0B4
:10333000019290B10F460446C1B100F07FFD0646F0
:1033400000BB019B002B5ED04FF0500383F311882C
:10335000BFF36F8FBFF34F8FFEE74FF0500383F340
:103360001188BFF36F8FBFF34F8FFEE7036C002B05
:10337000E3D04FF0500383F31188BFF36F8FBFF397
:103380004F8FFEE700263EE039462046FFF7BDFDA1
:10339000013DA563236923B9FFF70EFB012005B0AA
:1033A000F0BD04F1100000F0AFFC0028F4D04FF0A5
:1033B000E0234FF08052C3F8042DBFF34F8FBFF3CB
:1033C0006F8FE9E7FFF7F8FA0020E8E702A800F0BE
:1033D000E1FC012621E0002384F8443029E00023A9
:1033E00084F845302BE02046FFF7A1FD00F06CFB90
:1033F00009E02046FFF79BFD00F066FB2046FFF743
:103400003CFD00283FD1FFF7B5FAA56B002DBBD1DD
:10341000019B002BD6D0002ED8D0FFF7CDFA00F0BC
:10342000B9FAFFF7A7FA94F844305BB2B3F1FF3F63
:10343000D1D094F845305BB2B3F1FF3FCFD0FFF766
:10344000BBFA01A902A800F0B1FC0028D1D12046A6
:10345000FFF713FD0028C6D0019904F1240000F005
:103460001FFC2046FFF763FD00F02EFB0028CAD1A9
:103470004FF0E0234FF08052C3F8042DBFF34F8F7D
:10348000BFF36F8FBFE7002089E700000023072B01
:103490000CD8074A52F833200AB10133F7E7044A3F
:1034A00042F8331002EBC30358607047704700BF07
:1034B000D44C002070B504460D461646FFF75AFA64
:1034C00094F844305BB2B3F1FF3F0DD094F845302F
:1034D0005BB2B3F1FF3F0BD0FFF76EFAA36B5BB1AA
:1034E0002046FFF724FD70BD002384F84430EDE74B
:1034F000002384F84530EFE73246294604F12400E2
:1035000000F0E6FBECE70000084B1B681B6823B9E2
:10351000074B4FF0FF321A607047044B1B68DB68A3
:10352000DB685A68024B1A60704700BF184D0020D4
:10353000C05100202DE9F04780460D4617469946B8
:10354000089EDDF824A00A9C9200A521206B00F0C3
:1035500021FF236B07F18042013A03EB820727F03A
:103560000707B5B34FF0000CBCF10F0F0BD815F8DF
:103570000C2004EB0C0383F8342015F80C3013B145
:103580000CF1010CF0E7002384F84330372E00D90A
:103590003726E662E66400252565201DFFF747F91A
:1035A00004F11800FFF743F92461C6F13806A6615B
:1035B0006462656584F858504A4641463846FFF7CC
:1035C000AFF92060BAF1000F01D0CAF80040BDE8A1
:1035D000F087002384F83430D8E7000038B50024A1
:1035E00007E004EB840293000E481844FFF714F937
:1035F0000134372CF5D90C4D2846FFF70DF90B4C4B
:103600002046FFF709F90A48FFF706F90948FFF7CE
:1036100003F90948FFF700F9084B1D60084B1C60CF
:1036200038BD00BF204D002094510020A85100203B
:10363000CC510020F8510020E4510020184D00200A
:103640001C4D002010B50446FFF794F9224A136878
:1036500001331360214B1B685BB1214B1B686BB9B5
:103660001E4B1B68DA6AE36A9A4207D81B4B1C6040
:1036700004E01A4B1C601368012B29D0194A136807
:10368000013313606364E06A174B1B68984201D9E9
:10369000154B186000EB8000211D144B03EB8000DC
:1036A000FFF7C8F8FFF788F90D4B1B687BB10B4B90
:1036B0001B68DA6AE36A9A4209D24FF0E0234FF0BE
:1036C0008052C3F8042DBFF34F8FBFF36F8F10BD2F
:1036D000FFF784FFD2E700BF80510020144D002087
:1036E000E05100208C51002090510020204D0020FE
:1036F00010B5044690F8593063B1012B11D0022B5C
:103700000ED04FF0500383F31188BFF36F8FBFF3D8
:103710004F8FFEE7006BFFF763FB2046FFF760FB70
:1037200010BDFFF75DFBFBE70F4B1B68D3B110B576
:10373000FFF720F90D4BDB68DC68201DFFF79EF8D2
:103740000B4A1368013B1360074A1368013B13607F
:10375000FFF732F92046FFF7CBFF034B1B68002B26
:10376000E6D110BD704700BF84510020F851002001
:103770008051002008B5FFF7D7FF074B1B68012BCE
:10378000F9D94FF0E0234FF08052C3F8042DBFF376
:103790004F8FBFF36F8FEEE7204D002070B50446CA
:1037A0000D46174B1E68174B18680430FFF766F874
:1037B000B4F1FF3F0DD03444124B1B685C60A6424D
:1037C00010D9114B18680F4B19680431FFF73DF8F9
:1037D00070BD002DEFD00B4B196804310B48FFF77B
:1037E00029F8F5E70A4B1868064B19680431FFF70A
:1037F0002CF8084B1B68A342EAD9064B1C60E7E78C
:103800000C520020144D00201C4D0020E4510020DB
:10381000184D0020C051002030B587B00B9C7CB102
:103820000C9DB5B15C250495049D5C2D1AD04FF01C
:10383000500383F31188BFF36F8FBFF34F8FFEE701
:103840004FF0500383F31188BFF36F8FBFF34F8F97
:10385000FEE74FF0500383F31188BFF36F8FBFF380
:103860004F8FFEE7049D0C9D2C63022485F8594080
:1038700000240394029505AC01940A9C0094FFF780
:1038800059FE0C98FFF7DEFE059807B030BD2DE914
:10389000F04385B00746884614461E469000FFF761
:1038A00021FA00B381465C20FFF71CFA0546B0B14F
:1038B000C0F83090E5B1002385F8593003930295A4
:1038C0000D9B01930C9B009333462246414638469C
:1038D000FFF730FE2846FFF7B5FE012005E0484619
:1038E000FFF77EFAE6E74FF0FF3005B0BDE8F08362
:1038F0004FF0FF30F9E7000010B588B000240594C0
:10390000069407AA06A905A8FEF76EFF059B029379
:10391000069B019300942346079A18491848FFF71D
:103920007BFF184B186040B100F04CFB012806D01B
:10393000B0F1FF3F18D008B010BD0020F6E74FF0FF
:10394000500383F31188BFF36F8FBFF34F8F0E4B7C
:103950004FF0FF321A600D4B01221A600C4B00220F
:103960001A60FFF7A1F8E6E74FF0500383F31188E0
:10397000BFF36F8FBFF34F8FFEE700BF785D000886
:1039800075370008BC510020C0510020E0510020D4
:103990000C520020024A136801331360704700BFC5
:1039A00088510020014B1868704700BF0C5200205E
:1039B000F8B53A4B1B68002B69D1394B1D680135AE
:1039C0001D60C5B9374B1B681B6843B14FF05003EE
:1039D00083F31188BFF36F8FBFF34F8FFEE7314A38
:1039E0001168314B186810601960304A1368013350
:1039F0001360FFF789FD2E4B1B68AB423DD90027B2
:103A00002C4B1B68DB6A03EB83039A002A4B9B5801
:103A1000012B00D90127294B1B68002B3CD0012723
:103A20003AE001271F4B1B681B6843B31D4B1B6803
:103A3000DB68DC6863689D4226D3261D3046FEF7AE
:103A40001DFFA36A1BB104F11800FEF717FFE36A1C
:103A50001B4A1268934201D9194A136003EB83038E
:103A60009A00314614481044FEF7E4FEE26A114B16
:103A70001B68DB6A9A42D4D2D4E70027D2E70C4B0A
:103A80004FF0FF321A60BBE7094A1360B8E70D4AEE
:103A900013680133136000273846F8BD88510020B1
:103AA0000C520020184D00201C4D0020C451002055
:103AB000C0510020144D0020204D00201052002045
:103AC00090510020C851002038B5354B1B6843B9D0
:103AD0004FF0500383F31188BFF36F8FBFF34F8F05
:103AE000FEE7FEF747FF2E4B1A68013A1A601B6883
:103AF000002B4FD12B4B1B680BB900244BE000244B
:103B0000294B1B681BB3284BDB68DC6804F11800E9
:103B1000FEF7B4FE251D2846FEF7B0FEE06A234BF3
:103B20001B68984201D9214B186000EB80002946A0
:103B30001F4B03EB8000FEF77DFEE26A1D4B1B6806
:103B4000DB6A9A42DCD31C4B01221A60D8E70CB125
:103B5000FFF7DAFC194B1C6884B9174B1C68D4B109
:103B60004FF0E0234FF08052C3F8042DBFF34F8F86
:103B7000BFF36F8F01240EE0013C07D0FFF718FF61
:103B80000028F9D00C4B01221A60F5E70B4B0022FC
:103B90001A60E2E70024FEF70FFF204638BD00BFA1
:103BA0008851002080510020CC51002090510020ED
:103BB000204D0020144D002010520020C85100203C
:103BC00010B5A8B10446104B1B6843B14FF0500329
:103BD00083F31188BFF36F8FBFF34F8FFEE7FFF7BB
:103BE000D9FE00212046FFF7D9FDFFF76DFF48B948
:103BF0004FF0E0234FF08052C3F8042DBFF34F8FF6
:103C0000BFF36F8F10BD00BF885100201F4B1B6892
:103C10001BB11F4B01221A6070471D4B00221A6016
:103C20001C4B1B6803EB83018A001B498A585AB955
:103C30000BB1013BF6E74FF0500383F31188BFF35C
:103C40006F8FBFF34F8FFEE703EB830082000A44C0
:103C500050684068506003EB830C4FEA8C020832D6
:103C6000114488420BD003EB830291000A4A0A44B4
:103C70005268D168094A1160064A1360704740686B
:103C800062469100044A0A445060ECE788510020E3
:103C90001052002090510020204D0020144D002093
:103CA00058B110B50C46094A11681831FEF7CDFD20
:103CB00001212046FFF772FD10BD4FF0500383F342
:103CC0001188BFF36F8FBFF34F8FFEE7144D0020B5
:103CD00038B570B10D4614460A4A11681831FEF71E
:103CE000A9FD0CB14FF0FF3521462846FFF756FDE0
:103CF00038BD4FF0500383F31188BFF36F8FBFF3CC
:103D00004F8FFEE7144D002038B5C368DC6824B33C
:103D100004F118052846FEF7B1FD184B1B682BBBB4
:103D2000251D2846FEF7AAFDE06A154B1B68984240
:103D300001D9134B186000EB80002946114B03EBAF
:103D40008000FEF777FDE26A0F4B1B68DB6A9A4240
:103D500011D901200D4B186038BD4FF0500383F38B
:103D60001188BFF36F8FBFF34F8FFEE729460848D6
:103D7000FEF760FDE7E70020EEE700BF8851002076
:103D800090510020204D0020144D002010520020A2
:103D9000CC510020034B1B680360034B1B6843603E
:103DA000704700BFC45100200C520020F8B5C8B1C4
:103DB0000C460546F9B1FEF7DDFD1B4B19686B6833
:103DC000C81A2268B2F1FF3F26D0184E36682F6815
:103DD000B74201D08B4224D9824215D800232360F8
:103DE00001241AE04FF0500383F31188BFF36F8F63
:103DF000BFF34F8FFEE74FF0500383F31188BFF3FB
:103E00006F8FBFF34F8FFEE75B1A13442360284682
:103E1000FFF7C0FF002400E00024FEF7CDFD2046A0
:103E2000F8BD0124F9E700BF0C520020C451002066
:103E3000014B01221A60704710520020054B1B688D
:103E400033B1054B1B680BB100207047022070474F
:103E500001207047E05100208851002000283BD00D
:103E600038B504461E4B1B68834208D04FF0500300
:103E700083F31188BFF36F8FBFF34F8FFEE7036D9E
:103E800043B94FF0500383F31188BFF36F8FBFF333
:103E90004F8FFEE7013B0365C16AC26C91421DD0A2
:103EA0000BB1002038BD051D2846FEF7E7FCE06C8D
:103EB000E062C0F13803A3610A4B1B68984201D944
:103EC000084B186000EB80002946074B03EB80008D
:103ED000FEF7B0FC0120E5E7002070470020E1E795
:103EE000144D002090510020204D0020064B1A68F0
:103EF00013682BB90123036023B9D368186870478E
:103F00000023F8E7002070471452002008B54160F4
:103F1000006191420CD8D21A83699A4201D30120E0
:103F200008BD011D094B1868FEF78FFC0020F7E75C
:103F30009A4201D2994206D2011D054B1868FEF73C
:103F400084FC0020ECE70120EAE700BF18520020C3
:103F50001452002030B583B0FEF70CFD114B1B68E6
:103F60001BB1FEF729FD03B030BD0F4D2846FEF70B
:103F700053FC0E4C2046FEF74FFC0D4B1D600D4BC5
:103F80001C60002300930C4B0C4A10210A20FFF701
:103F900058F8044B18600028E3D00949FFF776FA77
:103FA000DFE700BF38530020BC520020D052002071
:103FB0001452002018520020E85200201C52002009
:103FC000805D000810B588B0FFF7C4FF124B1B6876
:103FD000CBB100240594069407AA06A905A8FEF70C
:103FE0000FFC059B0293069B01930223009323463B
:103FF000079A0A490A48FFF70FFC0A4B186010B1EC
:10400000012008B010BD4FF0500383F31188BFF3B7
:104010006F8FBFF34F8FFEE738530020885D000895
:10402000294300083C530020B8B19C460346184879
:10403000006858B300B585B000910192029305293C
:104040001CDCFFF7FBFE022810D000231A4669464D
:104050000F480068FFF73FF815E04FF0500383F377
:104060001188BFF36F8FBFF34F8FFEE70023069ACF
:10407000694607480068FFF72EF804E0002362460F
:104080006946FFF7ECF805B05DF804FB00207047C7
:104090003853002070B582B01B4B1B681A6862B39E
:1040A000DB681E68DC68251D2846FEF7E7FB236AEF
:1040B0002046984794F8283013F0040FECD0A369F9
:1040C00033449E4207D26360246129460E4B186830
:1040D000FEF7BBFBE0E7002100910B46324620468D
:1040E000FFF7A2FF0028D7D14FF0500383F31188C8
:1040F000BFF36F8FBFF34F8FFEE7044A106802498A
:104100000860136002B070BD1452002018520020E5
:1041100038B50546FFF746FC0446074B1B6883424B
:1041200005D800232B60044B1C60204638BDFFF7E8
:10413000B1FF01232B60F6E7E452002070B582B096
:1041400006460D4617490968C968CC68201DFEF768
:1041500095FB94F828C01CF0040F08D12CF0010C3A
:1041600084F828C0236A2046984702B070BDA16930
:1041700033462A4631442046FFF7C8FE0028F1D0D6
:10418000002100910B4632462046FFF74DFF0028E4
:10419000E8D14FF0500383F31188BFF36F8FBFF363
:1041A0004F8FFEE71452002070B582B006460C46D1
:1041B000FFF7F0FB01A8FFF7ABFF019B33BB054600
:1041C0000CB9B04219D224B1124A12681268DAB995
:1041D00001242246711B104B1868FFF76BF9FFF79B
:1041E00073FCA8B94FF0E0234FF08052C3F8042DC0
:1041F000BFF34F8FBFF36F8F0AE0FFF765FC2946CF
:104200003046FFF79BFF03E01C46E2E7FFF75CFC4C
:1042100002B070BD185200203853002010B588B08D
:1042200002E0049B002B0FDA002204A93D4B186822
:10423000FFF77CF8002873D0049B002BF1DA079974
:104240000698059B9847ECE7069C636913B1201D0F
:10425000FEF714FB03A8FFF75BFF049B092BE3D8D1
:10426000DFE803F00505053037500505303794F8D1
:10427000283043F0010384F82830059BA1690246E9
:1042800019442046FFF742FE0028CDD0236A20467D
:10429000984794F8283013F0040FC5D0A269002184
:1042A00000910B46059802442046FFF7BDFE00280A
:1042B000BAD14FF0500383F31188BFF36F8FBFF370
:1042C0004F8FFEE794F8283023F0010384F828305C
:1042D000AAE794F8283043F0010384F828300599C0
:1042E000A16131B10346024601442046FFF70EFEAC
:1042F0009AE74FF0500383F31188BFF36F8FBFF33A
:104300004F8FFEE794F8283013F0020F04D023F00B
:10431000010384F8283087E72046FEF761FD83E734
:1043200008B010BD3853002000B583B001A8FFF7D6
:10433000DDFD0199FFF738FFFFF770FFF6E700009A
:10434000014B1868704700BF1000002070B50D4E7B
:104350000D4D761BB61006D0002455F8043B0134F1
:104360009847A642F9D1094E094D761B01F0B6FCDB
:10437000B61006D0002455F8043B01349847A642F5
:10438000F9D170BDA05D0008A05D0008A85D00081F
:10439000A05D0008830730B548D0541E002A3FD0E6
:1043A000CAB2034601E0013C3AD303F8012B9D0752
:1043B000F9D1032C2DD9CDB245EA05250F2C45EABC
:1043C000054536D9A4F1100222F00F0C03F1200E9E
:1043D000E6444FEA121C03F1100242E9045542E997
:1043E000025510327245F8D10CF1010214F00C0F95
:1043F00003EB021204F00F0C13D0ACF1040323F012
:1044000003030433134442F8045B9342FBD10CF0E2
:1044100003042CB1CAB21C4403F8012B9C42FBD10B
:1044200030BD64461346002CF4D1F9E70346144628
:10443000BFE71A46A446E0E770B5054688B00846CF
:104440000C46FCF7FDF8224EAA6B0590012143189B
:10445000CDE9066104A8022104940393AC6801909D
:10446000029122B3636E13F0010FB4F90C309AB2CB
:1044700001D1980525D5910406D4626E43F400530A
:1044800022F40052A3816266284601AA214600F068
:10449000E7F8636E002814BF4FF0FF350A25DA07EE
:1044A00002D4A3899B0506D5284608B070BD2846CE
:1044B00000F02EF8D6E7A06D00F074FA284608B098
:1044C00070BDA06D00F06CFAB4F90C309AB2D2E76E
:1044D000945D0008024B01461868FFF7ADBF00BFAE
:1044E00010000020024B13B1024800F005B87047DD
:1044F0000000000035460008002301461A46184611
:1045000001F04EB8014900F023BA00BF515600082F
:104510002DE9F0478246394800F042FADAF838408F
:10452000002C66D1DAF80450354ACAF83C2003233F
:10453000CAE9B843DFF8DC90DFF8DC80314F324E57
:1045400004230AF53B72CAF8E8222146C5E9024372
:10455000C5E90044C5E904446C660822AC6105F174
:104560005C00FFF717FFC5E90759C5E90987EE6247
:1045700005F1580000F010FADAF80850234BEB6010
:104580002146C5E90044C5E904446C66AC60AC61F1
:10459000082205F15C00FFF7FDFEC5E90759C5E9F2
:1045A0000987EE6205F1580000F0F6F9DAF80C50D0
:1045B000174BEB602146C5E90044C5E904446C662D
:1045C000AC60AC61082205F15C00FFF7E3FE05F189
:1045D0005800C5E90759C5E90A76C5F8248000F0F6
:1045E000DBF90123CAF838300448BDE8F04700F091
:1045F000D9B9BDE8F047014800F0D4B94C530020C8
:104600000545000879540008995400080900010084
:10461000120002001554000839540008014800F047
:10462000BFB900BF48530020014800F0BBB900BF2C
:104630004853002038B5084B084D5B1B9C1007D031
:10464000043B1D44013C55F804399847002CF9D12E
:10465000BDE8384001F048BBAC5D0008A85D00082B
:104660009368002B00F085802DE9F04FB1F90C30F4
:104670000C461907804683B0174698B225D52369A2
:104680001BB310F002033D682DD04FF0000ADFF895
:10469000BCB25646B9465E453346524628BF5B46D5
:1046A0004046002E52D0E169676AB847002856DDBF
:1046B000D9F808301B1A8244361AC9F80830002B82
:1046C000E9D1002003B0BDE8F08F2146404600F05C
:1046D000FDFE002840F03681B4F90C303D6898B2F8
:1046E00010F00203D1D110F0010944D14E460097D9
:1046F00046B38205D4F808B040F18380B3455A46EA
:1047000000F2B28010F4906F40F0BF8020680192F8
:10471000494600F0F9FBA368019AA3EB0B0123685B
:10472000A1601344B24623600026009B9868A0EB6A
:104730000A00D14498600028C3D0B4F90C0080B2BC
:10474000002ED6D1D5E900960835D1E7D5E900A6E7
:104750000835A0E72146404601F078F880B3B4F967
:104760000C3043F040034FF0FF30A38103B0BDE8AD
:10477000F08F002070471E46AA46994618461D46EF
:10478000009756B388B34A46D4E904132068B2426E
:1047900028BF3246884205D9A16803EB010B5A4570
:1047A00000F3A680934263DCE169676A2A464046CB
:1047B000B847B0F1000BD2DDB9EB0B09CAD001202C
:1047C000009A9368A3EB0B035D44A6EB0B06936082
:1047D000002B3FF476AF002ED4D10AF1080353E941
:1047E00002569A460833002EF9D032460A2128464E
:1047F000FBF796FF002800F09C800130A0EB050934
:10480000C1E720682369984216D86369B34213D878
:104810006FF00042B24228BF3246E16992FBF3F2E8
:10482000676A02FB03F340464A46B847B0F1000A04
:1048300095DDA6EB0A0678E7B345DA4628BFB2460F
:104840005246494600F060FBA3682268A3EB0A03C6
:104850005244A3602260002BEBD12146404600F079
:10486000F5FF0028E5D07AE72068B34632464EE7E8
:104870002946019200F048FB019AA3689B1AA360A5
:10488000236813442360934696E723682169A3EBCA
:10489000010B636903EB430A0AEBDA7A0BF10103BC
:1048A0004FEA6A0A33445345524684BF9A465246F9
:1048B00043052CD51146404600F076F800283BD041
:1048C0005A4621690190FBF71DFEA289019B22F443
:1048D000906242F08002A28103EB0B002361AAEBFD
:1048E0000B03C4F814A0A3602060B34632460EE761
:1048F00029465A4600F008FB23685B4423602146A2
:10490000404600F0A3FF00283FF456AF27E740469B
:1049100000F082FB03460028DED12169404601F009
:1049200013F8B4F90C300C2223F08003C8F80020EF
:1049300017E7721C914627E70C22B4F90C30C8F82F
:1049400000200EE74FF0FF30BCE600BF00FCFF7F09
:104950002DE9F8430746884600F538764FF0000900
:10496000D6E90154013D11D4A389012B05F1FF358E
:1049700008D9B4F90E300133214603D03846C04778
:1049800049EA00096B1C04F16804EDD13668002E79
:10499000E6D14846BDE8F883704700BF704700BFC6
:1049A000704700BF704700BF2DE9F04F01F10B06C3
:1049B000162E83B0044624D8102900F2BA8000F0E5
:1049C0001FFB102618220220B54F3A44A2F108011D
:1049D00053688B4200F0BA805A68D96822F003020B
:1049E0001A449D68E9608D60516841F001012046DC
:1049F000516003F1080500F009FB284603B0BDE84B
:104A0000F08F36F0070600F19480B14200F29180F9
:104A100000F0F6FAB6F5FC7FC0F09A81730A00F058
:104A20008F80042B00F26F81B30903F1390003F189
:104A3000380CC3009A4F3B44A3F108055B689D42C4
:104A400006D10CE0002980F22781DB689D4206D068
:104A50005A6822F00302911B0F29F3DD60463D697D
:104A6000DFF850C265457CD06A6822F00302931BD0
:104A70000F2B00F37B81002BC7E904CC80F26C8103
:104A8000B2F5007F80F01A81D308796801334FEACC
:104A9000521E012202FA0EF20A4357F833E0C5F81B
:104AA00008E007EBC3010839E9607A6047F8335042
:104AB000CEF80C50831001219940914257D81142F1
:104AC00006D120F003004900114200F10400FAD0A1
:104AD00007EBC0094D468646D5F80C80454508D100
:104AE0001DE1002B80F22481D8F80C80454500F0B0
:104AF0001681D8F8042022F00302931B0F2BF0DD5F
:104B00002046D8E9025408EB060146F00106C8F831
:104B10000460EC60A56043F00104C7E90411C1E939
:104B200002CC4C6048F8023000F070FA08F1080539
:104B300002E00C2323600025284603B0BDE8F08F77
:104B40004FF4007340204FF03F0C73E7D3689A4254
:104B500008BF02307FF440AF3D69DFF858C16545BA
:104B600082D17A688310012199409142A7D9BD680A
:104B70006B6823F003094E4503D8A9EB06030F2BFE
:104B80007ADCDFF834B1474BDBF800201B680132D8
:104B9000334405EB090A00F0338103F580530F33EA
:104BA00023F47F6828F00F084146204600F020FCDF
:104BB000411C024600F0F380824500F2EE803A4B41
:104BC000196841441960084600F04E81DBF8001076
:104BD000019301311BBFA2EB0A0A5044CBF800201D
:104BE000186012F0070B00F01781CBF108010A449E
:104BF000CBF5805190440831A1EB0801C1F30B0AB9
:104C000051462046009200F0F3FB421CDDE90023F0
:104C100000F04F81801A00EB0A081968BA6048F06A
:104C200001005144BD425060196000F02981B9F182
:104C30000F0F40F227816868A9F10C0C2CF0070CCB
:104C400000F0010040EA0C0068604FF0050E05EB33
:104C50000C00BCF10F0FC0E901EE00F23281506888
:104C60001546124B1A688A4238BF1960104B1A68F1
:104C70008A4238BF196094E0AA1943F0010346F054
:104C800001066E602046BA60536000F0BFF9083537
:104C9000284603B0BDE8F08FD9681A44A1E600BFEA
:104CA00044040020805300205053002078530020FB
:104CB0007C5300204C0400204C080020B2F5206FEB
:104CC0004FEA522363D3142B00F2B78003F15C0147
:104CD000C9005B3307EB010E7958AEF1080E8E4523
:104CE00000F091804B6823F00303934202D9896856
:104CF0008E45F7D1D1F80CE07A68C5E9021ECEF8EE
:104D00000850CD60D6E6142B59D9542B00F29D8063
:104D1000330B03F16F0003F16E0CC3008AE60EF152
:104D2000010E1EF0030F05F108057FF4D5AE51E02A
:104D3000424445465368D8F80C1043F001035360D1
:104D400055F8083F2046D9608B6000F05FF9F3E624
:104D5000F00806F1080237E62A442046536843F07B
:104D600001035360083500F051F9E5E6A919204622
:104D700046F0010643F001046E60C7E90411C1E981
:104D800002CC4C60AB5000F041F90835D4E69309F1
:104D900003F13901C90038339CE7BD425FD0BD68DB
:104DA000686820F003084645A8EB060302D80F2BDD
:104DB0003FF762AF204600F029F90025BCE603F179
:104DC0005C0003F15B0CC30034E659F808394B452D
:104DD00040F0968010F0030F00F1FF30F5D17B68B2
:104DE00023EA01037B60490099423FF6C0AE19B93E
:104DF000BDE649000EF1040E1942FAD0704667E68E
:104E000003F11008D0E69A104FF001087B6808FA09
:104E100002F21A437A6070E702EB08014942C1F3DB
:104E20000B0A51462046009200F0E2FA431CDDE9ED
:104E300000237FF4EFAEDA46EFE6542B25D8130BB0
:104E400003F16F01C9006E3344E7B3F5AA7F25D89B
:104E5000F30B03F1780003F1770CC300EAE5294B6B
:104E6000186840441860B1E6CAF30B0CBCF1000F9F
:104E70007FF4ACAEBD68C84448F001006860F0E65D
:104E80001546EEE60123536094E7B3F5AA7F23D8D5
:104E9000D30B03F17801C90077331BE740F254527A
:104EA000934223D8B30C03F17D0003F17C0CC300C3
:104EB000C0E5ABF1080BD844A8EB02084FF0000A9C
:104EC000ABE605F108012046009300F03DFDBD680A
:104ED000009B68681968C4E640F254518B420BD8B5
:104EE000930C03F17D01C9007C33F3E64FF47E732C
:104EF0007F204FF07E0C9DE54FF47E717E23E9E626
:104F00007B6870E75053002088420DD98B1883428C
:104F10000AD900EB020CBAB1624613F801CD02F8CF
:104F200001CD9942F9D170470F2A0ED8034602F1FC
:104F3000FF3C4AB10CF1010C013B8C4411F8012BF0
:104F400003F8012F6145F9D1704740EA01039B073F
:104F500050D1A2F1100370B501F1200C23F00F0520
:104F600001F1100E00F11004AC441B095EF8105C56
:104F700044F8105C5EF80C5C44F80C5C5EF8085C6D
:104F800044F8085C5EF8045C44F8045C0EF1100E12
:104F9000E64504F11004E9D1013312F00C0F01EBE6
:104FA000031102F00F0400EB031327D0043C24F09C
:104FB00003064FEA940C1E441C1F8E465EF8045BE9
:104FC00044F8045FB442F9D10CF1010402F0030289
:104FD00003EB840301EB840102F1FF3C4AB10CF1C5
:104FE000010C013B8C4411F8012B03F8012F6145A2
:104FF000F9D170BD02F1FF3C03469BE72246EBE787
:105000000148FFF7CDBC00BF445300200148FFF723
:10501000C9BC00BF445300202DE9F84F17460029B2
:1050200000F0988007F10B0580460C46FFF7E8FF7B
:10503000162D5DD810252A46AF425ED854F8041CC0
:1050400021F003069642A4F1080962DABC4BD3F8BA
:1050500008C009EB0600844500F09780D0F804C032
:105060002CF0010303445B68DB0768D42CF0030CCD
:1050700006EB0C03934247DACB0710D454F8083CF4
:10508000A9EB030ADAF8043023F003018C44B4449A
:10509000944580F211817318934280F2E88039467A
:1050A0004046FFF781FC0746E0B154F8043C23F08A
:1050B00001034B44A0F10802934200F0D280321F5A
:1050C000242A00F2F580132A00F2AC80034622461F
:1050D000116819605168596092689A60214640468B
:1050E00000F032FC4046FFF791FF3846BDE8F88FEC
:1050F00025F00705002D2A469EDA0C23C8F800305B
:1051000000273846BDE8F88F1E46D0E90223D36059
:105110009A60731B0F2B22D8D9F8043003F00103D7
:1051200033434E44C9F80430736843F0010373609D
:1051300040462746FFF76AFF3846BDE8F88FC907A3
:10514000ADD454F8083CA9EB030ADAF8041021F0B6
:105150000301A0E7BDE8F84F1146FFF725BCD9F8D9
:10516000041001F001012943C9F8041009EB0501FD
:105170004E4443F001034B60736843F00103083170
:105180007360404600F0E0FBD2E7DCF8040020F05A
:10519000030B06EB0B0C05F1100084454DDAC90733
:1051A0003FF57DAF54F8081CA9EB010ADAF80410AA
:1051B00021F003018B44B34458453FF76CAF574689
:1051C000DAF80C1057F8080F321F242AC1608860E3
:1051D00000F2DB80132A40F2D6802168CAF808105A
:1051E0006168CAF80C101B2A00F2DF8008340AF14B
:1051F00010022168116061685160A16891600AEB3A
:105200000501ABEB050242F0010299604A60DAF851
:10521000043003F001031D434046CAF80450FFF771
:10522000F5FE6EE723680360636843601B2A68D855
:1052300004F1080200F108034AE709EB05029A604D
:10524000ACEB050343F00103536054F8043C03F056
:1052500001031D43404644F8045CFFF7D7FE274690
:105260004FE750F8043C23F003031E4451E7574630
:10527000DAF80C1057F8080F321F242AC160886032
:105280004CD8132A48D92168CAF808106168CAF8AE
:105290000C101B2A56D808340AF110021E46236847
:1052A000136063685360A3689360D1463C4630E75F
:1052B0002146FFF729FE11E7D0E902135746CB60DC
:1052C000996057F8081FDAF80C30CB60321F242A97
:1052D00099602DD8132A29D92368CAF80830636841
:1052E000CAF80C301B2A42D808340AF1100322688D
:1052F0001A6062685A60A2689A606646D1463C4667
:1053000007E7A3688360E368C360242A26D004F11A
:10531000100200F11003DBE63A46BFE721463846AB
:105320001E46D146FFF7F0FD3C46F2E63B46DEE77F
:10533000214638466646D146FFF7E6FD3C46E8E69C
:1053400044040020A168CAF81010E168CAF81410DB
:10535000242A20D010340AF118029FE72369036140
:105360006169416104F1180200F11803B0E6A36815
:10537000CAF81030E368CAF81430242A21D0103457
:105380000AF11803B3E73A4633E721463846FFF7F8
:10539000BBFD164B33E72269CAF818206269CAF8C8
:1053A0001C2018340AF1200278E7A168CAF810100E
:1053B000E168CAF81410242A0DD010340AF118023A
:1053C00017E72369CAF818306369CAF81C30183423
:1053D0000AF120038BE72269CAF818206269CAF82B
:1053E0001C2018340AF1200203E700BF4404002007
:1053F00038B5074D0022044608462A60FBF7AAFB91
:10540000431C00D038BD2B68002BFBD0236038BD77
:105410008453002010B50C46B1F90E1000F020FCAA
:10542000002803DB236D0344236510BDA38923F407
:105430008053A38110BD00BF2DE9F0410C46B1F9A6
:105440000C101F46CB05054616460BD421F480519F
:10545000A1813B46B4F90E1032462846BDE8F04122
:1054600000F01EB8B4F90E100223002200F072FB07
:10547000B4F90C10EAE700BF10B50C46B1F90E10F4
:1054800000F068FBA389421C0EBF23F4805343F451
:1054900080532065A38110BDB1F90E1000F0C6B88D
:1054A00038B50C46084D8446114620461A4600235E
:1054B0002B606446FBF734FB431C00D038BD2B68DF
:1054C000002BFBD0236038BD8453002038B5334B0C
:1054D0001B6805460C460BB19A6B12B3B4F90C303D
:1054E00018079AB225D5216900292DD012F00100A4
:1054F00007D00020A06060694042A06139B100205F
:1055000038BD950758BF6069A0600029F7D1120621
:1055100058BF0846F4D543F04003A3814FF0FF3055
:1055200038BD1846FEF7F4FFB4F90C3018079AB2EC
:10553000D9D4D1062AD5520714D4216943F00803DF
:10554000A3819AB20029D1D102F42070B0F5007F76
:10555000CCD02146284600F013FBB4F90C30216969
:105560009AB2C3E7216B51B104F14002914204D0D9
:10557000284600F0E9F9B4F90C30002222632169D1
:105580000022C4E9001223F02403D7E7092243F0E4
:1055900040032A604FF0FF30A38138BD1000002087
:1055A0002DE9F047DFF880A00646DAF800009846BB
:1055B0000F469146FFF7F4F91A4B1B68D3F84841A0
:1055C00024B365681F2D26DC5EB96B1C0235DAF842
:1055D0000000636044F82570FFF7E4F90020BDE89F
:1055E000F08704EB85010123C1F88890D4F8882165
:1055F000AB401A43022EC4F88821C1F80881E4D1D7
:10560000D4F88C211343C4F88C31DEE703F5A6747B
:10561000C3F84841D5E7DAF80000FFF7C3F94FF0C7
:10562000FF30DCE7905D00084004002038B5074DEE
:105630000022044608462A60FBF780FA431C00D08B
:1056400038BD2B68002BFBD0236038BD845300206D
:1056500070B500294BD006460C4610B1836B002B69
:1056600048D0636ED80734D5B4F90C30002B3ED047
:105670002146304600F052F8E36A054633B1E1694D
:10568000304698470028B8BF4FF0FF35A3891A0667
:105690003BD4216B41B104F14003994202D0304622
:1056A00000F052F900232363616C21B1304600F011
:1056B0004BF900236364FEF7B1FF636E0022DB0742
:1056C000A28127D5A06DFFF769F9FEF7ADFF284647
:1056D00070BDA3899905CBD4A06DFFF761F9B4F92A
:1056E0000C30002BC4D1656E15F0010508D00025E3
:1056F000284670BDFEF70CFF636ED807B4D4E8E708
:10570000A06DFFF74FF9284670BD2169304600F0C3
:105710001BF9BEE7A06DFFF745F9D3E7B1F90C20FF
:105720002DE9F0410C461107804647D4636842F4E6
:105730000062002BA2815EDDA56A002D58D00023F7
:10574000D8F80060C8F8003093B212F4805256D1F5
:105750000123E1694046A847431C67D0A389A56A95
:105760005F0705D56368C01A236B0BB1E36BC01AE2
:10577000E169024600234046A847411C41D1D8F8C0
:105780000030002B3DD01D2B01D0162B56D1A38904
:105790002269226023F4006300216160A381216BF0
:1057A000C8F8006021B304F14003994202D040469A
:1057B00000F0CAF800202063BDE8F0812669BEB180
:1057C00093B2256826609A070CBF63690023AD1B5E
:1057D000A3600BE02B463246E169676A4046B84752
:1057E000B0F1000CA5EB0C05664417DD002DF1DCD3
:1057F0000020BDE8F081E36B002B9DDCF8E7206D15
:10580000AEE7B4F90C302269226023F40063A3816F
:105810000022DB046260C2D52065C0E7A38943F0A3
:1058200040034FF0FF30A381BDE8F081D8F800308D
:10583000002B93D01D2B06D0162B04D0A38943F048
:105840004003A381D5E7C8F80060D1E738B50C461E
:10585000054608B1836BA3B1B4F90C00B8B1636E0F
:10586000DB0701D4810515D528462146FFF756FFF1
:10587000636EDA07054602D4A3899B050ED5284638
:1058800038BDFEF745FEB4F90C000028E7D1054607
:10589000284638BDA06DFFF783F8E5E7A06DFFF758
:1058A00081F8284638BD00BFF8B5244F0C4606469F
:1058B000FFF7A6FBBA685568C4F57E630F3325F081
:1058C00003052B4423F47F6323F00F03A3F58054D7
:1058D000B4F5805F07DB00213046FFF789FDBB6828
:1058E0002B44984204D03046FFF790FB0020F8BDCF
:1058F00061423046FFF77CFD01300DD0104ABB6895
:105900002D1B45F001055D60136830461B1B1360BD
:10591000FFF77CFB0120F8BD00213046FFF768FD52
:10592000BA68831A0F2BDEDD43F001035360054B89
:1059300003491B68C01A0860D5E700BF4404002073
:10594000505300204C080020002961D0F8B50C46C7
:105950000646FFF755FB54F8042C7B4FA4F10805CD
:1059600022F0010105EB010CB868DCF80430604559
:1059700023F0030300F08B80D207CCF8043032D43C
:1059800054F8082CAD1A1144AA6807F108008242A5
:105990006AD00CEB0304D4F804E0EC68D4601EF089
:1059A000010FA26000F0978041F001036B60CCF81A
:1059B0000010B1F5007F35D27A68CB084809012183
:1059C000013381401143796007EBC30257F833106C
:1059D000083AC5E9021247F83350CD603046BDE8B9
:1059E000F840FFF713BB0CEB03025268D00710D44A
:1059F000194407F10800DCF80830834273D0DCF862
:105A00000C20DA60936041F001036B606950D0E7CD
:105A1000704741F00103B1F5007F44F8043CCCF835
:105A20000010C9D3B1F5206F4FEA512348D28B093A
:105A300003F1390003F13802C300F818FB580838A5
:105A4000984259D05A6822F003028A4202D99B68D0
:105A50009842F7D1D868C5E902308560DD603046EC
:105A6000BDE8F840FFF7D2BA0CEB03025268D20748
:105A700063D40B44DCE90212CA60916043F0010276
:105A80006A603046EB50BDE8F840FFF7BFBA0B4400
:105A9000D10707D454F8082CAD1A1344D5E90212E3
:105AA000CA60916043F001026A60284ABD601268D2
:105AB0009A4293D8264B30461968FFF7F5FE8DE7DA
:105AC000142B0AD9542B1FD80B0B03F16F0003F1D1
:105AD0006E02C300B1E719448DE703F15C0003F1E6
:105AE0005B02C300A9E741F00103C7E90455C5E91A
