:020000040800F2
:1000000000000320E11900080D1700080F17000871
:10001000111700081317000815170008000000004A
:10002000000000000000000000000000213F000868
:100030001717000800000000C13F0008893B0008B6
:10004000311A0008311A0008311A0008311A000864
:10005000311A0008311A0008311A0008311A000854
:10006000311A0008311A0008311A0008191700085F
:10007000311A0008311A0008311A0008311A000834
:10008000311A000829170008311A0008311A00082F
:1000900039170008311A0008311A0008311A00080F
:1000A000311A000849170008311A0008311A0008EF
:1000B000311A0008311A0008311A0008311A0008F4
:1000C000311A0008311A0008311A0008311A0008E4
:1000D000311A0008311A0008311A0008311A0008D4
:1000E000311A0008311A0008311A0008311A0008C4
:1000F000311A0008311A0008311A0008311A0008B4
:10010000311A0008311A0008311A0008311A0008A3
:10011000311A0008311A0008311A0008311A000893
:10012000311A0008311A0008311A0008311A000883
:10013000311A0008311A0008311A0008311A000873
:10014000311A0008311A0008311A0008311A000863
:10015000311A0008311A0008311A0008311A000853
:10016000311A0008311A0008311A0008311A000843
:10017000311A0008311A0008311A00080000000086
:10018000311A0008311A0008311A000859170008FE
:10019000311A0008311A0008311A0008311A000813
:0C01A0000000000000000000311A000800
:1001C00010B5054C237833B9044B13B10448AFF391
:1001D00000800123237010BDC4090020000000002E
:1001E00024D7000808B5034B1BB103490348AFF3FC
:1001F000008008BD00000000C809002024D70008C6
:1002000081F0004102E000BF83F0004330B54FEAC7
:1002100041044FEA430594EA050F08BF90EA020F34
:100220001FBF54EA000C55EA020C7FEA645C7FEAC7
:10023000655C00F0E2804FEA5454D4EB5555B8BFEA
:100240006D420CDD2C4480EA020281EA030382EA5B
:10025000000083EA010180EA020281EA0303362DED
:1002600088BF30BD11F0004F4FEA01314FF4801CC0
:100270004CEA113102D0404261EB410113F0004FD2
:100280004FEA03334CEA133302D0524263EB430389
:1002900094EA050F00F0A780A4F10104D5F1200E27
:1002A0000DDB02FA0EFC22FA05F2801841F1000182
:1002B00003FA0EF2801843FA05F359410EE0A5F156
:1002C00020050EF1200E012A03FA0EFC28BF4CF087
:1002D000020C43FA05F3C01851EBE37101F000453D
:1002E00007D54FF0000EDCF1000C7EEB00006EEB4A
:1002F0000101B1F5801F1BD3B1F5001F0CD34908D4
:100300005FEA30004FEA3C0C04F101044FEA44522A
:1003100012F5800F80F09A80BCF1004F08BF5FEAB1
:10032000500C50F1000041EB045141EA050130BD91
:100330005FEA4C0C404141EB0101013C28BFB1F5A3
:10034000801FE9D291F0000F04BF01460020B1FAEE
:1003500081F308BF2033A3F10B03B3F120020CDAC1
:100360000C3208DD02F1140CC2F10C0201FA0CF09F
:1003700021FA02F10CE002F11402D8BFC2F1200C04
:1003800001FA02F120FA0CFCDCBF41EA0C019040BA
:10039000E41AA2BF01EB0451294330BD6FEA040403
:1003A0001F3C1CDA0C340EDC04F11404C4F12002EE
:1003B00020FA04F001FA02F340EA030021FA04F300
:1003C00045EA030130BDC4F10C04C4F1200220FA57
:1003D00002F001FA04F340EA0300294630BD21FA95
:1003E00004F0294630BD94F0000F83F4801306BF5B
:1003F00081F480110134013D4EE77FEA645C18BF4F
:100400007FEA655C29D094EA050F08BF90EA020FE5
:1004100005D054EA000C04BF1946104630BD91EADD
:10042000030F1EBF0021002030BD5FEA545C05D1E0
:100430004000494128BF41F0004130BD14F580041F
:100440003CBF01F5801130BD01F0004545F0FE4193
:1004500041F470014FF0000030BD7FEA645C1ABFC8
:10046000194610467FEA655C1CBF0B46024650EAFF
:10047000013406BF52EA033591EA030F41F400212B
:1004800030BD00BF90F0000F04BF0021704730B5B1
:100490004FF4806404F132044FF000054FF0000186
:1004A00050E700BF90F0000F04BF0021704730B547
:1004B0004FF4806404F1320410F0004548BF40421C
:1004C0004FF000013EE700BF42004FEAE2014FEA71
:1004D00031014FEA02701FBF12F07F4393F07F4F4C
:1004E00081F06051704732F07F4208BF704793F04F
:1004F0007F4F04BF41F40021704730B54FF4607462
:1005000001F0004521F000411CE700BF50EA010264
:1005100008BF704730B54FF000050AE050EA01020D
:1005200008BF704730B511F0004502D5404261EB7D
:1005300041014FF4806404F132045FEA915C3FF4BE
:10054000D8AE4FF003025FEADC0C18BF03325FEA5B
:10055000DC0C18BF033202EBDC02C2F1200300FA0C
:1005600003FC20FA02F001FA03FE40EA0E0021FA31
:1005700002F11444BDE600BF4FEA4102B2F1E0438C
:1005800024BFB3F5001CDCF1FE5C0DD901F0004C7A
:100590004FEAC0024CEA5070B2F1004F40EB8300CA
:1005A00008BF20F00100704711F0804F21D113F1F6
:1005B0003872BCBF01F00040704741F480114FEA2F
:1005C0005252C2F11802C2F1200C10FA0CF320FAB8
:1005D00002F018BF40F001004FEAC1234FEAD323D5
:1005E00003FA0CFC40EA0C0023FA02F34FEA43033F
:1005F000CCE77FEA625307D150EA01331EBF4FF0C8
:10060000FE4040F44000704701F0004040F0FE40E2
:1006100040F40000704700BF53B94AB9002908BF31
:1006200000281CBF4FF0FF314FF0FF3000F074B9CD
:10063000ADF1080C6DE904CE00F006F8DDF804E039
:10064000DDE9022304B070472DE9F047089D044618
:100650008E46002B4DD18A42944669D9B2FA82F275
:1006600052B101FA02F3C2F1200120FA01F10CFAB1
:1006700002FC41EA030E94404FEA1C48210CBEFBE9
:10068000F8F61FFA8CF708FB16E341EA034306FB72
:1006900007F199420AD91CEB030306F1FF3080F001
:1006A0001F81994240F21C81023E63445B1AA4B24E
:1006B000B3FBF8F008FB103344EA034400FB07F7F0
:1006C000A7420AD91CEB040400F1FF3380F00A8131
:1006D000A74240F207816444023840EA0640E41B26
:1006E00000261DB1D4400023C5E900433146BDE8D2
:1006F000F0878B4209D9002D00F0EF800026C5E974
:10070000000130463146BDE8F087B3FA83F6002E8B
:100710004AD18B4202D3824200F2F980841A61EB03
:10072000030301209E46002DE0D0C5E9004EDDE721
:1007300002B9FFDEB2FA82F2002A40F09280A1EB09
:100740000C014FEA1C471FFA8CFE0126200CB1FB5E
:10075000F7F307FB131140EA01410EFB03F0884257
:1007600008D91CEB010103F1FF3802D2884200F2E4
:10077000CB804346091AA4B2B1FBF7F007FB101176
:1007800044EA01440EFB00FEA64508D91CEB040414
:1007900000F1FF3102D2A64500F2BB800846A4EB6F
:1007A0000E0440EA03409CE7C6F12007B34022FA5A
:1007B00007FC4CEA030C20FA07F401FA06F31C4389
:1007C000F9404FEA1C4900FA06F3B1FBF9F8200C96
:1007D0001FFA8CFE09FB181140EA014108FB0EF0DC
:1007E000884202FA06F20BD91CEB010108F1FF3A2C
:1007F00080F08880884240F28580A8F10208614438
:10080000091AA4B2B1FBF9F009FB101144EA014145
:1008100000FB0EFE8E4508D91CEB010100F1FF34F0
:100820006CD28E456AD90238614440EA0840A0FB88
:100830000294A1EB0E01A142C846A64656D353D05E
:100840005DB1B3EB080261EB0E0101FA07F722FA82
:1008500006F3F1401F43C5E9007100263146BDE8AB
:10086000F087C2F12003D8400CFA02FC21FA03F30E
:10087000914001434FEA1C471FFA8CFEB3FBF7F08F
:1008800007FB10360B0C43EA064300FB0EF69E42B4
:1008900004FA02F408D91CEB030300F1FF382FD24D
:1008A0009E422DD9023863449B1B89B2B3FBF7F6F5
:1008B00007FB163341EA034106FB0EF38B4208D9CE
:1008C0001CEB010106F1FF3816D28B4214D9023E0F
:1008D0006144C91A46EA004638E72E46284605E72D
:1008E0000646E3E61846F8E64B45A9D2B9EB0208FE
:1008F00064EB0C0E0138A3E74646EAE7204694E78E
:100900004046D1E7D0467BE7023B614432E73046C0
:1009100009E76444023842E7704700BF844641EA71
:10092000000313F003036DD1403A41D351F8043B67
:1009300040F8043B51F8043B40F8043B51F8043BB9
:1009400040F8043B51F8043B40F8043B51F8043BA9
:1009500040F8043B51F8043B40F8043B51F8043B99
:1009600040F8043B51F8043B40F8043B51F8043B89
:1009700040F8043B51F8043B40F8043B51F8043B79
:1009800040F8043B51F8043B40F8043B51F8043B69
:1009900040F8043B51F8043B40F8043B51F8043B59
:1009A00040F8043B51F8043B40F8043B403ABDD2C8
:1009B000303211D351F8043B40F8043B51F8043B6A
:1009C00040F8043B51F8043B40F8043B51F8043B29
:1009D00040F8043B103AEDD20C3205D351F8043BF9
:1009E00040F8043B043AF9D2043208D0D2071CBFC5
:1009F00011F8013B00F8013B01D30B8803806046EE
:100A0000704700BF082A13D38B078DD010F0030363
:100A10008AD0C3F10403D21ADB071CBF11F8013BD3
:100A200000F8013B80D331F8023B20F8023B7BE722
:100A3000043AD9D3013A11F8013B00F8013BF9D24D
:100A40000B7803704B7843708B78837060467047E7
:100A50000000000000000000000000000000000096
:100A60000000000000000000000000000000000086
:100A70000000000000000000000000000000000076
:100A800090F800F06DE9024520F007016FF0000CCE
:100A900010F0070491F820F040F049804FF0000476
:100AA0006FF00700D1E9002391F840F000F1080051
:100AB00082FA4CF2A4FA8CF283FA4CF3A2FA8CF389
:100AC0004BBBD1E9022382FA4CF200F10800A4FAF0
:100AD0008CF283FA4CF3A2FA8CF3E3B9D1E9042344
:100AE00082FA4CF200F10800A4FA8CF283FA4CF37B
:100AF000A2FA8CF37BB9D1E9062301F1200182FA35
:100B00004CF200F10800A4FA8CF283FA4CF3A2FA3A
:100B10008CF3002BC6D0002A04BF04301A4612BA48
:100B2000B2FA82F2FDE8024500EBD2007047D1E94B
:100B3000002304F00305C4F100004FEAC50514F0DA
:100B4000040F91F840F00CFA05F562EA05021CBFAB
:100B500063EA050362464FF00004A9E700000000C5
:100B600001F0FF01102A2BDB10F0070F08D010F85E
:100B7000013B013A8B422DD010F0070F42B3F6D162
:100B8000F0B441EA012141EA014122F007047FF07B
:100B900000070023F0E80256083C85EA010586EAD2
:100BA000010685FA47F5A3FA87F586FA47F6A5FA0E
:100BB00087F68EB9EED1F0BC01F0FF0102F007021A
:100BC00032B110F8013B013A83EA010313B1F8D1C5
:100BD0000020704701387047002D06BF35460338A6
:100BE000073815F0010F07D1013015F4807F02BFDF
:100BF000013015F4C03F0130F0BC0138704700BF30
:100C000070B54FF0FF0C4CF4E06C1CEA11541DBFA2
:100C10001CEA135594EA0C0F95EA0C0F00F0DEF86D
:100C20002C4481EA030621EA4C5123EA4C5350EA52
:100C3000013518BF52EA033541F4801143F48013A3
:100C400038D0A0FB02CE4FF00005E1FB02E506F034
:100C50000042E0FB03E54FF00006E1FB03569CF089
:100C6000000F18BF4EF0010EA4F1FF04B6F5007F8F
:100C700064F5407404D25FEA4E0E6D4146EB060601
:100C800042EAC62141EA55514FEAC52040EA5E508A
:100C90004FEACE2EB4F1FD0C88BFBCF5E06F1ED834
:100CA000BEF1004F08BF5FEA500E50F1000041EB6B
:100CB000045170BD06F0004646EA010140EA020018
:100CC00081EA0301B4EB5C04C2BFD4EB0C0541EA3A
:100CD000045170BD41F480114FF0000E013C00F34F
:100CE000AB8014F1360FDEBF002001F0004170BD73
:100CF000C4F10004203C35DA0C341BDC04F114048C
:100D0000C4F1200500FA05F320FA04F001FA05F217
:100D100040EA020001F0004221F0004110EBD370E4
:100D200021FA04F642EB06015EEA430E08BF20EA10
:100D3000D37070BDC4F10C04C4F1200500FA04F3B3
:100D400020FA05F001FA04F240EA020001F0004145
:100D500010EBD37041F100015EEA430E08BF20EAB8
:100D6000D37070BDC4F1200500FA05F24EEA020E00
:100D700020FA04F301FA05F243EA020321FA04F02F
:100D800001F0004121FA04F220EA020000EBD370E6
:100D90005EEA430E08BF20EAD37070BD94F0000FE6
:100DA0000FD101F00046400041EB010111F4801F1A
:100DB00008BF013CF7D041EA060195F0000F18BFCB
:100DC000704703F00046520043EB030313F4801F07
:100DD00008BF013DF7D043EA0603704794EA0C0FC1
:100DE0000CEA135518BF95EA0C0F0CD050EA4106D7
:100DF00018BF52EA4306D1D181EA030101F0004154
:100E00004FF0000070BD50EA410606BF104619467B
:100E100052EA430619D094EA0C0F02D150EA013687
:100E200013D195EA0C0F05D152EA03361CBF1046C8
:100E300019460AD181EA030101F0004141F0FE4167
:100E400041F470014FF0000070BD41F0FE4141F4EB
:100E5000780170BD70B54FF0FF0C4CF4E06C1CEAEB
:100E600011541DBF1CEA135594EA0C0F95EA0C0FA0
:100E700000F0A7F8A4EB050481EA030E52EA03355B
:100E80004FEA013100F088804FEA03334FF080557C
:100E900045EA131343EA12634FEA022245EA1115A9
:100EA00045EA10654FEA00260EF000419D4208BF5A
:100EB000964244F1FD0404F5407402D25B084FEA07
:100EC0003202B61A65EB03055B084FEA32024FF4B3
:100ED00080104FF4002CB6EB020E75EB030E22BF10
:100EE000B61A754640EA0C005B084FEA3202B6EBD0
:100EF000020E75EB030E22BFB61A754640EA5C007F
:100F00005B084FEA3202B6EB020E75EB030E22BF0E
:100F1000B61A754640EA9C005B084FEA3202B6EB0F
:100F2000020E75EB030E22BFB61A754640EADC00CE
:100F300055EA060E18D04FEA051545EA16754FEA30
:100F400006164FEAC30343EA52734FEAC2025FEA4E
:100F50001C1CC0D111F4801F0BD141EA00014FF0DD
:100F600000004FF0004CB6E711F4801F04BF0143AE
:100F70000020B4F1FD0C88BFBCF5E06F3FF6AFAECA
:100F8000B5EB030C04BFB6EB020C5FEA500C50F15A
:100F9000000041EB045170BD0EF0004E4EEA1131DD
:100FA00014EB5C04C2BFD4EB0C0541EA045170BDE4
:100FB00041F480114FF0000E013C90E645EA060E28
:100FC0008DE60CEA135594EA0C0F08BF95EA0C0F56
:100FD0003FF43BAF94EA0C0F0AD150EA01347FF49E
:100FE00034AF95EA0C0F7FF425AF104619462CE775
:100FF00095EA0C0F06D152EA03353FF4FDAE1046D8
:10100000194622E750EA410618BF52EA43067FF428
:10101000C5AE50EA41047FF40DAF52EA43057FF4B8
:10102000EBAE12E74FF0FF3C06E000BF4FF0010CC3
:1010300002E000BF4FF0010C4DF804CD4FEA410C27
:101040007FEA6C5C4FEA430C18BF7FEA6C5C1BD0F4
:1010500001B050EA410C0CBF52EA430C91EA030F75
:1010600002BF90EA020F0020704710F1000F91EAD2
:10107000030F58BF994208BF90422CBFD8176FEAA0
:10108000E37040F0010070474FEA410C7FEA6C5C6E
:1010900002D150EA013C07D14FEA430C7FEA6C5C75
:1010A000D6D152EA033CD3D05DF8040B704700BFA1
:1010B0008446104662468C461946634600E000BFEF
:1010C00001B5FFF7B7FF002848BF10F1000F01BDC1
:1010D0004DF808EDFFF7F4FF0CBF012000205DF88C
:1010E00008FB00BF4DF808EDFFF7EAFF34BF012011
:1010F00000205DF808FB00BF4DF808EDFFF7E0FFAA
:1011000094BF012000205DF808FB00BF4DF808EDFA
:10111000FFF7CEFF94BF012000205DF808FB00BF61
:101120004DF808EDFFF7C4FF34BF012000205DF843
:1011300008FB00BF4FEA410C7FEA6C5C02D150EA29
:10114000013C0AD14FEA430C7FEA6C5C02D152EABF
:10115000033C02D14FF0000070474FF00100704790
:101160004FEA410212F5001215D211D56FF47873CF
:10117000B3EB625212D94FEAC12343F0004343EA72
:10118000505311F0004F23FA02F018BF404270474D
:101190004FF00000704750EA013005D111F00040D7
:1011A00008BF6FF0004070474FF00000704700BF6D
:1011B0004A0011D212F5001211D20DD56FF47873D6
:1011C000B3EB62520ED44FEAC12343F0004343EA2B
:1011D000505323FA02F070474FF00000704750EA76
:1011E000013002D14FF0FF3070474FF000007047E0
:1011F00038B50022002304460D46FFF773FF28B9D7
:1012000020462946BDE8384000F00AB8204605F1DE
:10121000004100F005F8404261EB410138BD00BFDC
:10122000D0B50C4B002206460F46FFF7E9FCFFF74E
:10123000BFFF0446FFF726F9074B0022FFF7E0FC4B
:1012400002460B4630463946FEF7DEFFFFF7B0FF99
:101250002146D0BD0000F03D0000F04108B50D482A
:101260000D4B03600323436000238360C3604FF48E
:10127000002202614FF44012426103764376837686
:10128000C3760377437700F001FC00B908BD00F096
:1012900065F9FBE7E00900200064004010B588B064
:1012A0000023039304930593069307930268194B55
:1012B0009A4201D008B010BD0024019403F5EA332E
:1012C0001A6C42F000721A641A6C02F000720192F9
:1012D000019A02941A6B42F002021A631B6B03F02C
:1012E00002030293029B4FF440730393022304937F
:1012F000032306930923079303A9074801F000F984
:1013000022460521142000F04FFE142000F084FE38
:10131000D0E700BF006400400004024000B58BB07D
:1013200001AB03AA002100F057FC0BB05DF804FBF1
:1013300010B582B0002401940D4B1A6B42F40012D8
:101340001A631B6B03F400130193019B22460521D2
:101350000B2000F029FE0B2000F05EFE2246052146
:10136000112000F021FE112000F056FE02B010BD49
:101370000038024008B50121034B186802F0FEFC5A
:10138000012002F099FCFBE7100A002070B524E070
:10139000154D2978154C204604F038FB10EE100A44
:1013A000FFF792F802460B46114804F0DDFB2A785D
:1013B000104E2146304602F063F8002129700E4B92
:1013C00019702A78204604F07DFB642221463046BD
:1013D00002F0B6FB012002F06FFC074B1B78DBB27A
:1013E000012BD5D0F6E700BFD00B00206C0B0020FE
:1013F00040D70008240B0020680B002008B50B4BD9
:101400001B68B3F5FA7F04D0084A136801331360F0
:1014100008BD4FF48041064801F076F9034B0022E5
:101420001A60044804F002FCEEE700BF140A002032
:101430000014024048D7000808B50B4B00220121D8
:101440000A4802F047FC0A4B18600A4A00210A4881
:1014500002F0D4FB094B1860094A0021094802F048
:10146000CDFB094B186008BDB0D70008FD1300087C
:10147000100A00208CD70008751300080C0A002001
:1014800068D700088D130008080A0020F0B58BB05B
:101490000024059406940794089409940194264B1B
:1014A0001A6B42F010021A631A6B02F010020192DA
:1014B000019A02941A6B42F002021A631A6B02F04C
:1014C00002020292029A03941A6B42F080021A639B
:1014D0001A6B02F080020392039A04941A6B42F092
:1014E00020021A631B6B03F020030493049B134F29
:1014F00022464FF40061384601F000F9104D2246B3
:101500004FF48041284601F0F9F84FF40063059349
:10151000012606960794089405A9384600F0F0FFC6
:101520004FF48043059306960794089405A928462E
:1015300000F0E6FF0BB0F0BD0038024000100240A2
:101540000014024008B50268034B9A4200D008BD5F
:1015500000F08AFAFBE700BF0000014072B6FEE728
:1015600000B595B03022002108A804F0ABFA0023A2
:10157000039304930593069307930193204A116CF8
:1015800041F080511164126C02F080520192019A74
:1015900002931C4B1A6842F440421A601B6803F421
:1015A00040430293029B012308934FF48033099335
:1015B00002230E934FF480020F9206221092A8226B
:1015C000119212930423139308A801F0A7F898B975
:1015D0000F23039302230493002305934FF4A05396
:1015E00006934FF480530793052103A801F0E4FA12
:1015F00020B915B05DF804FBFFF7B0FFFFF7AEFFB1
:10160000003802400070004008B500F013FAFFF700
:10161000A7FFFFF73BFFFFF78BFE00F041F9FFF755
:101620001DFE02F0BDFAFFF707FF02F0CBFAFEE75E
:1016300000B583B0002200920D4B596C41F48041FB
:101640005964596C01F48041009100990192196C20
:1016500041F0805119641B6C03F080530193019B8E
:101660000F216FF0010000F09FFC03B05DF804FB58
:101670000038024030B589B00546002401941E4B65
:101680005A6C42F001025A645B6C03F0010301934F
:10169000019B02A903A801F065FB01F053FB430085
:1016A0001648A0FB03239B0C013B1548154A02601A
:1016B00040F2E732C260436004618460846101F0FB
:1016C000DBFC044610B1204609B030BD0C4801F0E7
:1016D00069FB04460028F6D1192000F09DFC0F2D6F
:1016E00001D90124EFE700222946192000F05CFC13
:1016F000054B1D60E7E700BF0038024083DE1B4357
:10170000180A00200000014008000020FEE7FEE764
:10171000FEE7FEE7FEE7704708B5024800F002FE6C
:1017200008BD00BFC40A002008B5024800F0FAFD59
:1017300008BD00BF640A002008B5024800F0FDFAA9
:1017400008BD00BFE009002008B5024801F072FBA7
:1017500008BD00BF180A002000B583B0104B1B68FD
:101760001A6812F0100F05D10D4801F0FDFF03B00B
:101770005DF804FB002201921A6801925B680193F4
:10178000019B074801F0CAFE064B1B685B68C3F16A
:101790006403DBB2044A1370044B01221A70E3E7BE
:1017A000240B0020640A0020D00B0020680B0020CE
:1017B0000120704708B504F05BF9162303604FF071
:1017C000FF3008BD08B54FF0FF31FFF7F3FFFEE72C
:1017D00070B50C461646002506E0AFF300802146A2
:1017E00001F8010B01350C46B542F6DB304670BD01
:1017F00070B50C461646002504E014F8010B00F005
:101800003FF80135B542F8DB304670BD4FF0FF3090
:1018100070474FF400534B60002070470120704721
:101820000020704710B503460C4A0D490D4800686A
:1018300040B10C4800680344521A934206D8094A42
:10184000136010BD0748084C0460F2E704F010F97B
:101850000C2303604FF0FF30F3E700BF00000320CC
:1018600000040000600A002070550020034AD2F8EE
:10187000883043F47003C2F88830704700ED00E010
:1018800000B583B001904FF6FF73012201A9034810
:1018900001F089FD019803B05DF804FB240B0020E2
:1018A00008B50F480F4B03604FF4E133436000234A
:1018B0008360C36003610C2242618361C36101F0F4
:1018C00043FD50B906480268D36843F01003D36063
:1018D0006422054902F034F908BDFFF73FFEF1E745
:1018E000240B0020007C00406C0B002030B589B038
:1018F0000023039304930593069307930268324BE6
:101900009A4201D009B030BD04460025019503F587
:10191000DE331A6C42F000421A641A6C02F0004284
:101920000192019A02951A6B42F010021A631B6B26
:1019300003F010030293029B0323039302220492F9
:1019400006930823079303A9204800F0D9FD2048F7
:10195000204B03604FF0206343608560C5604FF407
:101960008063036145618561C5610562456200F080
:10197000E1FB18BB164BA3639C631748174B03602E
:101980004FF020634360402383600023C3604FF423
:101990008062026143618361C3610362436200F05C
:1019A000C9FB70B90C4B63639C6300220521532073
:1019B00000F0FAFA532000F02FFBA3E7FFF7CEFD6B
:1019C000D8E7FFF7CBFDEDE7007C004000100240B8
:1019D000640A0020A0600240C40A00201060024097
:1019E000DFF834D00D480E490E4A002302E0D458E7
:1019F000C4500433C4188C42F9D30B4A0B4C002357
:101A000001E013600432A242FBD3FFF72FFF04F082
:101A100035F8FFF7F9FD70470000032000000020B3
:101A2000C40900200CDE0008C40900207055002005
:101A3000FEE7000008B50B4B1A6842F400721A600A
:101A40001A6842F480621A601A6842F480721A605E
:101A5000032000F097FA0F20FFF70CFEFFF7E8FDD8
:101A6000002008BD003C0240034A1168034B1B786C
:101A70000B441360704700BFD40B0020040000200B
:101A8000014B1868704700BFD40B0020002800F0FD
:101A9000A18038B5044690F82030D3B1226813688D
:101AA00043F001031360FFF7EBFF054623685A6814
:101AB00012F0010F10D1FFF7E3FF401B0A28F5D900
:101AC000636A43F400336362052384F82030012005
:101AD00038BDFFF7E3FBE1E71A6822F002021A6063
:101AE000FFF7CEFF054623685A6812F0020F0DD0AB
:101AF000FFF7C6FF401B0A28F5D9636A43F4003399
:101B00006362052384F820300120E1E7227E012A68
:101B10003DD01A6822F080021A60637E012B3BD010
:101B20002268136823F040031360A37E012B39D091
:101B30002268136823F020031360E37E012B37D063
:101B40002268136843F010031360237F012B35D004
:101B50002268136823F008031360637F012B33D0DE
:101B60002268136823F004031360A368E268134338
:101B700022691343626913436268013A216813437F
:101B8000CB6100206062012384F82030A0E71A684E
:101B900042F080021A60C0E72268136843F04003F5
:101BA0001360C2E72268136843F020031360C4E7A0
:101BB0002268136823F010031360C6E722681368D5
:101BC00043F008031360C8E72268136843F0040376
:101BD0001360CAE70120704790F820C00CF1FF3C69
:101BE0005FFA8CFCBCF1010F00F2958030B451B962
:101BF0000468E46814F0030F10D1436A43F400133F
:101C00004362012077E00468246914F0030F05D1D2
:101C1000436A43F40013436201206CE001F11B04AA
:101C2000240105682C5904F004049460002C64D14C
:101C300001F11B04240105682C59640D146004682B
:101C400001F11B0C4FEA0C1C54F80C4004F0020488
:101C5000D46004686444646804F00F041461046888
:101C600064446468C4F30724946104686444646849
:101C7000240C5461026802EB0112D2F8B8211A70E8
:101C8000026802EB0112D2F8B821C2F307225A709F
:101C9000026802EB0112D2F8B821C2F307429A702F
:101CA000026802EB0112D2F8B821120EDA70026853
:101CB00002EB0112D2F8BC211A71026802EB011288
:101CC000D2F8BC21C2F307225A71026802EB01125A
:101CD000D2F8BC21C2F307429A71026802EB0112EA
:101CE000D2F8BC21120EDA7179B90268D36843F0D8
:101CF0002003D360002030BC704701F11B04240195
:101D000005682C59E408546099E70268136943F0A8
:101D100020031361EEE7436A43F48023436201200A
:101D200070477047704770477047704770477047FB
:101D3000704770477047704770472DE9F84F054668
:101D400003685C69D3F804809F68D3F80CB0D3F8BB
:101D500010A0D3F8189014F001063BD017F001063C
:101D600016D001229A6017F0020F08D117F0040F65
:101D70000CD117F0080606D04FF4805608E0FFF7A4
:101D8000D0FF002604E0FFF7CFFF01E04FF400662C
:101D900017F4807F0DD02B684FF480729A6017F48F
:101DA000007F40F0868017F4806F00F0868046F454
:101DB000005617F4803F0DD02B684FF480329A60A4
:101DC00017F4003F40F0838017F4802F00F08380E9
:101DD00046F4004614F0080F07D01BF0100F04D093
:101DE00046F400762B681022DA6014F0040F02D05B
:101DF0001BF0080F79D114F0020F04D02B68DB68B8
:101E000013F0030F78D114F0400F07D01AF0100F21
:101E100004D046F480662B6810221A6114F0200F5B
:101E200002D01AF0080F6BD114F0100F04D02B68F9
:101E30001B6913F0030F6AD114F4003F02D018F0AD
:101E4000100F68D114F4803F02D018F0080F69D148
:101E500014F4004F7AD018F0040F74D014F4807F7B
:101E600004D019F0010F01D046F0010614F4007FF0
:101E700004D019F0020F01D046F0020614F4806F6E
:101E800004D019F0040F01D046F0040614F4006FDA
:101E900059D019F0700956D0B9F1400F65D058D813
:101EA000B9F1200F5ED0B9F1300F42D146F02006D3
:101EB00044E02846FFF736FF7BE717F4006F02D0B7
:101EC00046F4804675E72846FFF72FFF71E728465E
:101ED000FFF729FF7EE717F4002F02D046F4803683
:101EE00078E72846FFF722FF74E72B680822DA60BC
:101EF0002846FFF71CFF7EE72846FFF70FFA82E728
:101F00002B6808221A612846FFF713FF8CE7284642
:101F1000FFF70EFF90E72B6810225A602846FFF764
:101F200009FF8FE72B6808225A602846FFF703FF56
:101F30008EE7B9F1100F01D146F008062A689369BF
:101F400023F0700393612B6804225A609EB9BDE8A8
:101F5000F88FB9F1500F0BD0B9F1600FEED146F404
:101F60008076EBE746F01006E8E746F04006E5E746
:101F700046F08006E2E76B6A1E436E622846FFF772
:101F8000DBFEE4E7074AD36823F4E0631B041B0C81
:101F9000000200F4E060034343F0BF6343F4003306
:101FA000D360704700ED00E000B5194BDB68C3F368
:101FB0000223C3F1070CBCF1040F28BF4FF0040C3F
:101FC00003F1040EBEF1060F18D9033B4FF0FF3E9C
:101FD0000EFA0CFC21EA0C0199400EFA03F322EAF6
:101FE0000303194300280BDB0901C9B200F160406B
:101FF00000F5614080F800135DF804FB0023E5E77D
:1020000000F00F000901C9B2024B1954F4E700BFF8
:1020100000ED00E014ED00E0002807DB00F01F02F7
:10202000400901239340024A42F82030704700BF24
:1020300000E100E030B405682C6824F480242C60B2
:10204000046863608368402B05D003689960036867
:10205000DA6030BC704703689A600368D960F8E7BB
:1020600010B40368D9B210390C4AA2FB014212091C
:102070000B4CA25CC2655F2909D923F47F7323F05E
:10208000030304338365806D5DF8044B704723F4CC
:102090007F7323F003038365F5E700BFABAAAAAA09
:1020A000D8D70008836A826992B9012B0AD0022B23
:1020B00002D00BB100207047C36A13F0807F28D193
:1020C00000207047C36AB3F1C07F24D0002070475E
:1020D000B2F5005F09D0022B25D9032B25D1C36AA5
:1020E00013F0807F23D100207047032B03D8DFE853
:1020F00003F01404140A00207047C36A13F0807FB1
:102100000DD100207047C36AB3F1C07F09D0002011
:10211000704701207047012070470120704701205F
:102120007047012070470120704700207047012050
:102130007047000070B50446FFF7A2FC002C5BD08E
:102140000546022384F83530002384F834302268B1
:10215000136823F00103136023681A6812F0010F5B
:102160000AD0FFF78DFC431B052BF5D920236365AF
:10217000032084F8350070BD1A682048104061685B
:10218000A2680A43E1680A4321690A4361690A4374
:10219000A1690A43E1690A43216A0A430243616A69
:1021A00004291ED01A602668756925F00705636A40
:1021B0001D43042B07D1A36A1D43E36A1BB12046CC
:1021C000FFF770FF90B975612046FFF749FFE26D98
:1021D0003F239340836000206065012384F83530FD
:1021E000C9E7E16A206B01430A43DBE740236365EB
:1021F000012084F83500BEE70120BCE73F8010F0E5
:1022000038B50446856D90F8340001282BD00120A4
:1022100084F8340094F83500C0B2012804D00023BB
:1022200084F83430022038BD022084F835000020C4
:1022300060652046FFF7FEFEE26D3F239340AB60F2
:102240002268136843F016031360236C23B12268DD
:10225000136843F0080313602268136843F0010316
:1022600013600020DFE70220DDE770B50446866DCD
:10227000FFF706FC94F83530DBB2022B06D0802342
:102280006365002384F83430012070BD0546226860
:10229000136823F0160313602268536923F0800348
:1022A0005361236CE3B12268136823F008031360C1
:1022B0002268136823F00103136023681B6813F07E
:1022C000010F11D0FFF7DCFB431B052BF5D92023B1
:1022D0006365032084F83500002384F83430D4E7A4
:1022E000A36C002BDFD1E3E7E26D3F239340B360A3
:1022F000012384F83530002084F83400C5E790F8D5
:102300003530DBB2022B03D08023436501207047B8
:10231000052380F835300268136823F00103136049
:1023200000207047F0B583B0044600230193724B40
:102330001D68724BA3FB0535AD0A876D3E68C26D03
:1023400008239340334210D003681A6812F0040F38
:102350000BD01A6822F004021A60C26D0823934061
:10236000BB60436D43F001034365E26D012393407D
:10237000334209D02268526912F0800F04D0BB604A
:10238000636D43F002036365E26D042393403342BF
:1023900009D02268126812F0020F04D0BB60636D8E
:1023A00043F004036365E26D10239340334224D06D
:1023B0002268126812F0080F1FD0BB6023681A68E9
:1023C00012F4802F0DD01B6813F4002F04D1236C5E
:1023D0009BB12046984710E0A36C73B12046984704
:1023E0000BE01A6812F4807F03D11A6822F0080209
:1023F0001A60236C0BB120469847E26D202393406E
:10240000334255D02268126812F0100F50D0BB60D2
:1024100094F83530DBB2052B0ED023681A6812F41D
:10242000802F33D01B6813F4002F2AD1636C002B4C
:102430003ED0204698473BE02268136823F01603FD
:1024400013602268536923F080035361236CA3B1A6
:102450002268136823F008031360E26D3F23934062
:10246000BB60012384F83530002384F83430236DB9
:10247000002B3FD0204698473CE0A36C002BE7D1CF
:10248000EBE7E36BA3B12046984711E01A6812F41A
:10249000807F09D11A6822F010021A60012384F8A3
:1024A0003530002384F83430E36B0BB12046984775
:1024B000636DFBB1636D13F0010F17D0052384F832
:1024C00035302268136823F001031360019B013348
:1024D0000193AB4204D823681B6813F0010FF5D1B8
:1024E000012384F83530002384F83430E36C0BB1D9
:1024F0002046984703B0F0BD00000020B5814E1B78
:1025000000230F2B00F2F18070B582B061E0856886
:102510005E000324B44025EA0405CC68B4402C4393
:102520008460456825EA02054C68C4F300129A40AD
:102530002A4342605BE0DC08083450F8246003F072
:10254000070295000F22AA4026EA020E0A69AA4055
:1025500042EA0E0240F824205DE0092200E0002259
:1025600002FA0EF22A430234604D45F82420604AF4
:1025700094686FEA0C0224EA0C054E6816F4801F7A
:1025800001D04CEA04055A4CA560E46802EA04054F
:102590004E6816F4001F01D04CEA0405544CE56067
:1025A000646802EA04054E6816F4003F01D04CEA64
:1025B00004054F4C6560246822404D6815F4803F47
:1025C00001D04CEA04024A4C226001330F2B00F286
:1025D0008A8001229A400C6804EA020C32EA040460
:1025E000F3D14C6804F00304013C012C8FD94A68F4
:1025F00002F00302032A09D0C4685D000322AA4046
:1026000024EA02048A68AA402243C2604A6802F0AF
:102610000302022A8FD004684FEA430E032202FA13
:102620000EF224EA02044A6802F0030202FA0EF2F1
:10263000224302604A6812F4403FC6D00022019251
:102640002C4A546C44F480445464526C02F480422A
:102650000192019A9C08A51C244A52F8255003F0C7
:1026600003024FEA820E0F2202FA0EF225EA020559
:10267000214A90423FF473AF02F58062904222D02B
:1026800002F58062904220D002F5806290421ED016
:1026900002F5806290421CD002F5806290421AD00E
:1026A00002F58062904218D002F58062904216D006
:1026B00002F58062904214D002F5806290423FF4AD
:1026C0004CAF0A224CE701224AE7022248E70322E4
:1026D00046E7042244E7052242E7062240E70722B4
:1026E0003EE708223CE702B070BD70470038014069
:1026F000003C014000380240000002400AB1816104
:102700007047090481617047436901EA030221EAC5
:10271000030141EA0241816170470000002800F096
:10272000E08170B582B00446036813F0010F3BD01E
:102730009F4B9B6803F00C03042B2CD09C4B9B6895
:1027400003F00C03082B21D06368B3F5803F4FD012
:10275000B3F5A02F52D0964B1A6822F480321A603B
:102760001A6822F480221A606368002B50D0FFF7A9
:1027700087F905468E4B1B6813F4003F14D1FFF711
:102780007FF9401B6428F5D90320B1E1884B5B68D1
:1027900013F4800FD8D0864B1B6813F4003F03D08E
:1027A0006368002B00F09F81236813F0020F54D060
:1027B0007F4B9B6813F00C0F3ED07D4B9B6803F062
:1027C0000C03082B33D0E368002B68D0794B01222F
:1027D0001A60FFF755F90546754B1B6813F0020F99
:1027E00054D1FFF74DF9401B0228F5D903207FE1B2
:1027F0006F4A136843F480331360B5E76C4B1A6873
:1028000042F480221A601A6842F480321A60ABE700
:10281000FFF736F90546664B1B6813F4003FC3D03B
:10282000FFF72EF9401B6428F5D9032060E1604BC7
:102830005B6813F4800FC6D15D4B1B6813F0020F69
:1028400003D0E368012B40F05081594A136823F00C
:10285000F803216943EAC1031360236813F0080FEA
:1028600042D063696BB3534B0122C3F8802EFFF74C
:1028700007F905464E4B5B6F13F0020F34D1FFF79B
:10288000FFF8401B0228F5D9032031E1484A1368BC
:1028900023F0F803216943EAC1031360DDE7454BE8
:1028A00000221A60FFF7ECF80546414B1B6813F055
:1028B000020FD2D0FFF7E4F8401B0228F5D903201D
:1028C00016E13C4B0022C3F8802EFFF7D9F80546ED
:1028D000374B5B6F13F0020F06D0FFF7D1F8401BA8
:1028E0000228F5D9032003E1236813F0040F77D001
:1028F0002F4B1B6C13F0805F33D1002301932C4BC3
:102900001A6C42F080521A641B6C03F080530193DE
:10291000019B0125284B1B6813F4807F23D0A368FB
:10292000012B34D0052B38D0214B1A6F22F0010235
:102930001A671A6F22F004021A67A368002B3DD0B1
:10294000FFF79EF806461A4B1B6F13F0020F46D195
:10295000FFF796F8801B41F288339842F3D90320A1
:10296000C6E00025D6E7144A136843F48073136069
:10297000FFF786F80646104B1B6813F4807FCED114
:10298000FFF77EF8801B0228F5D90320B0E0084A43
:10299000136F43F001031367CFE7054B1A6F42F043
:1029A00004021A671A6F42F001021A67C5E700BFF6
:1029B000003802400000474200700040FFF760F816
:1029C0000646524B1B6F13F0020F08D0FFF758F862
:1029D000801B41F288339842F3D9032088E0EDB997
:1029E000A369002B00F08380484A926802F00C0231
:1029F000082A51D0022B17D0454B00221A66FFF748
:102A00003FF80446414B1B6813F0007F42D0FFF7AC
:102A100037F8001B0228F5D9032069E03B4A136C04
:102A200023F080531364DBE7394B00221A66FFF76B
:102A300027F80546354B1B6813F0007F06D0FFF7DB
:102A40001FF8401B0228F5D9032051E0E369226AF0
:102A50001343626A43EA8213A26A5208013A43EAC4
:102A60000243E26A43EA0263284A5360284B012288
:102A70001A66FFF705F80446244B1B6813F0007F25
:102A800006D1FEF7FDFF001B0228F5D903202FE039
:102A900000202DE000202BE0012B2BD01B4B5B688E
:102AA00003F48001E269914226D103F03F02216ADA
:102AB0008A4223D1616A47F6C0721A40B2EB811F85
:102AC0001ED103F44031A26A5208013AB1EB024F21
:102AD00018D103F07063E26AB3EB026F14D10020E7
:102AE00006E001207047012002E0012000E0002004
:102AF00002B070BD0120FBE70120F9E70120F7E7F4
:102B00000120F5E70120F3E70120F1E7003802405A
:102B10000000474208B5254B9B6803F00C03042BCB
:102B20003FD0082B3FD1214B5A6802F03F025B682F
:102B300013F4800F12D01D4B5968C1F388111C4843
:102B40000023A1FB0001FDF767FD184B5B68C3F391
:102B5000014301335B00B0FBF3F025E0134B5968F0
:102B6000C1F3881C4FEA4C11B1EB0C006EEB0E0E5A
:102B70004FEA8E1343EA90638101091A63EB0E0357
:102B8000DB0043EA5173C90011EB0C0C43F1000365
:102B9000990200234FEA8C2041EA9C51FDF73CFD4D
:102BA000D3E7034800E0034808BD00BF00380240F7
:102BB000001BB7000024F400002800F09B8070B5D3
:102BC0000D4604464F4B1B6803F00F038B4208D29F
:102BD000CBB24C4A1370136803F00F038B4240F0E2
:102BE0008B80236813F0020F17D013F0040F04D06A
:102BF000454A936843F4E0539360236813F0080F49
:102C000004D0414A936843F4604393603E4A93681A
:102C100023F0F003A1680B439360236813F0010FC6
:102C200032D06368012B21D09A1E012A25D9364A59
:102C3000126812F0020F61D033498A6822F0030251
:102C400013438B60FEF71CFF06462F4B9B6803F077
:102C50000C036268B3EB820F16D0FEF711FF801BE6
:102C600041F288339842F0D9032042E0264A1268A4
:102C700012F4003FE0D101203BE0234A126812F039
:102C8000007FD9D1012034E01E4B1B6803F00F03F5
:102C9000AB4207D9EAB21B4B1A701B6803F00F0353
:102CA000AB422DD1236813F0040F06D0164A936867
:102CB00023F4E053E1680B439360236813F0080F9B
:102CC00007D0114A936823F46043216943EAC103A2
:102CD0009360FFF71FFF0C4B9B68C3F303130B4A72
:102CE000D35CD8400A4B18600A4B1868FEF7C2FC48
:102CF000002070BD012070470120FAE70120F8E7AD
:102D00000120F6E7003C024000380240C0D700082E
:102D10000000002008000020014B1868704700BF29
:102D20000000002008B5FFF7F7FF044B9B68C3F3D2
:102D30008223034AD35CD84008BD00BF003802405C
:102D4000D0D7000808B5FFF7E7FF044B9B68C3F333
:102D50004233034AD35CD84008BD00BF003802406C
:102D6000D0D700080F2303600B4B9A6802F00302D0
:102D700042609A6802F0F00282609A6802F4E052BF
:102D8000C2609B68DB0803F4E0530361034B1B68DC
:102D900003F00F030B60704700380240003C024014
:102DA0007047000090F83D30DBB2012B37D1022391
:102DB00080F83D300268D36843F00103D3600368B4
:102DC000194A934220D0B3F1804F1DD0A2F57C4226
:102DD000934219D002F58062934215D002F58062C9
:102DE000934211D002F5784293420DD002F5705211
:102DF000934209D0A2F59432934205D01A6842F06A
:102E000001021A60002070479A6802F00702062A41
:102E100007D01A6842F001021A60002070470120B2
:102E200070470020704700BF0000014070477047A6
:102E30007047704710B5044603681A6912F0020F14
:102E400011D0DA6812F0020F0DD06FF002021A6191
:102E50000123037703689B6913F0030F70D0FFF71A
:102E6000E6FF0023237723681A6912F0040F12D0BB
:102E7000DA6812F0040F0ED06FF004021A61022318
:102E8000237723689B6913F4407F5FD02046FFF7C8
:102E9000CEFF0023237723681A6912F0080F12D09F
:102EA000DA6812F0080F0ED06FF008021A610423DE
:102EB00023772368DB6913F0030F4ED02046FFF71A
:102EC000B6FF0023237723681A6912F0100F12D07F
:102ED000DA6812F0100F0ED06FF010021A6108239A
:102EE00023772368DB6913F4407F3DD02046FFF74A
:102EF0009EFF0023237723681A6912F0010F03D085
:102F0000DA6812F0010F36D123681A6912F0800FC7
:102F100003D0DA6812F0800F34D123681A6912F0F6
:102F2000400F03D0DA6812F0400F32D123681A69DB
:102F300012F0200F03D0DA6812F0200F30D110BD4C
:102F4000FFF774FF2046FFF773FF8AE72046FFF77D
:102F50006DFF2046FFF76CFF9BE72046FFF766FFFB
:102F60002046FFF765FFACE72046FFF75FFF2046EE
:102F7000FFF75EFFBDE76FF001021A612046FEF722
:102F8000E1FAC1E76FF080021A61204600F0A1F873
:102F9000C3E76FF040021A612046FFF74AFFC5E71A
:102FA0006FF020021A61204600F092F8C7E7000097
:102FB0000368304A904212D0B0F1804F0FD0A2F592
:102FC0007C4290420BD002F58062904207D002F51D
:102FD0008062904203D002F57842904203D123F000
:102FE00070034A681343234A90422AD0B0F1804FBD
:102FF00027D0A2F57C42904223D002F58062904215
:103000001FD002F5806290421BD002F578429042B8
:1030100017D002F57052904213D002F580629042B0
:103020000FD002F5806290420BD0A2F59832904208
:1030300007D002F58062904203D002F58062904290
:1030400003D123F44073CA68134323F080034A6911
:10305000134303608B68C3620B688362054B98421D
:1030600003D003F58063984201D10B690363012308
:10307000436170470000014040B310B5044690F82A
:103080003D30F3B1022384F83D30214651F8040B62
:10309000FFF78EFF012384F8463084F83E3084F831
:1030A0003F3084F8403084F8413084F8423084F86E
:1030B000433084F8443084F8453084F83D300020B3
:1030C00010BD80F83C30FFF76BFEDBE70120704756
:1030D00070477047026802F10C0353E8003F23F089
:1030E000C0030C3242E800310029F3D1202380F8DC
:1030F0003D307047026802F10C0353E8003F23F4AF
:1031000090730C3242E800310029F3D1026802F1D9
:10311000140353E8003F23F00103143242E8003166
:103120000029F3D1036B012B05D0202380F83E301A
:10313000002303637047026802F10C0353E8003F69
:1031400023F010030C3242E800310029F3D1ECE700
:1031500090F83D30DBB2212B01D00220704783680C
:10316000B3F5805F17D0036A5A1C02621A780368AD
:103170005A60C38C9BB2013B9BB2C3844BB90268BB
:10318000D36823F08003D3600268D36843F0400320
:10319000D360002070470369002BE4D1036A1B88C9
:1031A0000268C3F308035360036A02330362E0E773
:1031B00038B504460268136923F44053C1680B43D1
:1031C000136183680269134342691343C2691A4356
:1031D0000168CB6823F4164323F00C031343CB6040
:1031E0000268536923F4407381690B435361036898
:1031F000314A934206D002F58062934202D0FFF733
:1032000091FD01E0FFF79EFDE369B3F5004F29D082
:103210000021031849411B1841F10001C90041EA8E
:103220005371DB00181863684FEA83024FEA937307
:1032300041F10001FDF7F0F9204DA5FB00325109E5
:10324000642303FB11031B013233A5FB03235B093A
:1032500003F0F00202EB011203F00F0321681344A4
:103260008B6038BD0023021843EB0301121841F1B3
:103270000001C90041EA5271D200101841F1000169
:10328000626892185B41FDF7C7F90C4DA5FB00324F
:103290005109642303FB1103DB003233A5FB032335
:1032A0005B095A0002F4F87202EB011203F0070303
:1032B000216813448B60D4E7001001401F85EB5157
:1032C0002DE9F84305460F4616469946DDF820805D
:1032D0002C68246837EA04030CBF4FF0010C4FF050
:1032E000000CB4452DD1B8F1FF3FF1D0B8F1000F7B
:1032F00005D0FEF7C5FBA0EB09004045E8D92A68D8
:1033000002F10C0353E8003F23F4D0730C3242E87F
:1033100000310029F3D12A6802F1140353E8003F79
:1033200023F00103143242E800310029F3D12023B5
:1033300085F83D3085F83E30002385F83C30032089
:1033400000E00020BDE8F88358B310B5044690F8BB
:103350003D300BB3242384F83D302268D36823F436
:103360000053D3602046FFF723FF2268136923F43C
:10337000904313612268536923F02A035361226842
:10338000D36843F40053D36000202064202384F8E2
:103390003D3084F83E3010BD80F83C30FEF7A6FA90
:1033A000D8E7012070472DE9F04182B01E4690F821
:1033B0003D30DBB2202B54D104460D469046002907
:1033C00053D0002A53D090F83C30012B51D0012328
:1033D00080F83C3000230364212380F83D30FEF761
:1033E0004FFB0746A4F82480A4F82680A368B3F511
:1033F000805F05D04FF00008002384F83C3012E0D5
:10340000236913B14FF00008F6E7A8460025F3E75B
:1034100038F8023B2268C3F308035360E28C92B28F
:10342000013A92B2E284E38C9BB273B100963B46C0
:10343000002280212046FFF743FFE0B9002DE7D0AE
:1034400015F8012B23685A60E8E700963B460022F6
:1034500040212046FFF734FF78B9202384F83D301F
:1034600000E0022002B0BDE8F0810120FAE701206F
:10347000F8E70220F6E70320F4E70320F2E7000074
:1034800038B590F83D30DBB2202B38D10446002906
:1034900037D0002A37D090F83C30012B35D00123AB
:1034A00080F83C3001628284C284002505642123B7
:1034B00080F83D30436B1648D863636B1548186439
:1034C000636B1548D864636B1D6520681346021D45
:1034D000606BFEF795FE23686FF040021A6084F877
:1034E0003C50226802F1140353E8003F43F080038C
:1034F000143242E800310029F3D1002000E002201C
:1035000038BD0120FCE70120FAE70220F8E700BF00
:10351000A33500080B3600081B36000810B504461A
:1035200003685A6990F83D30DBB2212B0AD023683A
:103530005A6902F0400294F83E30DBB2222B19D0D7
:10354000002010BD02F08002002AF0D0226802F1B3
:10355000140353E8003F23F08003143242E80031A3
:103560000029F3D1606B08B1FEF77FFE2046FFF71C
:10357000B1FDDCE7002AE3D0226802F1140353E82E
:10358000003F23F04003143242E800310029F3D118
:10359000A06B08B1FEF769FE2046FFF7ABFDCFE751
:1035A000704708B50346806B1B681B6813F4807F67
:1035B0001AD10023C384026802F1140353E8003FC8
:1035C00023F08003143242E800310029F3D102686D
:1035D00002F10C0353E8003F43F040030C3242E891
:1035E00000310029F3D108BDFFF7DAFFFBE708B58A
:1035F0000168CA6822F04002CA60202280F83D209B
:10360000FFF7CEFF002008BD704708B5806BFFF7BD
:10361000FBFF08BD70477047704710B5846B236887
:103620005A6994F83D30DBB2212B10D023685A69D7
:1036300002F0400294F83E30DBB2222B11D0236C12
:1036400043F0100323642046FFF7E6FF10BD02F0AD
:103650008002002AEAD00023E3842046FFF73AFDE7
:10366000E4E7002AEBD00023E3852046FFF742FD84
:10367000E5E708B5806B0023C385C384FFF7CCFF63
:1036800008BD704790F83E30DBB2222B67D18368CB
:10369000B3F5805F4DD0826AB3F5805F04D0002B14
:1036A00054D10369002B51D103685B681370836A9E
:1036B00001338362C38D9BB2013B9BB2C385002B58
:1036C0004FD100B583B00268D36823F02003D360E4
:1036D0000268D36823F48073D3600268536923F0CF
:1036E00001035361202380F83E30036B012B33D15B
:1036F00000230363026802F10C0353E8003F23F048
:1037000010030C3242E800310029F3D103681A6833
:1037100012F0100F06D0002201921A6801925B6825
:103720000193019B818DFFF7ACFF002003B05DF892
:1037300004FB0269002AAED1826A03685B68C3F3A6
:1037400008031380836A02338362B3E703685B680C
:1037500003F07F031370AAE7FFF75CFFE5E70220A1
:10376000704700207047000030B583B004460268FF
:103770001368D068516913F00F0505D113F0200FBD
:1037800002D010F0200F19D12DB111F0010119D183
:1037900010F4907F16D1216B01297DD013F0800F9A
:1037A00003D010F0800F40F0158113F0400F03D0CC
:1037B00010F0400F40F0128103B030BD2046FFF7FB
:1037C00061FFF9E713F0010F06D010F4807F03D0FA
:1037D000226C42F00102226413F0040F04D019B1EC
:1037E000226C42F00202226413F0020F04D019B1DD
:1037F000226C42F00402226413F0080F07D010F08C
:10380000200F00D119B1226C42F008022264226C10
:10381000002AD1D013F0200F02D010F0200F29D1B0
:1038200023685B6903F04003226C12F0080F00D19B
:1038300063B32046FFF75EFC23685B6913F0400F1B
:1038400020D0226802F1140353E8003F23F0400324
:10385000143242E800310029F3D1A36B73B1614AFD
:103860001A65A06BFEF74BFD0028A5D0A06B036D79
:103870009847A1E72046FFF705FFD1E72046FFF76D
:10388000CBFE99E72046FFF7C7FE95E72046FFF7F6
:10389000C3FE002323648FE713F0100F3FF47EAFC5
:1038A00010F0100F3FF47AAF0023019313680193D7
:1038B00053680193019B536913F0400F50D0A26BE2
:1038C00013685B689BB2002B3FF476AFA18D9942E1
:1038D0007FF672AFE385D369B3F5807F37D0226876
:1038E00002F10C0353E8003F23F480730C3242E8EA
:1038F00000310029F3D1226802F1140353E8003F9C
:1039000023F00103143242E800310029F3D1226888
:1039100002F1140353E8003F23F04003143242E85D
:1039200000310029F3D1202384F83E3000232363A3
:10393000226802F10C0353E8003F23F010030C321D
:1039400042E800310029F3D1A06BFEF78EFCA18D77
:10395000E38D9BB2C91A89B22046FFF792FE2BE78E
:10396000A18DE38D9BB2C91A89B2E38D9BB2002B66
:103970003FF422AF00293FF41FAF226802F10C038D
:1039800053E8003F23F490730C3242E800300028E3
:10399000F3D1226802F1140353E8003F23F001033E
:1039A000143242E800300028F3D1202384F83E305E
:1039B00000232363226802F10C0353E8003F23F045
:1039C00010030C3242E800300028F3D12046FFF704
:1039D00058FEF1E62046FFF7BBFBEDE62046FFF779
:1039E00006FEE9E67336000808B5806B036B012B11
:1039F00002D0FFF710FE08BD818D4908FFF741FE98
:103A0000F9E708B50346806B1B681B6813F4807FD9
:103A10002BD10023C385026802F10C0353E8003F59
:103A200023F480730C3242E800310029F3D102689C
:103A300002F1140353E8003F23F00103143242E87B
:103A400000310029F3D1026802F1140353E8003F6A
:103A500023F04003143242E800310029F3D120233F
:103A600080F83E30036B012B05D0036B012B0FD088
:103A7000FFF7D0FD08BD026802F10C0353E8003FD8
:103A800023F010030C3242E800310029F3D1ECE7B7
:103A9000818DFFF7F6FDEDE730B583B004461346A0
:103AA0008162828500250564222280F83E20826B97
:103AB0002048D063A26B20481064A26B1F48D064DA
:103AC000A26B156520680A46011DA06BFEF798FBE6
:103AD000019523681A6801925B680193019B84F841
:103AE0003C5023695BB1226802F10C0353E8003FAC
:103AF00043F480730C3242E800310029F3D122688C
:103B000002F1140353E8003F43F00103143242E88A
:103B100000310029F3D1226802F1140353E8003F79
:103B200043F04003143242E800310029F3D1002071
:103B300003B030BD033A0008E93900081B3600081D
:103B400008B590F83E30DBB2202B0DD171B17AB1BF
:103B500090F83C30012B0DD0012380F83C3000233D
:103B60000363FFF799FF00E0022008BD0120FCE796
:103B70000120FAE70220F8E708B501F034FF10B1A0
:103B800002684068904708BD08B54FF0E0231B6904
:103B900001F03CFC012800D108BD00F043FAFBE72E
:103BA000EFF305832BB9064B186828B901221A6078
:103BB00070476FF0050070474FF0FF30704700BF4F
:103BC000340E0020EFF3058373B90A4B1B68012BF9
:103BD0000DD110B50024084BDC77064B02221A6089
:103BE00001F072F9204610BD6FF0050070474FF0EC
:103BF000FF307047340E002000ED00E0F0B587B0D4
:103C000000240594EFF3058474BB68B322B31568F0
:103C1000936903B918235C1E372C49D8546814F0F3
:103C2000010F47D156696EB14FEA960C94682CB1DA
:103C3000D7685B2F02D9176907B1C6B92CB14FF00D
:103C4000FF340EE04FF0800CF0E7D4688CB91469B3
:103C500094B14FF0FF3404E01546002418234FF0D0
:103C6000800C012C0AD0ACB1059807B0F0BD01243E
:103C7000F7E74FF0FF34F4E70024F2E714699268A5
:103C80000292019400930B466246294601F0ACF87B
:103C90000590E9E705AA019200930B461FFA8CF202
:103CA000294601F0DCF80128DED000230593DBE78C
:103CB0000020DAE70020D8E708B5EFF3058333B931
:103CC00008B9002008BD01F063FA0020FAE76FF0A0
:103CD0000500F7E72DE9F04383B0EFF30587002FE8
:103CE00043D10646894615461C4600283FD0082089
:103CF00000F0E0FA804600283BD006604560B9F14C
:103D0000000F00D0012704B32068A36813B1E26854
:103D10002B2A10D853B14FF0FF33DBB100244046BB
:103D200000F046FB204603B0BDE8F083E3687BB1BA
:103D30004FF0FF33F1E701930F4B009343463A46B0
:103D4000012101F09BFC04460CE020460023E4E73F
:103D50000023E2E7084B009343463A46012101F075
:103D600071FC0446002CDDD1D9E70024DAE70024F9
:103D7000D8E70446D6E700BF793B0008EFF3058398
:103D80006BB90A4670B100B583B00093042101F00D
:103D90009FFC012809D1002003B05DF804FB6FF0FF
:103DA000050070476FF0030070476FF00200F3E703
:103DB000034B0360034B0B6080231360704700BF0D
:103DC000D80D0020D80B0020034B0360034B0B6081
:103DD0004FF480731360704738120020380E0020B3
:103DE00000F1080343604FF0FF328260C36003615B
:103DF00000230360704700230361704743684B60F2
:103E00009A688A60516099600861036801330360B1
:103E1000704730B40D68B5F1FF3F11D000F10803D1
:103E20001C465B681A68AA42FAD963684B609960BD
:103E30008C606160086103680133036030BC7047C7
:103E40000469F2E70369416882688A6041685160E9
:103E50005A68824206D0002202611A68013A1A604A
:103E60001868704782685A60F5E7000082B0002346
:103E700001930D4B1B68B3F1FF3F08D04FF0500387
:103E800083F31188BFF36F8FBFF34F8FFEE74FF0BF
:103E9000500383F31188BFF36F8FBFF34F8F019BE4
:103EA000002BFCD002B070470C00002008480068CE
:103EB000006880F308884FF0000080F3148862B631
:103EC00061B6BFF34F8FBFF36F8F00DF00BF0000FD
:103ED00008ED00E0DFF80C00016841F470010160BA
:103EE0007047000088ED00E04FF0807340F8043C1C
:103EF00021F0010140F8081C054B40F80C3C40F84B
:103F0000202C6FF0020340F8243C4438704700BF77
:103F10006D3E0008000000000000000000000000EE
:103F2000074B19680868B0E8F04F80F30988BFF3C1
:103F30006F8F4FF0000080F311887047AFF300805F
:103F4000FC4E00204FF0500383F31188BFF36F8FB6
:103F5000BFF34F8F0B4A136801331360012B00D05E
:103F600070474FF0E023D3F8043D13F0FF0FF7D074
:103F70004FF0500383F31188BFF36F8FBFF34F8F60
:103F8000FEE700BF0C000020094B1B6843B94FF04F
:103F9000500383F31188BFF36F8FBFF34F8FFEE79A
:103FA000013B034A13600BB983F31188704700BFCC
:103FB0000C000020000000000000000000000000D5
:103FC000EFF30980BFF36F8F154B1A681EF0100FC7
:103FD00008BF20ED108A20E9F04F10602DE909009C
:103FE0004FF0500080F31188BFF34F8FBFF36F8FF6
:103FF00001F0F4F84FF0000080F3118809BC196853
:104000000868B0E8F04F1EF0100F08BFB0EC108A3F
:1040100080F30988BFF36F8F704700BFAFF3008054
:10402000FC4E002008B54FF0500383F31188BFF316
:104030006F8FBFF34F8F00F0A3FF28B14FF0E02345
:104040004FF08052C3F8042D002383F3118808BD7C
:104050004FF0E022002313619361054B1B68054973
:10406000A1FB03139B09013B5361072313617047B5
:1040700000000020D34D62104FF0E023D3F8002D54
:104080003D4B9A421CD04FF0E023D3F8002D3B4B20
:104090009A421ED030B583B0394B1A78D2B2019211
:1040A000FF221A701B78DBB28DF803309DF80330C5
:1040B00003F05003334A1370334B07221A601BE09E
:1040C0004FF0500383F31188BFF36F8FBFF34F8F0F
:1040D000FEE74FF0500383F31188BFF36F8FBFF3F8
:1040E0004F8FFEE7284A1368013B13609DF80330A9
:1040F0005B00DBB28DF803309DF8033013F0800FC6
:10410000F0D1214B1B68032B08D04FF0500383F3F1
:104110001188BFF36F8FBFF34F8FFEE71B021A4A60
:10412000136003F4E0631360019BDBB2144A137065
:104130004FF0E024D4F8203D43F47003C4F8203D50
:10414000D4F8203D43F07043C4F8203DFFF780FFD2
:1041500000250E4B1D60FFF7BDFED4F8343F43F041
:104160004043C4F8343FFFF7A1FE01F037F8FFF7F2
:104170007DFE284603B030BD71C20F4170C20F41B1
:1041800000E400E094120020981200200C000020AF
:10419000EFF305830F2B0FD9114A9B5CDBB2114A59
:1041A00012789A4208D94FF0500383F31188BFF375
:1041B0006F8FBFF34F8FFEE74FF0E023D3F80C3D36
:1041C00003F4E063084A1268934208D94FF05003A1
:1041D00083F31188BFF36F8FBFF34F8FFEE77047F4
:1041E000F0E300E09412002098120020124A12F02E
:1041F000070F1ED0D11D21F00701C1F570531344E4
:104200000A460E480260002141601344083B23F037
:1042100007030B48036059601960991A51601360D5
:10422000084B1960084B1960084B4FF000421A60A8
:1042300070474FF47053E4E7A0120020B44E002002
:104240009C120020A84E0020A44E0020A04E00206A
:10425000164B1A461B688342FBD3516802EB010CD4
:10426000844509D0416800EB010C634509D0036027
:10427000904219D010607047406801445160104668
:10428000F0E710B40A4C2468A3420BD05B681944D1
:10429000416013681B680360904200D010605DF8B5
:1042A000044B70470460F7E7704700BFB44E00202E
:1042B0009C12002070B5054600F054FE364B1B687A
:1042C000A3B1364B1B681D424ED135B1083515F0F0
:1042D000070F02D025F007050835002D46D0304BDA
:1042E0001B68AB4251D32F4A146804E0FFF77EFFEE
:1042F000E7E722461C466368AB4202D22368002BE4
:10430000F7D1254B1B68A34241D0166808362368B5
:10431000136063685B1B102B10D9601910F0070F36
:1043200008D04FF0500383F31188BFF36F8FBFF3B2
:104330004F8FFEE743606560FFF78AFF62681849A8
:104340000B689B1A0B60184909688B4201D2164909
:104350000B60124B1B681343636000232360134AF6
:1043600013680133136002E0002600E0002600F02D
:1043700093FE16F0070F0CD04FF0500383F3118813
:10438000BFF36F8FBFF34F8FFEE70026EFE70026E6
:10439000EDE7304670BD00BF9C120020A04E00200B
:1043A000A44E0020B44E0020A84E0020AC4E0020A9
:1043B000002834D038B50446A0F1080550F8043C74
:1043C000174A1268134208D14FF0500383F3118843
:1043D000BFF36F8FBFF34F8FFEE750F8081C41B15A
:1043E0004FF0500383F31188BFF36F8FBFF34F8FEC
:1043F000FEE723EA020340F8043C00F0B3FD54F862
:10440000041C084A13680B4413602846FFF720FF7A
:10441000054A13680133136000F03EFE38BD704753
:10442000A04E0020A44E0020B04E002010B504463F
:10443000FFF788FDA26BE36B9A4204D00024FFF7DC
:10444000A3FD204610BD0124F9E710B50446FFF78F
:1044500079FDA36B23B90124FFF796FD204610BD1B
:104460000024F9E770B504461546866B026C5AB90C
:1044700003681BB100200136A66370BD806800F0A0
:10448000D5FF0023A360F6E76DB94068FCF746FA54
:10449000226C636813446360A268934219D3236853
:1044A00063602846E7E7C068FCF738FA226C51429F
:1044B000E3689B1AE3602268934202D2A3680B442C
:1044C000E360022D01D00020D5E726B1013E002097
:1044D000D1E72846CFE70020CDE70346026C6AB15A
:1044E00010B50846D9681144D9609C68A14201D32F
:1044F0001968D960D968FCF711FA10BD704738B552
:104500000546FFF71FFD95F8454064B201E0013C08
:1045100064B2002C0ADD6B6A43B105F1240000F09F
:10452000DBFE0028F3D000F06BFFF0E7FF2385F8F7
:104530004530FFF729FDFFF705FD95F8444064B2CB
:1045400001E0013C64B2002C0ADD2B6943B105F1A6
:10455000100000F0C1FE0028F3D000F051FFF0E79A
:10456000FF2385F84430FFF70FFD38BD38B5E0B1C3
:104570000D460446FFF7E6FC2368E26B216C01FB65
:104580000230A0600020A0636360013A02FB0133A7
:10459000E360FF2384F8443084F84530FDB9236993
:1045A00063B9FFF7F1FC012038BD4FF0500383F3EE
:1045B0001188BFF36F8FBFF34F8FFEE704F1100038
:1045C00000F08AFE0028ECD04FF0E0234FF080523C
:1045D000C3F8042DBFF34F8FBFF36F8FE1E704F1F2
:1045E0001000FFF7FDFB04F12400FFF7F9FBD8E70B
:1045F00038B51D46049C0B4649B92460E06323642A
:1046000001212046FFF7B2FF84F84C5038BD2260EC
:10461000F4E740B94FF0500383F31188BFF36F8F75
:10462000BFF34F8FFEE710B584B01C46844653B1EC
:1046300092B189B94FF0500383F31188BFF36F8FA4
:10464000BFF34F8FFEE74FF0500383F31188BFF3A2
:104650006F8FBFF34F8FFEE76AB150230393039B25
:10466000502B13D04FF0500383F31188BFF36F8F9B
:10467000BFF34F8FFEE70029EFD04FF0500383F3D5
:104680001188BFF36F8FBFF34F8FFEE7039B0123AA
:1046900084F8463000949DF818306046FFF7A8FF74
:1046A000204604B010BDF0B585B0019288B10F4628
:1046B0001D460446B1B1022D20D1E36B012B1DD064
:1046C0004FF0500383F31188BFF36F8FBFF34F8F09
:1046D000FEE74FF0500383F31188BFF36F8FBFF3F2
:1046E0004F8FFEE7036C002BE5D04FF0500383F3B0
:1046F0001188BFF36F8FBFF34F8FFEE700F086FE88
:10470000064658B9019B002B48D04FF0500383F365
:104710001188BFF36F8FBFF34F8FFEE700263DE098
:104720002A4639462046FFF79DFE636A7BB948B1A9
:104730004FF0E0234FF08052C3F8042DBFF34F8FAA
:10474000BFF36F8FFFF720FC012005B0F0BD04F12F
:10475000240000F0C1FD0028F4D04FF0E0234FF01A
:104760008052C3F8042DBFF34F8FBFF36F8FE9E77B
:10477000FFF70AFC0020E8E702A800F0F3FD01269D
:1047800019E0002384F8443021E0002384F8453008
:1047900023E02046FFF7B3FE00F07EFCFFF7D2FBDC
:1047A000A26BE36B9A42BBD3022DB9D0019B002BC5
:1047B000DED0002EE0D0FFF7E7FB00F0D3FBFFF7E1
:1047C000C1FB94F8442052B2B2F1FF3FD9D094F823
:1047D000452052B2B2F1FF3FD7D0FFF7D5FB01A978
:1047E00002A800F0CBFDD8B92046FFF71FFE002835
:1047F000CFD0019904F1100000F03AFD2046FFF7F8
:104800007EFE00F049FC0028C8D14FF0E0234FF0B5
:104810008052C3F8042DBFF34F8FBFF36F8FBDE7F6
:104820002046FFF76CFE00F037FC00208DE72DE9F5
:10483000F84390B10F4616461C460546B1B1022C0E
:1048400020D1EB6B012B1DD04FF0500383F3118867
:10485000BFF36F8FBFF34F8FFEE74FF0500383F32B
:104860001188BFF36F8FBFF34F8FFEE7036C002BF0
:10487000E5D04FF0500383F31188BFF36F8FBFF380
:104880004F8FFEE7FFF784FCEFF311894FF05003E1
:1048900083F31188BFF36F8FBFF34F8FAA6BEB6B5E
:1048A0009A4206D3022C04D0002089F31188BDE877
:1048B000F88395F845804FFA88F8AB6B2246394665
:1048C0002846FFF7CFFDB8F1FF3F06D008F10103FE
:1048D0005BB285F845300120E7E76B6A0BB9012030
:1048E000E3E705F1240000F0F7FC18B126B1012040
:1048F0003060DAE70120D8E70120D6E7F0B585B0CF
:10490000019290B10F460446C1B100F07FFD06460A
:1049100000BB019B002B5ED04FF0500383F3118846
:10492000BFF36F8FBFF34F8FFEE74FF0500383F35A
:104930001188BFF36F8FBFF34F8FFEE7036C002B1F
:10494000E3D04FF0500383F31188BFF36F8FBFF3B1
:104950004F8FFEE700263EE039462046FFF7BDFDBB
:10496000013DA563236923B9FFF70EFB012005B0C4
:10497000F0BD04F1100000F0AFFC0028F4D04FF0BF
:10498000E0234FF08052C3F8042DBFF34F8FBFF3E5
:104990006F8FE9E7FFF7F8FA0020E8E702A800F0D8
:1049A000E1FC012621E0002384F8443029E00023C3
:1049B00084F845302BE02046FFF7A1FD00F06CFBAA
:1049C00009E02046FFF79BFD00F066FB2046FFF75D
:1049D0003CFD00283FD1FFF7B5FAA56B002DBBD1F8
:1049E000019B002BD6D0002ED8D0FFF7CDFA00F0D7
:1049F000B9FAFFF7A7FA94F844305BB2B3F1FF3F7E
:104A0000D1D094F845305BB2B3F1FF3FCFD0FFF780
:104A1000BBFA01A902A800F0B1FC0028D1D12046C0
:104A2000FFF713FD0028C6D0019904F1240000F01F
:104A30001FFC2046FFF763FD00F02EFB0028CAD1C3
:104A40004FF0E0234FF08052C3F8042DBFF34F8F97
:104A5000BFF36F8FBFE7002089E700000023072B1B
:104A60000CD8074A52F833200AB10133F7E7044A59
:104A700042F8331002EBC30358607047704700BF21
:104A8000BC4E002070B504460D461646FFF75AFA94
:104A900094F844305BB2B3F1FF3F0DD094F8453049
:104AA0005BB2B3F1FF3F0BD0FFF76EFAA36B5BB1C4
:104AB0002046FFF724FD70BD002384F84430EDE765
:104AC000002384F84530EFE73246294604F12400FC
:104AD00000F0E6FBECE70000084B1B681B6823B9FD
:104AE000074B4FF0FF321A607047044B1B68DB68BE
:104AF000DB685A68024B1A60704700BF004F002005
:104B0000A85300202DE9F04780460D4617469946E8
:104B1000089EDDF824A00A9C9200A521206B00F0DD
:104B2000D1FF236B07F18042013A03EB820727F0A4
:104B30000707B5B34FF0000CBCF10F0F0BD815F8F9
:104B40000C2004EB0C0383F8342015F80C3013B15F
:104B50000CF1010CF0E7002384F84330372E00D924
:104B60003726E662E66400252565201DFFF743F938
:104B700004F11800FFF73FF92461C6F13806A66179
:104B80006462656584F858504A4641463846FFF7E6
:104B9000ABF92060BAF1000F01D0CAF80040BDE8BF
:104BA000F087002384F83430D8E7000038B50024BB
:104BB00007E004EB840293000E481844FFF710F955
:104BC0000134372CF5D90C4D2846FFF709F90B4C69
:104BD0002046FFF705F90A48FFF702F90948FFF7F1
:104BE000FFF80948FFF7FCF8084B1D60084B1C60F4
:104BF00038BD00BF084F00207C5300209053002098
:104C0000B4530020E0530020CC530020004F00207C
:104C1000044F002010B50446FFF794F9224A1368A8
:104C200001331360214B1B685BB1214B1B686BB9CF
:104C30001E4B1B68DA6AE36A9A4207D81B4B1C605A
:104C400004E01A4B1C601368012B29D0194A136821
:104C5000013313606364E06A174B1B68984201D903
:104C6000154B186000EB8000211D144B03EB8000F6
:104C7000FFF7C4F8FFF788F90D4B1B687BB10B4BAE
:104C80001B68DA6AE36A9A4209D24FF0E0234FF0D8
:104C90008052C3F8042DBFF34F8FBFF36F8F10BD49
:104CA000FFF784FFD2E700BF68530020FC4E0020CE
:104CB000C85300207453002078530020084F002070
:104CC00010B5044690F8593063B1012B11D0022B76
:104CD0000ED04FF0500383F31188BFF36F8FBFF3F3
:104CE0004F8FFEE7006BFFF763FB2046FFF760FB8B
:104CF00010BDFFF75DFBFBE70F4B1B68D3B110B591
:104D0000FFF720F90D4BDB68DC68201DFFF79AF8F0
:104D10000B4A1368013B1360074A1368013B136099
:104D2000FFF732F92046FFF7CBFF034B1B68002B40
:104D3000E6D110BD704700BF6C530020E053002047
:104D40006853002008B5FFF7D7FF074B1B68012BFE
:104D5000F9D94FF0E0234FF08052C3F8042DBFF390
:104D60004F8FBFF36F8FEEE7084F002070B50446FA
:104D70000D46174B1E68174B18680430FFF762F892
:104D8000B4F1FF3F0DD03444124B1B685C60A64267
:104D900010D9114B18680F4B19680431FFF739F817
:104DA00070BD002DEFD00B4B196804310B48FFF795
:104DB00025F8F5E70A4B1868064B19680431FFF728
:104DC00028F8084B1B68A342EAD9064B1C60E7E7AA
:104DD000F4530020FC4E0020044F0020CC53002050
:104DE000004F0020A853002030B587B00B9C7CB149
:104DF0000C9DB5B15C250495049D5C2D1AD04FF037
:104E0000500383F31188BFF36F8FBFF34F8FFEE71B
:104E10004FF0500383F31188BFF36F8FBFF34F8FB1
:104E2000FEE74FF0500383F31188BFF36F8FBFF39A
:104E30004F8FFEE7049D0C9D2C63022485F859409A
:104E400000240394029505AC01940A9C0094FFF79A
:104E500059FE0C98FFF7DEFE059807B030BD2DE92E
:104E6000F04385B00746884614461E469000FFF77B
:104E700021FA00B381465C20FFF71CFA0546B0B169
:104E8000C0F83090E5B1002385F8593003930295BE
:104E90000D9B01930C9B00933346224641463846B6
:104EA000FFF730FE2846FFF7B5FE012005E0484633
:104EB000FFF77EFAE6E74FF0FF3005B0BDE8F0837C
:104EC0004FF0FF30F9E7000010B588B000240594DA
:104ED000069407AA06A905A8FEF76AFF059B029398
:104EE000069B019300942346079A18491848FFF738
:104EF0007BFF184B186040B100F072FB012806D010
:104F0000B0F1FF3F18D008B010BD0020F6E74FF019
:104F1000500383F31188BFF36F8FBFF34F8F0E4B96
:104F20004FF0FF321A600D4B01221A600C4B002229
:104F30001A60FFF7A1F8E6E74FF0500383F31188FA
:104F4000BFF36F8FBFF34F8FFEE700BFE0D70008BE
:104F5000454D0008A4530020A8530020C85300204A
:104F6000F4530020024A136801331360704700BFF6
:104F700070530020014B1868704700BFF4530020A5
:104F8000F8B53A4B1B68002B69D1394B1D680135C8
:104F90001D60C5B9374B1B681B6843B14FF0500308
:104FA00083F31188BFF36F8FBFF34F8FFEE7314A52
:104FB0001168314B186810601960304A136801336A
:104FC0001360FFF789FD2E4B1B68AB423DD90027CC
:104FD0002C4B1B68DB6A03EB83039A002A4B9B581C
:104FE000012B00D90127294B1B68002B3CD001273E
:104FF0003AE001271F4B1B681B6843B31D4B1B681E
:10500000DB68DC6863689D4226D3261D3046FEF7C8
:1050100019FFA36A1BB104F11800FEF713FFE36A3E
:105020001B4A1268934201D9194A136003EB8303A8
:105030009A00314614481044FEF7E0FEE26A114B34
:105040001B68DB6A9A42D4D2D4E70027D2E70C4B24
:105050004FF0FF321A60BBE7094A1360B8E70D4A08
:1050600013680133136000273846F8BD70530020E1
:10507000F4530020004F0020044F0020AC530020C8
:10508000A8530020FC4E0020084F0020F8530020B9
:1050900078530020B053002038B5354B1B6843B916
:1050A0004FF0500383F31188BFF36F8FBFF34F8F1F
:1050B000FEE7FEF747FF2E4B1A68013A1A601B689D
:1050C000002B4FD12B4B1B680BB900244BE0002465
:1050D000294B1B681BB3284BDB68DC6804F1180004
:1050E000FEF7B0FE251D2846FEF7ACFEE06A234B16
:1050F0001B68984201D9214B186000EB80002946BB
:105100001F4B03EB8000FEF779FEE26A1D4B1B6824
:10511000DB6A9A42DCD31C4B01221A60D8E70CB13F
:10512000FFF7DAFC194B1C6884B9174B1C68D4B123
:105130004FF0E0234FF08052C3F8042DBFF34F8FA0
:10514000BFF36F8F01240EE0013C07D0FFF718FF7B
:105150000028F9D00C4B01221A60F5E70B4B002216
:105160001A60E2E70024FEF70FFF204638BD00BFBB
:105170007053002068530020B4530020785300205F
:10518000084F0020FC4E0020F8530020B0530020B0
:1051900010B5A8B10446104B1B6843B14FF0500343
:1051A00083F31188BFF36F8FBFF34F8FFEE7FFF7D5
:1051B000D9FE00212046FFF7D9FDFFF76DFF48B962
:1051C0004FF0E0234FF08052C3F8042DBFF34F8F10
:1051D000BFF36F8F10BD00BF705300201F4B1B68C3
:1051E0001BB11F4B01221A6070471D4B00221A6031
:1051F0001C4B1B6803EB83018A001B498A585AB970
:105200000BB1013BF6E74FF0500383F31188BFF376
:105210006F8FBFF34F8FFEE703EB830082000A44DA
:1052200050684068506003EB830C4FEA8C020832F0
:10523000114488420BD003EB830291000A4A0A44CE
:105240005268D168094A1160064A13607047406885
:1052500062469100044A0A445060ECE77053002013
:10526000F853002078530020084F0020FC4E002007
:1052700058B110B50C46094A11681831FEF7C9FD3E
:1052800001212046FFF772FD10BD4FF0500383F35C
:105290001188BFF36F8FBFF34F8FFEE7FC4E0020E6
:1052A00038B570B10D4614460A4A11681831FEF738
:1052B000A5FD0CB14FF0FF3521462846FFF756FDFE
:1052C00038BD4FF0500383F31188BFF36F8FBFF3E6
:1052D0004F8FFEE7FC4E002038B5C368DC6824B36E
:1052E00004F118052846FEF7ADFD184B1B682BBBD3
:1052F000251D2846FEF7A6FDE06A154B1B6898425F
:1053000001D9134B186000EB80002946114B03EBC9
:105310008000FEF773FDE26A0F4B1B68DB6A9A425E
:1053200011D901200D4B186038BD4FF0500383F3A5
:105330001188BFF36F8FBFF34F8FFEE729460848F0
:10534000FEF75CFDE7E70020EEE700BF70530020AA
:1053500078530020084F0020FC4E0020F853002016
:10536000B4530020034B1B680360034B1B6843606E
:10537000704700BFAC530020F4530020F8B5C8B10B
:105380000C460546F9B1FEF7DDFD1B4B19686B684D
:10539000C81A2268B2F1FF3F26D0184E36682F682F
:1053A000B74201D08B4224D9824215D80023236012
:1053B00001241AE04FF0500383F31188BFF36F8F7D
:1053C000BFF34F8FFEE74FF0500383F31188BFF315
:1053D0006F8FBFF34F8FFEE75B1A1344236028469D
:1053E000FFF7C0FF002400E00024FEF7CDFD2046BB
:1053F000F8BD0124F9E700BFF4530020AC530020AE
:10540000014B01221A607047F8530020054B1B68BE
:1054100033B1054B1B680BB1002070470220704769
:1054200001207047C85300207053002000283BD053
:1054300038B504461E4B1B68834208D04FF050031A
:1054400083F31188BFF36F8FBFF34F8FFEE7036DB8
:1054500043B94FF0500383F31188BFF36F8FBFF34D
:105460004F8FFEE7013B0365C16AC26C91421DD0BC
:105470000BB1002038BD051D2846FEF7E3FCE06CAB
:10548000E062C0F13803A3610A4B1B68984201D95E
:10549000084B186000EB80002946074B03EB8000A7
:1054A000FEF7ACFC0120E5E7002070470020E1E7B3
:1054B000FC4E002078530020084F0020064B1A684D
:1054C00013682BB90123036023B9D36818687047A8
:1054D0000023F8E700207047FC53002008B5416026
:1054E000006191420CD8D21A83699A4201D30120FB
:1054F00008BD011D094B1868FEF78BFC0020F7E77B
:105500009A4201D2994206D2011D054B1868FEF756
:1055100080FC0020ECE70120EAE700BF00540020F7
:10552000FC53002030B583B0FEF70CFD114B1B6817
:105530001BB1FEF729FD03B030BD0F4D2846FEF725
:105540004FFC0E4C2046FEF74BFC0D4B1D600D4BE7
:105550001C60002300930C4B0C4A10210A20FFF71B
:1055600058F8044B18600028E3D00949FFF776FA91
:10557000DFE700BF20550020A4540020B8540020CD
:10558000FC53002000540020D0540020045400207C
:10559000E8D700082DE9F041079F41B94FF05003CB
:1055A00083F31188BFF36F8FBFF34F8FFEE706467B
:1055B00014461D4688468FB1FFF7B4FF3E60C7F81A
:1055C0001880FD61069B3B62381DFEF714FC2CB170
:1055D00097F8283043F0040387F82830BDE8F081BD
:1055E00010B588B0FFF79EFF124B1B68CBB10024AB
:1055F0000594069407AA06A905A8FEF7E5FB059BF6
:105600000293069B0193022300932346079A0A49BB
:105610000A48FFF7E9FB0A4B186010B1012008B0F7
:1056200010BD4FF0500383F31188BFF36F8FBFF3AA
:105630004F8FFEE720550020F0D70008D159000811
:10564000245500202DE9F04182B0044688461746D3
:105650001D462C20FEF72EFE064658B1002380F88A
:1056600028300190089B00932B463A46414620463D
:10567000FFF790FF304602B0BDE8F08110B584B06E
:1056800084462C20039003982C2808D04FF0500318
:1056900083F31188BFF36F8FBFF34F8FFEE703983B
:1056A000079860B10220079C84F8280001940698AE
:1056B00000906046FFF76EFF079804B010BD4FF0F2
:1056C000500383F31188BFF36F8FBFF34F8FFEE753
:1056D000B8B19C4603461848006858B300B585B079
:1056E00000910192029305291CDCFFF78FFE02282E
:1056F00010D000231A4669460F480068FEF7D3FF12
:1057000015E04FF0500383F31188BFF36F8FBFF3A1
:105710004F8FFEE70023069A694607480068FEF7A8
:10572000C2FF04E0002362466946FFF780F805B037
:105730005DF804FB002070472055002070B582B052
:105740001B4B1B681A6862B3DB681E68DC68251D8A
:105750002846FEF777FB236A2046984794F82830BE
:1057600013F0040FECD0A36933449E4207D2636068
:10577000246129460E4B1868FEF74BFBE0E7002139
:1057800000910B4632462046FFF7A2FF0028D7D1F2
:105790004FF0500383F31188BFF36F8FBFF34F8F28
:1057A000FEE7044A106802490860136002B070BD49
:1057B000FC5300200054002038B50546FFF7DAFB03
:1057C0000446074B1B68834205D800232B60044B1B
:1057D0001C60204638BDFFF7B1FF01232B60F6E7C0
:1057E000CC54002070B582B006460D4617490968B2
:1057F000C968CC68201DFEF725FB94F828C01CF072
:10580000040F08D12CF0010C84F828C0236A20462C
:10581000984702B070BDA16933462A4631442046FC
:10582000FFF75CFE0028F1D0002100910B463246C4
:105830002046FFF74DFF0028E8D14FF0500383F3D7
:105840001188BFF36F8FBFF34F8FFEE7FC5300202B
:1058500070B582B006460C46FFF784FB01A8FFF73F
:10586000ABFF019B33BB05460CB9B04219D224B142
:10587000124A12681268DAB901242246711B104BD1
:105880001868FFF7FFF8FFF707FCA8B94FF0E0230F
:105890004FF08052C3F8042DBFF34F8FBFF36F8FCB
:1058A0000AE0FFF7F9FB29463046FFF79BFF03E0CC
:1058B0001C46E2E7FFF7F0FB02B070BD0054002089
:1058C0002055002010B588B002E0049B002B0FDAB1
:1058D000002204A93D4B1868FFF710F8002873D088
:1058E000049B002BF1DA07990698059B9847ECE793
:1058F000069C636913B1201DFEF7A4FA03A8FFF705
:105900005BFF049B092BE3D8DFE803F005050530B6
:1059100037500505303794F8283043F0010384F8F8
:105920002830059BA169024619442046FFF7D6FDA1
:105930000028CDD0236A2046984794F8283013F0E9
:10594000040FC5D0A269002100910B4605980244BE
:105950002046FFF7BDFE0028BAD14FF0500383F375
:105960001188BFF36F8FBFF34F8FFEE794F8283095
:1059700023F0010384F82830AAE794F8283043F094
:10598000010384F828300599A16131B1034602462C
:1059900001442046FFF7A2FD9AE74FF0500383F33E
:1059A0001188BFF36F8FBFF34F8FFEE794F8283055
:1059B00013F0020F04D023F0010384F8283087E7A6
:1059C0002046FEF7F5FC83E708B010BD2055002007
:1059D00000B583B001A8FFF771FD0199FFF738FF0B
:1059E000FFF770FFF6E740B110B50446FEF7AAFADC
:1059F000E469FEF7C9FA204610BD4FF0500383F367
:105A00001188BFF36F8FBFF34F8FFEE798B52DED71
:105A1000028B00AF044601F1FF3C0731C9086B4619
:105A2000A3EBC1039D466846012304E05A1EE15CD6
:105A300081540133DBB29C45F8DC00F015F851ECE1
:105A4000100BFAF799FD08EE100A2378702B05D099
:105A5000B0EE480ABD46BDEC028B98BD014800F08F
:105A6000E5F8F5E7F8D70008002101F091B800BF8C
:105A7000014B1868704700BF1000002070B50D4E34
:105A80000D4D761BB61006D0002455F8043B0134AA
:105A90009847A642F9D1094E094D761B07F042FE00
:105AA000B61006D0002455F8043B01349847A642AE
:105AB000F9D170BD00DE000800DE000808DE000835
:105AC00000DE0008830730B548D0541E002A3FD0BE
:105AD000CAB2034601E0013C3AD303F8012B9D070B
:105AE000F9D1032C2DD9CDB245EA05250F2C45EA75
